:060000000A128A11FC2F18
:100EC400F00083160313981C682F692F632F700892
:100ED40083120313990008007A2F981C722F732F22
:100EE400752F18121816181D782F792F7A2F1A08B3
:100EF400831203138C1E7F2F802F6F2F1A08080074
:100F0400831603130713871707309F0019309900BE
:100F140018151812981683120313981718160D3003
:100F2400F100FB30F000F00B952FF10B952F9A2F69
:100F340008008316031307108312031307100A1201
:100F44008A1182270A128A118230F300DD30F200FE
:100F5400F20BAA2FF30BAA2FAF2F53300A128A11C8
:100F640062270A128A1154300A128A1162270A125D
:100F74008A1141300A128A1162270A128A115230E8
:100F84000A128A1162270A128A1154300A128A112B
:100F940062270A128A110D300A128A1162270A1274
:100FA4008A110A300A128A1162270A128A110A1255
:100FB4008A116E270A128A11F40074080A128A111F
:100FC40062270A128A1131307406031DEA2FEB2FAF
:100FD400EF2F831203130714D92F30307406031D27
:100FE400F42FF52FD92F831203130710D92F0A12C8
:0C0FF4008A11002883010A128A119B2F29
:02400E00313F40
:00000001FF
