:060000000A128A110E280D
:10000800FE00030EF0000408F1000A08F2000A12CC
:100018008A11C02C0A128A111128F901FA018313D6
:100028002030840053300A128A119E250A128A1140
:1000380083010A128A111C2A0A128A1142250A12FD
:100048008A117B3A031D29282A2820280A128A1196
:1000580042250A128A1183120313DB0022305B0641
:10006800031D372838282A280A128A1142250A121D
:100078008A11633A031D412842282A280A128A1144
:1000880042250A128A115B3A031D4B284C28422844
:1000980083120313D901DA010A128A1142250A12BE
:1000A8008A1183120313DB0020305B0603195D28D5
:1000B8005E2850282C305B060319632864285028D2
:1000C80075285A08553E84005B0883138000013068
:1000D800DA070A128A1142250A128A1183120313B7
:1000E800DB0030305B02031C7A287B2881283A30F9
:1000F8005B02031C8028812865285A08553E840025
:100108008313800159084B3E84008001DA01A92835
:100118005A08553E84000008D3000A30F3005908F5
:100128004B3E840000080A128A1157250A128A11C8
:10013800831203135307D03EFF0059084B3E840037
:100148007F08831380000130DA075A08553E84007F
:100158000008031DB028B1288C280130D9070830C1
:100168005902031CB828B9284F280A128A114225B7
:100178000A128A1183120313DB0022305B06031D67
:10018800C628C728B9280A128A1142250A128A11D4
:100198006F3A031DD028D128B9280A128A1142259E
:1001A8000A128A115B3A031DDA28DB28D128831248
:1001B8000313D901DA010A128A1142250A128A1197
:1001C80083120313DB0020305B060319EC28ED28AB
:1001D800DF282C305B060319F228F328DF280429CE
:1001E8005A08553E84005B08831380000130DA0703
:1001F8000A128A1142250A128A1183120313DB009C
:1002080030305B02031C09290A2910293A305B02A5
:10021800031C0F291029F4285A08553E840083131B
:1002280080015908433E84008001DA0138295A08C0
:10023800553E84000008D3000A30F3005908433EB5
:10024800840000080A128A1157250A128A1183129B
:1002580003135307D03EFF005908433E84007F082C
:10026800831380000130DA075A08553E84000008DD
:10027800031D3F2940291B290130D907083059029D
:10028800031C47294829DE280A128A1142250A1226
:100298008A1183120313DB0022305B06031D5529E4
:1002A800562948290A128A1142250A128A11673AE0
:1002B800031D5F29602948290A128A1142250A125A
:1002C8008A113A3A031D69296A2960290A128A1192
:1002D80042250A128A11223A031D732974296A29B0
:1002E8000A128A1142250A128A1183120313DB00AB
:1002F80074305B06031D812982298429C001952950
:1003080073305B06031D89298A298D290130C000B5
:10031800952964305B06031D92299329952902309B
:10032800C0000A128A1142250A128A118312031385
:10033800DB0022305B06031DA229A32995290A1296
:100348008A1142250A128A11673A031DAC29AD2980
:1003580095290A128A1142250A128A113A3A031D6E
:10036800B629B729AD2983120313DA010A128A11B3
:1003780042250A128A1183120313DB0020305B0620
:100388000319C729C829BA29D9295A08553E84000A
:100398005B08831380000130DA070A128A114225AC
:1003A8000A128A1183120313DB0030305B02031C2C
:1003B800DE29DF29E5293A305B02031CE429E52917
:1003C800C9295A08553E840083138001C101C2011E
:1003D800DA01132A5A08553E84004208F4004108FD
:1003E800F3000A30F5000030F6000A128A117D2465
:1003F8000A128A1183130008730783120313D300A8
:100408000030031801307407D4005308D03EC100EF
:1004180054080318013EFF3EC2000130DA075A08AB
:10042800553E84000008031D1A2A1B2AEE290800DD
:100438000A128A1115250A128A110A128A11E92349
:100448000A128A1183120313E00160084B3E8400EC
:10045800831380016008433E840080010130E00777
:1004680008306002031C392A3A2A292A0130C000C0
:100478006430C1000030C2001330F4000A128A113F
:10048800DE240A128A1101300A128A112C250A1256
:100498008A11033083120313DF009730DE00DE0B6E
:1004A800532ADF0B532A7D300A128A11FA240A12C2
:1004B8008A11003A0319612A622A572A0A128A11F4
:1004C80020200A128A114B30F70000300A128A11D4
:1004D8001F240A128A114330F70001300A128A11C8
:1004E8001F240A128A1183120313DA01DB01003078
:1004F8000A128A11A2240A128A11023083120313E3
:10050800DA00DB01DB0A00300A128A11A2240A127F
:100518008A1183120313DA014D30DB0001300A120D
:100528008A11A2240A128A1183120313DA01DA0A41
:100538003A30DB0001300A128A11A2240A128A1109
:10054800831203134008031DAA2AAB2AB62A0230D5
:10055800DA005430DB0001300A128A11A2240A1290
:100568008A11D02A4003031DBA2ABB2AC62A0230A0
:10057800DA005030DB0001300A128A11A2240A1274
:100588008A11D02A0230DA004430DB0001300A1226
:100598008A11A2240A128A11043083120313DA0082
:1005A800E830F3000330F4004208F6004108F50093
:1005B8000A128A116B230A128A117308303E8312B9
:1005C8000313DB0001300A128A11A2240A128A11CD
:1005D800053083120313DA000A30D6000030D70042
:1005E8006430F3000030F4004208F6004108F500DA
:1005F8000A128A116B230A128A11740883120313D0
:10060800D9007308D8000A128A11AF230A128A1176
:10061800831203135608303EDB0001300A128A1198
:10062800A2240A128A11063083120313DA000A3050
:10063800D6000030D7000A30F3000030F40042083A
:10064800F6004108F5000A128A116B230A128A1172
:10065800740883120313D9007308D8000A128A1188
:10066800AF230A128A11831203135608303EDB00A7
:1006780001300A128A11A2240A128A110730831241
:100688000313DA000A30D6000030D7004208D90038
:100698004108D8000A128A11AF230A128A1183125C
:1006A80003135608303EDB0001300A128A11A224D7
:1006B8000A128A110130F4000A128A11DE240A1281
:1006C8008A117A08F900572A0A128A110E28831209
:1006D8000313D401D501730874040319742B752B03
:1006E800AA2B0130D300812B01300310F30DF40D38
:1006F800FF3E031D792B0130D307F41F842B852B74
:10070800782B01300310D40DD50DFF3E031D862B29
:1007180074087602031D922B73087502031C952B2F
:10072800962B9D2B7308F5027408031CF603F6023A
:10073800541401300310F40CF30CFF3E031D9E2BE0
:100748000130D302031DA92BAA2B852B5508F400D1
:100758005408F300080083120313560857040319BA
:10076800B62BB72BE42B0130F700C32B0130031055
:10077800D60DD70DFF3E031DBB2B0130F707D71F42
:10078800C62BC72BBA2B57085902031DCD2B560869
:100798005802031CD02BD12BD72B5608D802570848
:1007A800031CD903D90201300310D70CD60CFF3E25
:1007B800031DD82B0130F702031DE32BE42BC72BB5
:1007C8005908D7005808D600080083160313860175
:1007D80007108710071183120313071087100711DA
:1007E8001A30F800F830F700F70BF82BF80BF82B55
:1007F800000038300A128A112C250A128A110C308E
:100808000A128A112C250A128A1106300A128A1134
:100818002C250A128A1101300A128A112C250A1273
:100828008A110330F8009730F700F70B192CF80BF2
:10083800192C1E2C080083120313D3005308073900
:10084800F80002300310F80DFF3E031D262C03109C
:10085800780D4038D40054080A128A112C250A123F
:100868008A1183120313D50155087707F800780811
:100878008400831300080A128A116A250A128A1151
:10088800013083120313D50708305502031C4D2C81
:100898004E2C382C80300A128A112C250A128A1103
:1008A800080004308A000408840A820700347B3474
:1008B80022347334743461347434753473342234A8
:1008C8003A3422346F346B3422347D340D340A3494
:1008D8000034533469347334743465346D3461349A
:1008E80020346C346934733474346F340D340A34FE
:1008F8000034F701F801731C822C832C892C7508AD
:10090800F7070318F80A7608F80701300310F50D01
:10091800F60DFF3E031D8A2C01300310F40CF30C76
:10092800FF3E031D912C73087404031D9C2C9D2C01
:100938007F2C7808F4007708F3000800831203136B
:10094800DC005C08031DA92CAA2CAE2C5A08803E9A
:10095800DD00B12C5A08C03EDD005D080A128A117C
:100968002C250A128A11831203135B080A128A11B2
:100978006A250A128A110800831203138C1EC52CDB
:10098800C62CD52C981CC92CCA2CCC2C181218167D
:100998007A081F39203E84001A088313800001302A
:1009A800FA0772088A0071088400700E8300FE0E30
:1009B8007E0E0900ED2C740884000A128A11552451
:1009C8000A128A110A128A1189250A128A1101301B
:1009D800F407740884000A128A1155240A128A112D
:1009E800003A031DF82CF92CDF2C0800F3007908D5
:1009F800F4000D2D74081F39203E8400831300086D
:100A08007306031D082D092D0B2D0130142D0130FF
:100A1800F40774087A06031D122D132DFE2C0030DE
:100A28000800831603130713871707309F00193030
:100A38009900181518129816831203139817181688
:100A4800831603138C160B178B17FA01F90108008C
:100A5800F6008312031307108710760886000A121F
:100A68008A117C250A128A110330F5009730F400A8
:100A7800F40B3C2DF50B3C2D412D08000A128A1170
:100A880095250A128A11003A03194B2D4C2D422D37
:100A980079081F39203E840083130008F3000130D1
:100AA800F90773080800F500F401751C5C2D5D2D2D
:100AB8005F2D7308F4070310F30D0310F50C750888
:100AC800031D672D682D592D74080800F500831241
:100AD800031307148710750886000A128A117C25EB
:100AE8000A128A111030F400F40B782D0000080067
:100AF8008312031307150000831203130711103024
:100B0800F300F30B852D00000800F3008316031390
:100B1800981C8F2D902D8A2D73088312031399002A
:100B280008007A087906031D9A2D9C2D01309D2D09
:100B38000030080064008001840A040603190034A8
:040B480004069F2DD3
:02400E00313F40
:00000001FF
