:100000000A128A110E280134FE00030EF0000408C3
:10001000F1000A08F2000A128A15F4290A128A115C
:1000200011280A168A11C3270A128A11EA000A1631
:100030008A11C4270A128A11EB000A168A11C527F1
:100040000A128A11EC000A128A1103200A128A117C
:10005000FA008313A0308400E0300A168A11C62704
:100060000A128A11203084004C300A168A11C627E1
:100070000A128A11F801F90183010A128A11E92989
:1000800001300A128A154C200A128A110330831299
:100090000313D8009730D700D70B4C28D80B4C2827
:1000A00083120313CC0104300A128A15C1200A12EC
:1000B0008A11E23083120313D5009030D6000A1261
:1000C0008A1575210A128A1183120313CC01CC0AF6
:1000D00000300A128A15C1200A128A1183120313F2
:1000E0003003031D742875282E29FC30D50090306C
:1000F000D6000A128A1575210A128A11003083125D
:1001000003133702643003193602031C8828892838
:100110009D286430F3000030F4003708F6003608FC
:10012000F5000A128A1567230A128A117308303EF5
:100130000A128A1523200A128A110030831203132F
:1001400037020A3003193602031CA728A828CD2835
:100150000A30CF000030D0000A30F3000030F40045
:100160003708F6003608F5000A128A1567230A12C6
:100170008A11740883120313D2007308D1000A1283
:100180008A15F2220A128A11831203134F08303E95
:100190000A128A1523200A128A110A3083120313C5
:1001A000CF000030D0003708D2003608D1000A1244
:1001B0008A15F2220A128A11831203134F08303E65
:1001C0000A128A1523200A128A110D308312031392
:1001D000D5009130D6000A128A1575210A128A11AB
:1001E00000308312031339020A3003193802031C4A
:1001F000FA28FB280F290A30F3000030F4003908F0
:10020000F6003808F5000A128A1567230A128A11C7
:100210007308303E0A128A1523200A128A110A3006
:1002200083120313CF000030D0003908D200380801
:10023000D1000A128A15F2220A128A1183120313BC
:100240004F08303E0A128A1523200A128A11733091
:100250000A128A1523200A128A11A429F430D50023
:100260009030D6000A128A1575210A128A110030C0
:10027000831203133902643003193802031C412925
:10028000422956296430F3000030F4003908F600A2
:100290003808F5000A128A1567230A128A117308B2
:1002A000303E0A128A1523200A128A110030831266
:1002B000031339020A3003193802031C602961292B
:1002C00086290A30CF000030D0000A30F300003019
:1002D000F4003908F6003808F5000A128A15672379
:1002E0000A128A11740883120313D2007308D10012
:1002F0000A128A15F2220A128A11831203134F0876
:10030000303E0A128A1523200A128A110A308312FB
:100310000313CF000030D0003908D2003808D100D4
:100320000A128A15F2220A128A11831203134F0845
:10033000303E0A128A1523200A128A1173300A12DB
:100340008A1523200A128A1183120313DA0103305B
:1003500083120313D9008A30D8005530D700D70B49
:10036000AF29D80BAF29D90BAF2908300A128A154B
:100370004C200A128A11023083120313D9008630EE
:10038000D8009830D700D70BC329D80BC329D90B75
:10039000C32900000C300A128A154C200A128A1157
:1003A000013083120313DA0703305A02031CD929E0
:1003B000DA29A7290B3083120313D9002630D8007D
:1003C0005D30D700D70BE229D80BE229D90BE229FF
:1003D0000800831603138601870103308800831207
:1003E0000313860187018801831603138116811187
:1003F0000730810407309F0007309C000A128A15DD
:1004000077200A128A110A128A1551220A128A11B9
:100410000A168A11EE270A128A110A128A15222256
:100420000A128A110A128A15E1200A128A1183120D
:10043000031381010108C8005830F4009030F50022
:100440000A128A1528210A128A1183120313CC0179
:1004500000300A128A15C1200A128A11D83083127C
:100460000313D5009030D6000A128A1575210A129E
:100470008A1183120313CC01CC0A00300A128A15A8
:10048000C1200A128A11C43083120313D5009030A0
:10049000D6000A128A1575210A128A117D300A12B5
:1004A0008A15A6200A128A11003A0319582A592AD5
:1004B000AB2A831203134708031D5F2A602AAB2A65
:1004C000823083120313E900DD30E800E80B662A6E
:1004D000E90B662A0A128A118E230A128A110A125D
:1004E0008A15C8210A128A11003A0319782A792A32
:1004F000982A0A168A11D7270A128A118230831283
:100500000313E900DD30E800E80B842AE90B842AB4
:100510000A128A15C1260A128A110A128A117A272A
:100520000A128A110A128A15E1200A128A11A12AD6
:100530000030F4009030F5000A128A1528210A12C2
:100540008A11823083120313E900DD30E800E80BE2
:10055000A72AE90BA72A8312031347080319B12A14
:10056000B22A542B6B080319B62AB72A542B0A1245
:100570008A15CA250A128A110A128A15BA220A1283
:100580008A11013083120313EA0704306A02031C44
:10059000CA2ACB2AD12AEA010A128A154E210A1246
:1005A0008A110A128A1579240A128A110A128A15E6
:1005B000BA220A128A118312031349084606031944
:1005C000E22AE32AEC2A0A128A15AB230A128A11BC
:1005D000831203134908C6000A128A1561200A1201
:1005E0008A11003A0319F52AF62A2E2B83120313D7
:1005F000EB01BA010A128A1139260A128A110A126B
:100600008A11F0240A128A1183120313C701CC0144
:1006100000300A128A15C1200A128A11D8308312BA
:100620000313D5009030D6000A128A1575210A12DC
:100630008A1183120313CC01CC0A00300A128A15E6
:10064000C1200A128A11C43083120313D5009030DE
:10065000D6000A128A1575210A128A11831603130D
:1006600030030319342B352B3A2B2003031D392B70
:100670003A2B442B013083120313C9070130B6070C
:100680000318B70A0030B7070A128A1531260A1272
:100690008A11C33083120313E900CC30E800E80B61
:1006A0004F2BE90B4F2B00000D3083120313E90091
:1006B000FB30E800E80B5A2BE90B5A2B0130831270
:1006C0000313C50765304502031C672B682B4E2AB0
:1006D000C5010A168A11CE270A128A11003A031997
:1006E000722B732B4E2A7B300A128A15A6200A120F
:1006F0008A11003A031D7D2B7E2B4E2A8312031391
:100700004708031D842B852B4E2A0A128A15E120E7
:100710000A128A114E2A0A128A110E288312031312
:10072000DB01DC01B301B401B501A82B0D3083124C
:100730000313D900FB30D800D80B9C2BD90B9C2B72
:10074000013083120313DB070318DC0A0030DC07D7
:100750007B300A128A15A6200A128A11003A031D5C
:10076000B22BB32BBE2B0330831203135C02E83091
:1007700003195B02031CBD2BBE2B962B0330831287
:1007800003135C02E83003195B02031CC82BC92B5E
:10079000CA2BEF2C0A128A1537200A128A117B3ACB
:1007A000031DD32BD42BCA2B0A128A1537200A1209
:1007B0008A1183120313DF0022305F06031DE12B31
:1007C000E22BD42B0A128A1537200A128A11633AB7
:1007D000031DEB2BEC2BD42B0A128A1537200A129F
:1007E0008A115B3A031DF52BF62BEC2B83120313B6
:1007F000DE010A128A152C230A128A1183120313AE
:10080000DD005D080A128A15C1240A128A117308D4
:1008100083120313D8005E08203ED900003003186D
:10082000013EDA005908840083175A1C83135808C4
:1008300080000130DE0708305E02031C202C212CD2
:10084000F92B0130B3000A128A1537200A128A11D7
:1008500083120313DF0022305F06031D302C312C7E
:10086000232C0A128A1537200A128A116F3A031DA7
:100870003A2C3B2C232C0A128A1537200A128A1193
:100880005B3A031D442C452C3B2C83120313DE01E1
:100890000A128A152C230A128A1183120313DD000F
:1008A0005D080A128A15C1240A128A11730883127C
:1008B0000313D8005E08283ED90000300318013E1B
:1008C000DA005908840083175A1C831358088000E3
:1008D0000130DE0708305E02031C6F2C702C482CA0
:1008E0000130B4000A128A1537200A128A118312C5
:1008F0000313DF0067305F06031D7F2C802C722CF2
:100900000A128A1537200A128A1183120313DF0094
:100910006F305F06031D8D2C8E2C722C0A128A15E7
:1009200037200A128A113A3A031D972C982C8E2CE4
:100930000A128A1537200A128A11223A031DA12CA5
:10094000A22C982C0A128A1537200A128A118312B7
:100950000313DF0074305F06031DAF2CB12C013090
:10096000B22C0030B0000A128A1537200A128A1100
:1009700083120313DF0067305F06031DC02CC12CF8
:10098000B32C0A128A1537200A128A118312031314
:10099000DF006F305F06031DCE2CCF2CB32C0A1264
:1009A0008A1537200A128A113A3A031DD82CD92CFD
:1009B000CF2C0A128A152C230A128A1183120313D0
:1009C000DD005D080A128A15C1240A128A11740812
:1009D00083120313B2007308B1000130B5000800A0
:1009E0009330F4009030F5000A128A1528210A127B
:1009F0008A11831203133708E0003608DF00E10193
:100A00005F086004031D052D062D0B2D3030D4002A
:100A10000130E107612DDA01382D6108543E840070
:100A20000A30CF000030D0006008D2005F08D1004B
:100A30000A128A15F2220A128A11831203134F082E
:100A4000303E831380000130E1070A30F3000030AC
:100A5000F4006008F6005F08F5000A128A156723A3
:100A60000A128A11740883120313E0007308DF006E
:100A70005F086004031D3D2D3E2D0D2D6108FF3ED6
:100A8000DB005B2D5A08543E840083130008DE000F
:100A90005B08543E84000008D3005A08543E84008A
:100AA000530880005B08543E84005E0880000130DB
:100AB000DA070130DB025B085A02031C602D612D4E
:100AC000422D6108543E840083138001DE01762D9F
:100AD0005E08543E8400831300080A168A11E22738
:100AE0000A128A11013083120313DE0761085E02C5
:100AF000031C7B2D7C2D682DEB30F4009030F5002D
:100B00000A128A1528210A128A118312031339083E
:100B1000E0003808DF00E1015F086004031D912D4B
:100B2000922D972D3030D4000130E107ED2DDC01FE
:100B3000C42D6108543E84000A30CF000030D0003C
:100B40006008D2005F08D1000A128A15F2220A1248
:100B50008A11831203134F08303E83138000013043
:100B6000E1070A30F3000030F4006008F6005F0887
:100B7000F5000A128A1567230A128A117408831273
:100B80000313E0007308DF005F086004031DC92D34
:100B9000CA2D992D6108FF3EDD00E72D5C08543E0B
:100BA000840083130008DE005D08543E84000008C2
:100BB000D3005C08543E8400530880005D08543E16
:100BC00084005E0880000130DC070130DD025D0832
:100BD0005C02031CEC2DED2DCE2D6108543E8400EB
:100BE00083138001DE01022E5E08543E84008313CD
:100BF00000080A168A11E2270A128A1101308312AC
:100C00000313DE0761085E02031C072E082EF42D75
:100C1000AE30F4009030F5000A128A1528210A122D
:100C20008A11831203133A03031D172E182E222E46
:100C30001130F4009130F5000A128A1528210A12A9
:100C40008A112B2E0830F4009130F5000A128A1513
:100C500028210A128A112B30F4009030F5000A1274
:100C60008A1528210A128A11831203131010BB015E
:100C7000080001300A128A154C200A128A1103302A
:100C800083120313D8009730D700D70B452ED80B0B
:100C9000452E83120313CC0103300A128A15C1209A
:100CA0000A128A11CE3083120313D5009030D60079
:100CB0000A128A1575210A128A1183120313CC01B4
:100CC000CC0A00300A128A15C1200A128A11183083
:100CD00083120313D5009130D6000A128A157521AC
:100CE0000A128A1100308312031337020A300319E3
:100CF0003602031C7C2E7D2E912E0A30F30000302C
:100D0000F4003708F6003608F5000A128A15672342
:100D10000A128A117308303E0A128A1523200A1219
:100D20008A110A3083120313CF000030D000370835
:100D3000D2003608D1000A128A15F2220A128A114C
:100D4000831203134F08303E0A128A1523200A1219
:100D50008A110D3083120313D5009130D6000A1288
:100D60008A1575210A128A11003083120313390281
:100D70000A3003193802031CBE2EBF2ED32E0A30B0
:100D8000F3000030F4003908F6003808F5000A12C4
:100D90008A1567230A128A117308303E0A128A15CF
:100DA00023200A128A110A3083120313CF00003065
:100DB000D0003908D2003808D1000A128A15F22270
:100DC0000A128A11831203134F08303E0A128A1541
:100DD00023200A128A1173300A128A1523200A125C
:100DE0008A11831203133003031DF72EF82E382FB8
:100DF0001530D5009130D6000A128A1575210A12D5
:100E00008A1100308312031332020A3003193102AF
:100E1000031C0B2F0C2F202F0A30F3000030F4009E
:100E20003208F6003108F5000A128A1567230A1203
:100E30008A117308303E0A128A1523200A128A1179
:100E40000A3083120313CF000030D0003208D200E2
:100E50003108D1000A128A15F2220A128A1183126D
:100E600003134F08303E0A128A1523200A128A11F2
:100E700083120313DA01023083120313D900043002
:100E8000D800B930D700D70B432FD80B432FD90B3D
:100E9000432F4A2F08300A128A154C200A128A1151
:100EA000C33083120313D800CC30D700D70B562F92
:100EB000D80B562F00000C300A128A154C200A124B
:100EC0008A11013083120313DA0705305A02031C1A
:100ED0006A2F6B2F3B2F0B3083120313D900263060
:100EE000D8005D30D700D70B732FD80B732FD90BD9
:100EF000732F080001300A128A154C200A128A1139
:100F0000033083120313DB009730DA00DA0B862FED
:100F1000DB0B862F0A168A11D7270A128A11831231
:100F20000313DD01DE015D08DA0004300310DA0D81
:100F3000FF3E031D962FA0305A07DB005E085B07BB
:100F4000DC005C0884002030831380000130DE0761
:100F500010305E02031CAD2FAE2F932F0130DD0742
:100F600002305D02031CB52FB62F922F0130FA001C
:100F70000130EC000130EB00EA01C9017A08DA0027
:100F800003300310DA0DFF3E031DC12F03105A0D6D
:100F9000A03E840080010A128A15BA220A128A1120
:100FA0000A128A15AB230A128A110A128A15122014
:100FB0000A128A11013083120313C7003030F40083
:100FC0009030F5000A128A1528210A128A110800A9
:100FD0008312031307150730F4007D30F300F30B81
:100FE000EF2FF40BEF2F8312031307110330F400DC
:100FF0009730F300F30BFA2FF40BFA2FFF2F0800B2
:10100000FF1B0A2883137F1883170008840A03191B
:10101000FF0A08007F087F398A000408840A031940
:10102000FF0A820083120313B601B701B801B901A8
:10103000BA010130BB00C101C201C301C4018E016C
:101040008F011014080083120313D4005408860083
:10105000071487100A128A11E8270A128A15A53088
:1010600083120313D300D30B3328362808000A1643
:101070008A11CE270A128A15003A031940284128FE
:10108000372878081F39C03E840083130008F30016
:101090000130F80773080800F7007708831203137C
:1010A0008600071087100A128A11E8270A128A158B
:1010B0000730F6007D30F500F50B5C28F60B5C2858
:1010C00008007A08F30003300310F30DFF3E031D00
:1010D00064280310730DA03E840083130003031DD6
:1010E000722873287528013076280030080083168E
:1010F00003130713871707309F001930990018153D
:1011000018129816831203139817181683160313D0
:101110008C160B178B17F901F801080000308312A9
:10112000031344027D3003194302031C98289928B5
:10113000A528C301C4010130C1070318C20A003049
:10114000C2074208B9004108B8000800F300780857
:10115000F400B92874081F39C03E840083130008C6
:101160007306031DB428B528B7280130C028013004
:10117000F40774087906031DBE28BF28AA2800308A
:10118000080083120313D0004C080319C828C9288B
:10119000D1285008C03ECE00003003180130CF00E7
:1011A000D8285008803ECE00003003180130CF0010
:1011B0004E08CD004D080A128A154C200A128A15D5
:1011C00008000A168A11C0270A128A15F30173084B
:1011D0003C3E8400831380010130F3070530730225
:1011E000031CF328F428E72883120313981CF9281A
:1011F000FA28FE2818121816FE281A088C1A012937
:101200000229FD28080083120313CC000830CD000A
:10121000CE014C08F40007300310F40CFF3E031D10
:101220000C294E08F50075077404CE000310CC0D90
:1012300073084E02031C1D291E2920297308CE02A3
:101240000130CD02031D2529262909294E08080051
:101250003D297508FF00740884000A128A150020D1
:101260000A128A150A168A11E2270A128A15013013
:10127000F4070318F50A0030F50775088312031305
:10128000FF00740884000A128A1500200A128A15C9
:10129000003A031D4C294D292929080020308316C6
:1012A00003132C06031D55295629742920303C06AA
:1012B000031D5B295C29742902300A128A158522D4
:1012C0000A128A1583120313D7005708D600033079
:1012D0000310D60DFF3E031D68290310560DAC3ECA
:1012E000840001308313800008008C295608FF0019
:1012F000550884000A128A1500200A128A150A125B
:101300008A1523200A128A15013083120313D50788
:101310000318D60A0030D607831203135608FF00BD
:10132000550884000A128A1500200A128A15003A0C
:10133000031D9B299C297629080083120313CC01E5
:10134000CD01731CA429A529AD29750883120313A7
:10135000CC070318CD0A7608CD0701300310F50D30
:10136000F60DFF3E031DAE2901300310F40CF30C03
:10137000FF3E031DB52973087404031DC029C1294C
:10138000A129831203134D08F4004C08F300080050
:101390008312031333080319CE29CF29D92934081E
:1013A0000319D329D429D9293508031DD829D929C6
:1013B000DB290030F329310832040319E029E1293F
:1013C000D92927303202103003193102031CE929D0
:1013D000EA29EB29D92902303002031CF029F1292E
:1013E000F229D92901300800831203138C1EF92930
:1013F000FA29092A981CFD29FE29002A1812181614
:1014000079081F39C03E84001A0883138000013018
:10141000F9070C1C0C2A0D2A192A0C100130C307DD
:101420000318C40A0030C4070A128A158E200A1253
:101430008A1572088A0071088400700E8300FE0EFF
:101440007E0E0900F5017508203EF30000300318F8
:10145000013EF400730884008317741C8313800119
:101460007508283EF30000300318013EF4007308AD
:1014700084008317741C831380010130F507083042
:101480007502031C442A452A232A013083120313C0
:10149000B0000A30B1000030B200B301B401B501B0
:1014A00008008316031386010710871007114130C7
:1014B00083120313CD00ED30CC00CC0B5D2ACD0B95
:1014C0005D2A622A38300A128A154C200A128A15BF
:1014D0000C300A128A154C200A128A1501300A12A1
:1014E0008A154C200A128A1506300A128A154C20D9
:1014F0000A128A15033083120313CD009730CC00F3
:10150000CC0B802ACD0B802A0800F700831203132E
:101510000108C807FB30CE000030CF004808D400D7
:10152000D5015408F3005508F4000D30F5000030E3
:10153000F6000A128A159D210A128A157308113EB7
:1015400083120313D00074080318013E003ED1003B
:101550000A128A150C250A128A15831203134E08E3
:10156000C8007708F30048080A128A1503210A12F6
:101570008A15080083120313D9015908CC000030E2
:101580000A128A15C1200A128A1583120313D80180
:101590005908D50004300310D50DFF3E031DCB2A9A
:1015A000A0305507D60058085607D70057088400C2
:1015B000831300080A128A1523200A128A150130A3
:1015C00083120313D8070D305802031CE82AE92AB6
:1015D000C82A0130D90702305902031CF02AF12A27
:1015E000BD2A0800831203134F0850040319F92A77
:1015F000FA2A272B0130F700062B01300310CF0DFC
:10160000D00DFF3E031DFE2A0130F707D01F092B26
:101610000A2BFD2A50085202031D102B4F085102BD
:10162000031C132B142B1A2B4F08D1025008031C38
:10163000D203D20201300310D00CCF0CFF3E031DA9
:101640001B2B0130F702031D262B272B0A2B5208D8
:10165000D0005108CF000800F4010A128A15372083
:101660000A128A15F500203075060319382B392B1C
:101670002D2B2C30750603193E2B3F2B2D2B4E2B7B
:1016800074083C3E84007508831380000130F40721
:101690000A128A1537200A128A15F50030307502B1
:1016A000031C532B542B602B3A3075020318592B13
:1016B0005A2B602B04307402031C5F2B602B402BD1
:1016C00074083C3E84008313800174080800831270
:1016D0000313CD01CE01730874040319702B712B11
:1016E000A62B0130CC007D2B01300310F30DF40D3F
:1016F000FF3E031D752B0130CC07F41F802B812B7F
:10170000742B01300310CD0DCE0DFF3E031D822B37
:1017100074087602031D8E2B73087502031C912B2F
:10172000922B992B7308F5027408031CF603F6023A
:101730004D1401300310F40CF30CFF3E031D9A2BE3
:101740000130CC02031DA52BA62B812B4E08F400E3
:101750004D08F30008000A30F3000030F400831253
:1017600003134908D500D6015508F5005608F600C0
:101770000A128A1565250A128A157308303E8312EB
:101780000313D7000A30CE000030CF004908D5003F
:10179000D6015508D0005608D1000A128A150C252A
:1017A0000A128A15831203134E08303ED800CC016A
:1017B0000E300A128A15C1200A128A1583120313E9
:1017C00057080A128A1523200A128A158312031356
:1017D00058080A128A1523200A128A150800483070
:1017E0000A128A154C200A128A152030831203131C
:1017F000D500D50BF92B000083120313D70157082E
:10180000283ED50000300318013ED600550884005C
:101810008317561C831300080A128A1523200A1204
:101820008A150F3083120313D500D50B152C182CF5
:10183000013083120313D70708305702031C212CF1
:10184000222CFF2B80300A128A154C200A128A158E
:10185000203083120313D500D50B2C2C000001304F
:1018600083120313B400080040300A128A154C207A
:101870000A128A15203083120313D500D50B3E2C93
:10188000000083120313D7015708203ED500003013
:101890000318013ED600550884008317561C831395
:1018A00000080A128A1523200A128A150F308312A3
:1018B0000313D500D50B5A2C5D2C01308312031372
:1018C000D70708305702031C662C672C442C803045
:1018D0000A128A154C200A128A152030831203132B
:1018E000D500D50B712C0000013083120313B30017
:1018F0000800F401F301740883120313CC000430D0
:101900000310CC0DFF3E031D802CA1304C07CD00F1
:1019100073084D07CE004E08840083130008CF00E3
:101920007408D00004300310D00DFF3E031D932C2B
:10193000A0305007D10073085107D200520884002C
:101940004F0880000130F3070C307302031CA92CF0
:10195000AA2C7B2C7408CC0003300310CC0DFF3E66
:10196000031DAD2C03104C0DAC3E840020308000D4
:101970000130F40702307402031CBF2CC02C7A2CF7
:10198000080083120313D400D501D601D701F82C27
:101990005608CD005508CC000310CC0DCD0D5608CF
:1019A000CF005508CE000310CE0DCF0D0310CE0D85
:1019B000CF0D0310CE0DCF0D57083C3E840000081C
:1019C0004E07D0004F0803184F0AD1004C085007AB
:1019D000D2004D0803184D0A5107D3005208D03EDB
:1019E000D50053080318013EFF3ED6000130D7074B
:1019F000540857020318FD2CFE2C072D57083C3EB7
:101A0000840083130008031D062D072DC82C5608DB
:101A1000F4005508F300080083120313D301D11F0B
:101A2000122D132D1A2DD009D109D00A0319D10A6C
:101A30000130D300CF1F1D2D1E2D232DCE09CF0920
:101A4000CE0A0319CF0A4E084F040319282D292D59
:101A5000562D0130D200352D01300310CE0DCF0DA3
:101A6000FF3E031D2D2D0130D207CF1F382D392DFC
:101A70002C2D4F085102031D3F2D4E085002031C10
:101A8000422D432D492D4E08D0024F08031CD1038F
:101A9000D10201300310CF0CCE0CFF3E031D4A2DA6
:101AA0000130D202031D552D562D392D530803192F
:101AB0005A2D5B2D602DD009D109D00A0319D10A06
:101AC0005108CF005008CE00080083120313CD0147
:101AD000F41F6B2D6C2D732DF309F409F30A031910
:101AE000F40A0130CD00F61F762D772D7E2DF509F5
:101AF000F609F50A0319F60A0130CD06CE01CF0129
:101B0000730874040319852D862DBB2D0130CC007C
:101B1000922D01300310F30DF40DFF3E031D8A2DAD
:101B20000130CC07F41F952D962D892D013003101F
:101B3000CE0DCF0DFF3E031D972D74087602031DB9
:101B4000A32D73087502031CA62DA72DAE2D7308B7
:101B5000F5027408031CF603F6024E14013003105C
:101B6000F40CF30CFF3E031DAF2D0130CC02031D1E
:101B7000BA2DBB2D962D4D080319BF2DC02DC52D97
:101B8000CE09CF09CE0A0319CF0A4F08F4004E0838
:101B9000F300080083120313081CCF2DD02DFE2D57
:101BA0007A080319D42DD52DFE2D6C08F3000330CF
:101BB0000310F30DFF3E031DD82D0310730DA03E3F
:101BC00084002030831380007A08EC00FA017A0840
:101BD000F30003300310F30DFF3E031DEA2D031045
:101BE000730DA03E840080011A30F400F830F30039
:101BF000F30BF82DF40BF82D0000302E881C012E6D
:101C0000022E302E7A030319062E072E302E6C0872
:101C1000F30003300310F30DFF3E031D0A2E0310E3
:101C2000730DA03E84002030831380007A08EC00FE
:101C30000130FA007A08F30003300310F30DFF3E81
:101C4000031D1D2E0310730DA03E840080011A3069
:101C5000F400F830F300F30B2B2EF40B2B2E0000C6
:101C60000800831203133003031D372E382E7A2EFB
:101C700032083702031D3E2E31083602031C412E66
:101C8000422EC02EEB010130BA000A128A11402008
:101C90000A128A150A128A11F0240A128A1583126E
:101CA0000313C701CC0100300A128A15C1200A12A1
:101CB0008A15D83083120313D5009030D6000A124B
:101CC0008A1575210A128A1583120313CC01CC0AD6
:101CD00000300A128A15C1200A128A15C4308312F4
:101CE0000313D5009030D6000A128A1575210A1206
:101CF0008A15C02E3008031D7E2E7F2EC02E32087E
:101D00003902031D852E31083802031C882E892EC6
:101D1000C02EEB010130BA000A128A1140200A12CB
:101D20008A150A128A11F0240A128A1583120313E3
:101D3000C701CC0100300A128A15C1200A128A1587
:101D4000D83083120313D5009030D6000A128A15BA
:101D500075210A128A1583120313CC01CC0A0030B4
:101D60000A128A15C1200A128A15C430831203137D
:101D7000D5009030D6000A128A1575210A128A15EC
:101D800008004530F4009030F5000A128A15282129
:101D90000A128A156830F4009030F5000A128A158C
:101DA00028210A128A15831203133308031DD92E22
:101DB000DA2EDF2E0230D4009130D500E32E1B3016
:101DC000D4009130D5005408F4005508F5000A12EB
:101DD0008A1528210A128A158330F4009030F50004
:101DE0000A128A1528210A128A157730F4009030D9
:101DF000F5000A128A1528210A128A158312031384
:101E00003408031D042F052F0A2F0230D60091300D
:101E1000D7000E2F1B30D6009130D7005608F400A3
:101E20005708F5000A128A1528210A128A158330EC
:101E3000F4009030F5000A128A1528210A128A153A
:101E4000BA30F4009030F5000A128A1528210A12DF
:101E50008A15831203133508031D2F2F302F352FBA
:101E60000230D8009130D900392F1B30D800913082
:101E7000D9005808F4005908F5000A128A152821DB
:101E80000A128A158330F4009030F5000A128A1580
:101E900028210A128A15A130F4009030F5000A12A8
:101EA0008A1528210A128A15831203133008031990
:101EB0005A2F5B2F602F3130DA000030DB00642FA7
:101EC0003030DA000030DB005A080A168A11E227A7
:101ED0000A128A158530F4009030F5000A128A152E
:101EE00028210A128A1583120313E7013208E6003B
:101EF0003108E50065086604031D7F2F802F852FBC
:101F00003030DC000130E707DB2FE201B22F670839
:101F10005C3E84000A30CF000030D0006608D2005A
:101F20006508D1000A128A15F2220A128A15831254
:101F300003134F08303E831380000130E7070A3057
:101F4000F3000030F4006608F6006508F5000A1298
:101F50008A1567230A128A15740883120313E60090
:101F60007308E50065086604031DB72FB82F872F97
:101F70006708FF3EE300D52F62085C3E84008313B0
:101F80000008E40063085C3E84000008D300620897
:101F90005C3E84005308800063085C3E8400640853
:101FA00080000130E2070130E30263086202031C93
:101FB000DA2FDB2FBC2F67085C3E8400831380017F
:101FC000E401F02F64085C3E8400831300080A16C5
:101FD0008A11E2270A128A15013083120313E407DB
:101FE00067086402031CF52FF62FE22F2C30F40053
:101FF0009030F5000A128A1528210A128A15080065
:102000007B342234733474346134743475347334EF
:1020100022343A3422346534723472346F34723478
:1020200022342C3422346D34653473347334613487
:102030006734653422343A34223469346E34763469
:1020400061346C3469346434203463346F346E34F6
:1020500066346934673422347D340D340A340034F4
:102060004A347534653467346F34203469346E34DF
:1020700069346334693461346C3469347A3461347A
:1020800064346F340D340A3400347B3422347334B6
:102090007434613474347534733422343A342234F1
:1020A0006C346F3461346434653464342234003405
:1020B000533469347334743465346D34613420348A
:1020C0006C346934733474346F340D340A3400342E
:1020D0002C342234633468346134723461346334B0
:1020E00074346534723422343A34223400342C345B
:1020F00022346F34623473347434613463346C3436
:10210000653422343A34223400342C342234673497
:102110006F3461346C34563461346C3475346534E6
:1021200022343A3400347B3422346F3462347334D2
:102130007434613463346C346534733422343A3427
:1021400000342C34223467346F3461346C345434AA
:1021500079347034653422343A3400342C342234E7
:1021600072346534733475346C34743422343A34D4
:10217000223400342C34223467346F3461346C34AC
:1021800022343A342234003463346F346E3466348B
:10219000693467342E342E342E34003447344134BD
:1021A0004D34453420344F345634453452340034A1
:1021B0004534733470346534723461346E3464344D
:1021C0006F34003459344F34553420345734493443
:1021D0004E34213400342C342234743469346D3458
:1021E000653422343A3400345434693465346D34FF
:1021F00070346F343A3400344F346234733474348E
:102200003A3400346534723472346F3472340034CA
:102210006C346F34733465340034203454343A34BD
:102220000034773469346E34003420342F34003471
:0C2230004F343A3400346F346B34003407
:102F80007908F8000800013401340134640080013C
:102F9000840A0406031900340406C72F790878064A
:102FA000031DD32FD52F0130D62F003008000A1271
:102FB0008A1534240A168A110A128A15EF230A1672
:102FC0008A110800F30083160313981CE82FE92FD9
:102FD000E32F73088312031399000800831203136D
:102FE00010109010101690168E018F018316031387
:102FF0000C1483120313C301C401C101C2010800F0
:02400E00313F40
:00000001FF
