:060000000A128A110E280D
:10000800FE00030EF0000408F1000A08F2000A12CC
:100018008A11952B0A128A111128F801F901FA019F
:100028008313203084005B300A128A158A270A124B
:100038008A1183010A128A11CB2C83120313E70158
:10004800E801D301D401D5013A280D30F700FB307F
:10005800F600F60B2D28F70B2D28322801308312D5
:100068000313E7070318E80A0030E8077B300A1291
:100078008A15E5270A128A11003A031D44284528E3
:1000880050280330831203136802E830031967020B
:10009800031C4F28502829280330831203136802B1
:1000A800E83003196702031C5A285B285C28812959
:1000B8000A128A15B9270A128A117B3A031D652884
:1000C80066285C280A128A15B9270A128A1183122F
:1000D8000313EB0022306B06031D7328742866286F
:1000E8000A128A15B9270A128A11633A031D7D2854
:1000F8007E2866280A128A15B9270A128A115B3ADD
:10010800031D872888287E2883120313EA010A1210
:100118008A11A2260A128A1183120313E9006908B8
:100128000A128A1187250A128A117308FF0083129E
:1001380003136A08403EF60000300318013EF7003A
:10014800760884008317771C83137F0880000130AA
:10015800EA0708306A02031CB228B3288B2801304A
:10016800D3000A128A15B9270A128A1183120313B7
:10017800EB0022306B06031DC228C328B5280A12DB
:100188008A15B9270A128A116F3A031DCC28CD287F
:10019800B5280A128A15B9270A128A115B3A031D73
:1001A800D628D728CD2883120313EA010A128A1108
:1001B800A2260A128A1183120313E90069080A1297
:1001C8008A1187250A128A117308FF008312031304
:1001D8006A08483EF60000300318013EF70076082A
:1001E80084008317771C83137F0880000130EA0797
:1001F80008306A02031C01290229DA280130D400D8
:100208000A128A15B9270A128A1183120313EB00FE
:1002180067306B06031D1129122904290A128A1551
:10022800B9270A128A1183120313EB006F306B0689
:10023800031D1F29202904290A128A15B9270A1221
:100248008A113A3A031D29292A2920290A128A15CE
:10025800B9270A128A11223A031D332934292A2977
:100268000A128A15B9270A128A1183120313EB009E
:1002780074306B06031D412943290130442900309D
:10028800D0000A128A15B9270A128A118312031399
:10029800EB0067306B06031D5229532945290A12C2
:1002A8008A15B9270A128A1183120313EB006F30DB
:1002B8006B06031D6029612945290A128A15B92789
:1002C8000A128A113A3A031D6A296B2961290A120E
:1002D8008A11A2260A128A1183120313E9006908F7
:1002E8000A128A1187250A128A11740883120313C5
:1002F800D2007308D1000130D50008003130F40075
:100308000A128A11CF230A128A115430F4000A12F1
:100318008A11CF230A128A1183120313530803196F
:10032800962997299F29C330F4000A128A11CF23EE
:100338000A128A11A629BD30F4000A128A11CF23A5
:100348000A128A116F30F4000A128A11CF230A1296
:100358008A116330F4000A128A11CF230A128A1113
:100368008312031354080319BA29BB29C329C330BC
:10037800F4000A128A11CF230A128A11CA29BD3041
:10038800F4000A128A11CF230A128A116F30F4007E
:100398000A128A11CF230A128A118C30F4000A1229
:1003A8008A11CF230A128A118312031355080319DD
:1003B800DE29DF29E729C330F4000A128A11CF2386
:1003C8000A128A11EE29BD30F4000A128A11CF23CD
:1003D8000A128A116F30F4000A128A11CF230A1206
:1003E8008A117F30F4000A128A11CF230A128A1167
:1003F8008312031350080319022A032A082A3130EA
:10040800E2000030E3000C2A3030E2000030E30064
:1004180062080A128A159B270A128A117130F400A1
:100428000A128A11CF230A128A1183120313EF01C9
:100438005208EE005108ED006D086E04031D252AD0
:10044800262A2B2A3030E4000130EF07812AEA01FE
:10045800582A6F08643E84000A30DE000030DF004E
:100468006E08E1006D08E0000A128A11DD260A1202
:100478008A11831203135E08303E83138000013013
:10048800EF070A30F3000030F4006E08F6006D083C
:10049800F5000A128A115E260A128A11740883125C
:1004A8000313EE007308ED006D086E04031D5D2A4A
:1004B8005E2A2D2A6F08FF3EEB007B2A6A08643EFD
:1004C800840083130008EC006B08643E8400000875
:1004D800FF006A08643E84007F0880006B08643E61
:1004E80084006C0880000130EA070130EB026B08D9
:1004F8006A02031C802A812A622A6F08643E8400EB
:1005080083138001EC01962A6C08643E84008313EF
:1005180000080A128A159B270A128A1101308312D1
:100528000313EC076F086C02031C9B2A9C2A882A79
:100538002D30F4000A128A11CF230A128A110800FA
:1005480001300A128A11EB230A128A11033083122E
:100558000313E3009730E200E20BB02AE30BB02A62
:100568000A128A11D2250A128A110A128A11182629
:100578000A128A1183120313DB0100300A128A114E
:10058800C8270A128A11B730F7000A128A11B32352
:100598000A128A1100300A128A15A7270A128A112C
:1005A800AA30F7000A128A11B3230A128A110130FD
:1005B8000A128A15A7270A128A1183120313DB016C
:1005C800DB0A00300A128A11C8270A128A11B130D0
:1005D800F7000A128A11B3230A128A11831203132D
:1005E80050080319F82AF92AFE2A4F30E40000308F
:1005F800E500022B5430E4000030E50064080A12DC
:100608008A15A7270A128A113D300A128A15A727C8
:100618000A128A11E830F3000330F400831203133E
:100628005208F6005108F5000A128A115E260A12CD
:100638008A11730883120313E6006608303E0A1213
:100648008A15A7270A128A110A3083120313DE00BB
:100658000030DF006430F3000030F4005208F60088
:100668005108F5000A128A115E260A128A117408C6
:1006780083120313E1007308E0000A128A11DD26D1
:100688000A128A11831203135E08E6006608303ED8
:100698000A128A15A7270A128A110A30831203132D
:1006A800DE000030DF000A30F3000030F4005208AA
:1006B800F6005108F5000A128A115E260A128A11FC
:1006C800740883120313E1007308E0000A128A1108
:1006D800DD260A128A11831203135E08E6006608F3
:1006E800303E0A128A15A7270A128A110A30831285
:1006F8000313DE000030DF005208E1005108E0007B
:100708000A128A11DD260A128A11831203135E085F
:10071800E6006608303E0A128A15A7270A128A11CF
:100728000800831203138C1E9A2B9B2BAA2B981C50
:100738009E2B9F2BA12B181218167A081F39203EC2
:1007480084001A08831380000130FA0772088A00AF
:1007580071088400700E8300FE0E7E0E0900C22B05
:10076800770884000A128A1100240A128A110A12D0
:100778008A15A7270A128A110130F707770884001B
:100788000A128A1100240A128A11003A031DCD2B7D
:10079800CE2BB42B0800DE2B740884000A128A11B1
:1007A80000240A128A110A128A159B270A128A1132
:1007B8000130F407740884000A128A1100240A120E
:1007C8008A11003A031DE92BEA2BD02B0800F70009
:1007D8007708831203138600071087100A128A11FC
:1007E800E8270A128A110730F6007D30F500F50B6C
:1007F800FB2BF60BFB2B080004308A000408840A44
:10080800820700347B342234733474346134743492
:100818007534733422343A34223465347234723481
:100828006F34723422342C3422346D34653473348A
:10083800733461346734653422343A342234693489
:100848006E34763461346C346934643420346334FF
:100858006F346E3466346934673422347D340D3431
:100868000A3400347B34223473347434613474347D
:100878007534733422343A3422346C346F3461342E
:100888006434653464342234003453346934733442
:10089800743465346D34613420346C3469347334A1
:1008A80074346F340D340A3400342C3422346334F5
:1008B8006834613472346134633474346534723446
:1008C80022343A34223400342C3422346F346234E3
:1008D80073347434613463346C34653422343A3498
:1008E800223400342C34223467346F3461346C344D
:1008F800563461346C347534653422343A340034F7
:100908002C34223467346F3461346C345434793481
:100918007034653422343A3400342C342234673449
:100928006F3461346C3422343A3422340034633402
:100938006F346E346634693467342E342E342E3472
:1009480000344534733470346534723461346E3431
:1009580064346F34003420344F3462347334743464
:100968003A3400344D346534743461343A340034E4
:1009780043346834613472343A3400346534723440
:1009880072346F34723400346F346B3400340A12AA
:100998008A15CE270A128A110A128A1117270A12F3
:1009A8008A110A128A114B270A128A110A128A110D
:1009B800A6270A128A114430F4000A128A11CF239A
:1009C8000A128A1183120313DB0100300A128A11FA
:1009D800C8270A128A11A030F7000A128A11B32315
:1009E8000A128A1183120313DB01DB0A00300A1290
:1009F8008A11C8270A128A119630F7000A128A113A
:100A0800B3230A128A117D300A128A15E5270A12C1
:100A18008A11003A0319112D122D562D8230831692
:100A28000313A100DD30A000A00B182DA10B182D79
:100A38000A128A1121200A128A110A128A117A27A7
:100A48000A128A11003A03192A2D2B2D402D0A1259
:100A58008A11A4220A128A11823083160313A10074
:100A6800DD30A000A00B362DA10B362D0A128A11FD
:100A780082210A128A11472D0130F4000A128A11C4
:100A8800CF230A128A110A128A11A6270A128A117A
:100A9800823083160313A100DD30A000A00B522D75
:100AA800A10B522D0D3083160313A100FB30A000BB
:100AB800A00B5C2DA10B5C2D0130F8076530780286
:100AC800031C672D682D072DF8010A128A15922735
:100AD8000A128A11003A0319722D732D072D7B30E3
:100AE8000A128A15E5270A128A11003A031D7D2D7C
:100AF8007E2D072D0A128A11A6270A128A11072DA0
:100B08000A128A110E2883120313E300E401E50197
:100B1800E601BE2D6508DC006408DB000310DB0D70
:100B2800DC0D6508DE006408DD000310DD0DDE0D58
:100B38000310DD0DDE0D0310DD0DDE0D6608563EDB
:100B4800840000085D07DF005E0803185E0AE00005
:100B58005B085F07E1005C0803185C0A6007E200B5
:100B68006108D03EE40062080318013EFF3EE5003C
:100B78000130E607630866020318C32DC42DCD2D86
:100B88006608563E840083130008031DCC2DCD2D26
:100B98008E2D6508F4006408F300080040300A123E
:100BA8008A11EB230A128A11203083120313DB0007
:100BB800DB0BDC2D000083120313DD015D08403ED2
:100BC800DB0000300318013EDC005B08840083175B
:100BD8005C1C831300080A128A15A7270A128A11B7
:100BE8000F3083120313DB00DB0BF82DFB2D0130D4
:100BF80083120313DD0708305D02031C042E052E43
:100C0800E22D80300A128A11EB230A128A11203051
:100C180083120313DB00DB0B0F2E0000013083125D
:100C28000313D3000130080048300A128A11EB235D
:100C38000A128A11203083120313DB00DB0B222EE9
:100C4800000083120313DD015D08483EDB0000301D
:100C58000318013EDC005B08840083175C1C8313C7
:100C680000080A128A15A7270A128A110F30831260
:100C78000313DB00DB0B3E2E412E013083120313DE
:100C8800DD0708305D02031C4A2E4B2E282E8030CB
:100C98000A128A11EB230A128A11203083120313D5
:100CA800DB00DB0B552E0000013083120313D40048
:100CB8000130080083120313DC01DD01730874049A
:100CC8000319672E682E9D2E0130DB00742E01302B
:100CD8000310F30DF40DFF3E031D6C2E0130DB07EE
:100CE800F41F772E782E6B2E01300310DC0DDD0DEE
:100CF800FF3E031D792E74087602031D852E7308A6
:100D08007502031C882E892E902E7308F50274082C
:100D1800031CF603F6025C1401300310F40CF30C08
:100D2800FF3E031D912E0130DB02031D9C2E9D2EDC
:100D3800782E5D08F4005C08F3000800F4010A123C
:100D48008A15B9270A128A11F50020307506031989
:100D5800AE2EAF2EA32E2C3075060319B42EB52E49
:100D6800A32EC42E7408563E840075088313800091
:100D78000130F4070A128A15B9270A128A11F500F8
:100D880030307502031CC92ECA2ED62E3A30750291
:100D98000318CF2ED02ED62E04307402031CD52E65
:100DA800D62EB62E7408563E84008313800174082C
:100DB8000800831203135E085F040319E42EE52E6E
:100DC800122F0130F700F12E01300310DE0DDF0D78
:100DD800FF3E031DE92E0130F707DF1FF42EF52E25
:100DE800E82E5F086102031DFB2E5E086002031CEB
:100DF800FE2EFF2E052F5E08E0025F08031CE103AC
:100E0800E10201300310DF0CDE0CFF3E031D062F4C
:100E18000130F702031D112F122FF52E6108DF0094
:100E28006008DE0008008316031386010710871088
:100E38000711413083120313DC00ED30DB00DB0BBC
:100E4800232FDC0B232F282F38300A128A11EB238B
:100E58000A128A110C300A128A11EB230A128A111B
:100E680001300A128A11EB230A128A1106300A127B
:100E78008A11EB230A128A11033083120313DC0050
:100E88009730DB00DB0B462FDC0B462F0800F50103
:100E98007508403EF30000300318013EF400730863
:100EA80084008317741C831380017508483EF3007F
:100EB80000300318013EF400730884008317741C83
:100EC800831380010130F50708307502031C6D2F6C
:100ED8006E2F4C2F013083120313D0000A30D1003B
:100EE8000030D200D301D401D501080083120313C6
:100EF80053080319802F812F8B2F54080319852F2E
:100F0800862F8B2F5508031D8A2F8B2F8D2F00308E
:100F1800A52F510852040319922F932F8B2F273096
:100F28005202103003195102031C9B2F9C2F9D2F36
:100F38008B2F02305002031CA22FA32FA42F8B2F1C
:100F4800013008000A128A1587270A128A11F3014C
:100F58007308563E8400831380010130F30705307F
:100F68007302031CB82FB92FAC2F83120313981CDC
:100F7800BE2FBF2FC32F18121816C32F1A088C1A8A
:100F8800C62FC72FC22F080083120313DF005B0888
:100F98000319CF2FD02FD82F5F08C03EDD000030B7
:100FA80003180130DE00DF2F5F08803EDD000030CF
:100FB80003180130DE005D08DC005C080A128A11A3
:100FC800EB230A128A11080083120313071507304E
:100FD800F4007D30F300F30BEF2FF40BEF2F8312A7
:100FE800031307110330F4009730F300F30BFA2FC3
:080FF800F40BFA2FFF2F080093
:101F0E007A08F900080064008001840A04060319A7
:101F1E00003404068B2F7A087906031D972F992F0C
:101F2E0001309A2F00300800F30083160313981C1B
:101F3E00A12FA22F9C2F7308831203139900080060
:101F4E00F6007608831203138600071487100A1210
:101F5E008A11E8270A128A15A630F500F50BB52F5F
:101F6E00000008000A128A1592270A128A15003AF2
:101F7E000319C22FC32FB92F79081F39203E8400B1
:101F8E0083130008F3000130F90773080800831665
:101F9E0003130713871707309F0019309900181580
:101FAE001812981683120313981718168316031314
:101FBE008C160B178B17FA01F9010800F30079083C
:101FCE00F400F82F74081F39203E84008313000894
:101FDE007306031DF32FF42FF62F0130FF2F013060
:101FEE00F40774087A06031DFD2FFE2FE92F00302B
:021FFE000800D9
:02400E00313F40
:00000001FF
