:060000000A128A110E280D
:10000800FE00030EF7000408F8000A08F9000A12B7
:100018008A15192C0A128A1111280A128A11FA262D
:100028000A128A11E8000A128A11FB260A128A119A
:10003800E9000A128A11FC260A128A11EA008313BF
:10004800A0308400BA300A128A15FF210A128A11D8
:100058002030840050300A128A15FF210A128A11B2
:10006800F001F101F201F301F40183010A128A118E
:10007800FE2A313083120313D1000A128A152E2367
:100088000A128A11831203134508E2004408E100AA
:10009800E30161086204031D522853288328303085
:1000A800DD000130E307CF2863085D3E84000A3095
:1000B800D0000030D1006208D3006108D2000A12D3
:1000C8008A1585240A128A11831203135008303EB8
:1000D800831380000130E3070A30D0000030D100DC
:1000E8006208D3006108D2000A128A11BA270A12DC
:1000F8008A11831203135108E2005008E1006108D5
:100108006204031D882889285828E401B22883122C
:10011800031364085D3E840083130008DA005D3031
:10012800D8006408D80263085807D9005908FF3E68
:1001380084000008FF0064085D3E84007F0880009A
:100148005D30D8006408D80263085807D9005908F8
:10015800FF3E84005A0880000130E4070230D000D6
:100168000030D1006308D800D9015808D2005908D6
:10017800D3000A128A1516270A128A11831203134A
:100188005108803A803C031DCB2850086402031CA8
:10019800CE28CF288B2883120313E401E1286408B2
:1001A8005D3E8400831300080A128A1539220A1258
:1001B8008A11013083120313E40763086402031CE5
:1001C800E628E728D3287D30D1000A128A152E2385
:1001D8000A128A11831203134708E2004608E10055
:1001E800E30161086204031DFA28FB282B2930303B
:1001F800DD000130E307772963085D3E84000A309B
:10020800D0000030D1006208D3006108D2000A1281
:100218008A1585240A128A11831203135008303E66
:10022800831380000130E3070A30D0000030D1008A
:100238006208D3006108D2000A128A11BA270A128A
:100248008A11831203135108E2005008E100610883
:100258006204031D302931290029E4015A29831237
:10026800031364085D3E840083130008DB005D30DF
:10027800D8006408D80263085807D9005908FF3E17
:1002880084000008FF0064085D3E84007F08800049
:100298005D30D8006408D80263085807D9005908A7
:1002A800FF3E84005B0880000130E4070230D00084
:1002B8000030D1006308D800D9015808D200590885
:1002C800D3000A128A1516270A128A1183120313F9
:1002D8005108803A803C031D732950086402031CAE
:1002E80076297729332983120313E40189296408BD
:1002F8005D3E8400831300080A128A1539220A1207
:100308008A11013083120313E40763086402031C93
:100318008E298F297B293F30D1000A128A152E2376
:100328000A128A118312031348189B299C299F29B2
:100338009F30DC00A129A830DC005C08D1000A123B
:100348008A152E230A128A119A3083120313D100B8
:100358000A128A152E230A128A1183120313101007
:10036800FD30C805080001300A128A1568220A12F1
:100378008A11033083120313DB009730DA00DA0B9B
:10038800C329DB0BC32983120313D30104300A12D8
:100398008A1510230A128A11743083120313D900A4
:1003A8000A128A154E230A128A1183120313D301E3
:1003B800D30A00300A128A1510230A128A118312EE
:1003C80003133003031DE929EA29732A8E30D90063
:1003D8000A128A154E230A128A1100308312031357
:1003E80045020A3003194402031CFB29FC29122A7E
:1003F8000A30D0000030D1004508D3004408D200AC
:100408000A128A11BA270A128A1183120313500892
:10041800303E0A128A1510220A128A110A308312F3
:100428000313D0000030D1004508D3004408D2009F
:100438000A128A1585240A128A1183120313500896
:10044800303E0A128A1510220A128A11A430831229
:100458000313D9000A128A154E230A128A11003092
:100468008312031347020A3003194602031C3D2A6C
:100478003E2A542A0A30D0000030D1004708D30061
:100488004608D2000A128A11BA270A128A11831260
:1004980003135008303E0A128A1510220A128A11D4
:1004A8000A3083120313D0000030D1004708D3006C
:1004B8004608D2000A128A1585240A128A11831264
:1004C80003135008303E0A128A1510220A128A11A4
:1004D80073300A128A1510220A128A11B92A863034
:1004E800D9000A128A154E230A128A110030831283
:1004F800031347020A3003194602031C842A852A7B
:100508009B2A0A30D0000030D1004708D3004608A3
:10051800D2000A128A11BA270A128A118312031307
:100528005008303E0A128A1510220A128A110A301F
:1005380083120313D0000030D1004708D3004608C7
:10054800D2000A128A1585240A128A11831203130B
:100558005008303E0A128A1510220A128A11733086
:100568000A128A1510220A128A1183120313DD0156
:10057800033083120313DC008A30DB005530DA00C5
:10058800DA0BC42ADB0BC42ADC0BC42A08300A1293
:100598008A1568220A128A11023083120313DC00BA
:1005A8008630DB009830DA00DA0BD82ADB0BD82A41
:1005B800DC0BD82A00000C300A128A1568220A12AD
:1005C8008A11013083120313DD0703305D02031C17
:1005D800EE2AEF2ABC2A0B3083120313DC002630E4
:1005E800DB005D30DA00DA0BF72ADB0BF72ADC0BCD
:1005F800F72A080083160313860187010330880051
:100608008312031388018701860183160313811659
:1006180081110730810407309F0007309C000A12BF
:100628008A1555220A128A110A128A15E5230A1216
:100638008A110A128A152B220A128A110A128A159D
:10064800B8230A128A11831203130108F200CE019B
:10065800D30100300A128A1510230A128A116A304F
:1006680083120313D9000A128A154E230A128A111B
:1006780083120313D301D30A00300A128A151023F8
:100688000A128A11563083120313D9000A128A15E6
:100698004E230A128A117D300A128A15F3220A1291
:1006A8008A11003A0319592B5A2B8E2B83120313E4
:1006B800CE185F2B602B8E2B413083120313E7007B
:1006C800ED30E600E60B662BE70B662B6B2B0A1268
:1006D8008A117C250A128A110A128A15D7220A124F
:1006E8008A11003A0319792B7A2B8E2B0A128A1554
:1006F80068260A128A110A128A119F260A128A117A
:100708000A128A15C5250A128A110A128A11FD26AB
:100718000A128A1183120313CE1C932B942B2E2CAE
:100728004E1C972B982B2E2C0A128A153B250A1241
:100738008A11013083120313E80704306802031C8E
:10074800A62BA72BAD2BE8010A128A1593230A12B0
:100758008A110A128A157D250A128A110A128A1527
:100768004E240A128A11831203134F084D060319E7
:10077800BE2BBF2BC82B0A128A15FB240A128A111A
:10078800831203134F08CD000A128A1591220A1208
:100798008A11003A0319D12BD22B092CFE3083126F
:1007A8000313CE05FE30C8050A128A113D240A1229
:1007B8008A110A128A113D200A128A11FD30831209
:1007C8000313CE05D30100300A128A1510230A122A
:1007D8008A116A3083120313D9000A128A154E232C
:1007E8000A128A1183120313D301D30A00300A12A2
:1007F8008A1510230A128A11563083120313D9005E
:100808000A128A154E230A128A118316031320032B
:1008180003190F2C102C152C2D03031D142C152C2B
:100828001F2C013083120313CF070130C4070318AC
:10083800C50A0030C5070A128A157B270A128A11D1
:10084800823083120313E700DD30E600E60B2A2C22
:10085800E70B2A2C073083120313E7007C30E600ED
:10086800E60B342CE70B342C00004F2B0A128A11AC
:100878000E2801300A128A1568220A128A110330DA
:1008880083120313DB009730DA00DA0B492CDB0BF9
:10089800492C83120313D30103300A128A1510233B
:1008A8000A128A11603083120313D9000A128A15BA
:1008B8004E230A128A1183120313D301D30A00307C
:1008C8000A128A1510230A128A11AF3083120313F1
:1008D800D9000A128A154E230A128A11003083128F
:1008E800031345020A3003194402031C7C2C7D2C97
:1008F800932C0A30D0000030D1004508D3004408BA
:10090800D2000A128A11BA270A128A118312031313
:100918005008303E0A128A1510220A128A110A302B
:1009280083120313D0000030D1004508D3004408D7
:10093800D2000A128A1585240A128A118312031317
:100948005008303E0A128A1510220A128A11A43061
:1009580083120313D9000A128A154E230A128A1128
:1009680000308312031347020A3003194602031C9E
:10097800BE2CBF2CD52C0A30D0000030D10047083F
:10098800D3004608D2000A128A11BA270A128A111D
:10099800831203135008303E0A128A1510220A12D5
:1009A8008A110A3083120313D0000030D10047089F
:1009B800D3004608D2000A128A1585240A128A1121
:1009C800831203135008303E0A128A1510220A12A5
:1009D8008A1173300A128A1510220A128A11831298
:1009E80003133003031DF92CFA2C3A2DAC30D9002F
:1009F8000A128A154E230A128A1100308312031331
:100A080032020A3003193102031C0B2D0C2D222D42
:100A18000A30D0000030D1003208D3003108D200AB
:100A28000A128A11BA270A128A118312031350086C
:100A3800303E0A128A1510220A128A110A308312CD
:100A48000313D0000030D1003208D3003108D2009F
:100A58000A128A1585240A128A1183120313500870
:100A6800303E0A128A1510220A128A1183120313C1
:100A7800DD01023083120313DC000430DB00B930DF
:100A8800DA00DA0B452DDB0B452DDC0B452D4C2D03
:100A980008300A128A1568220A128A11C330831292
:100AA8000313DB00CC30DA00DA0B582DDB0B582DA2
:100AB80000000C300A128A1568220A128A110130C5
:100AC80083120313DD0705305D02031C6C2D6D2DA9
:100AD8003D2D0B3083120313DC002630DB005D3024
:100AE800DA00DA0B752DDB0B752DDC0B752D080084
:100AF80083120313B3017B300A128A15F3220A12F8
:100B08008A11003A0319892D8A2D7F2D0A128A1518
:100B1800A6220A128A117B3A031D932D942D8A2D41
:100B28000A128A15A6220A128A1183120313E400F4
:100B380022306406031DA12DA22D942D0A128A15B8
:100B4800A6220A128A11633A031DAB2DAC2D942DEF
:100B58000A128A15A6220A128A115B3A031DB52DBC
:100B6800B62DAC2D83120313E5010A128A15BF2492
:100B78000A128A1183120313E30063080A128A1502
:100B880013260A128A11831203135308FF006508FB
:100B9800203EE10000300318013EE20061088400B5
:100BA8008317621C83137F0880000130E507083033
:100BB8006502031CE02DE12DB92D33140A128A15A4
:100BC800A6220A128A1183120313E4002230640653
:100BD800031DEF2DF02DE22D0A128A15A6220A1206
:100BE8008A116F3A031DF92DFA2DE22D0A128A1582
:100BF800A6220A128A115B3A031D032E042EFA2D2F
:100C080083120313E5010A128A15BF240A128A11F6
:100C180083120313E30063080A128A1513260A12C3
:100C28008A11831203135308FF006508283EE10068
:100C380000300318013EE200610884008317621C3B
:100C480083137F0880000130E50708306502031C24
:100C58002E2E2F2E072EB3140A128A15A6220A1238
:100C68008A1183120313E40067306406031D3D2EC6
:100C78003E2E302E0A128A15A6220A128A116F3ABF
:100C8800031D472E482E302E0A128A15A6220A1254
:100C98008A113A3A031D512E522E482E0A128A15ED
:100CA800A6220A128A11223A031D5B2E5C2E522EAE
:100CB8000A128A15A6220A128A11743A031D652E91
:100CC800672E0130682E003083120313B0000A1219
:100CD8008A15A6220A128A1183120313E4006730C8
:100CE8006406031D782E792E6B2E0A128A15A62209
:100CF8000A128A116F3A031D822E832E6B2E0A1256
:100D08008A15A6220A128A113A3A031D8C2E8D2EB4
:100D1800832E0A128A15BF240A128A110A128A150A
:100D280013260A128A11831203135408B2005308B7
:100D3800B10033150800013083120313D1000A12E1
:100D48008A152E230A128A11831203133318AD2E23
:100D5800AE2EB12E9430D200B32EB230D20052084B
:100D6800D1000A128A152E230A128A112230831200
:100D78000313D1000A128A152E230A128A1183122C
:100D88000313B318C82EC92ECC2E9430D300CE2E00
:100D9800B230D3005308D1000A128A152E230A1242
:100DA8008A114B3083120313D1000A128A152E239D
:100DB8000A128A11831203133319E32EE42EE72E45
:100DC8009430D400E92EB230D4005408D1000A126D
:100DD8008A152E230A128A119A3083120313D1001E
:100DE8000A128A152E230A128A11080001340134C6
:100DF80001347408F300080007308A000408840AE4
:100E0800820700347B34223473347434613474348C
:100E18007534733422343A3422346C346F34613488
:100E280064346534643422342C34223463346834B2
:100E38006134723461346334743465347234223406
:100E48003A342234003422342C3422346F3462345D
:100E580073347434613463346C34653422343A3412
:100E6800223400347B3422346F3462347334743463
:100E7800613463346C346534733422343A34003466
:100E88002C34223472346534733475346C347434CD
:100E980022343A342234003422342C342234673455
:100EA8006F3461346C3422343A342234003463347D
:100EB8006F346E346634693467342E342E342E34ED
:100EC8000034473441344D34453420344F3456349B
:100ED80045345234003445347334703465347234D4
:100EE80061346E3464346F34003459344F345534BB
:100EF8002034573449344E34213400342C342234CD
:100F0800743469346D34653422343A3400345434DA
:100F1800693465346D3470346F343A3400344F3486
:100F28006234733474343A3400346534723472344D
:100F38006F347234003422347D340D340A34003472
:100F48006C346F34733465340034203454343A3498
:100F58000034773469346E34003420342F3400344C
:100F68004F343A3400346F346B3400348312031333
:100F7800D501D601500851040319C32FC42FF92FE6
:100F88000130D400D02F01300310D00DD10DFF3E19
:100F9800031DC82F0130D407D11FD32FD42FC72F3B
:100FA80001300310D50DD60DFF3E031DD52F510876
:100FB8005302031DE12F50085202031CE42FE52FB2
:100FC800EC2F5008D2025108031CD303D302551446
:100FD80001300310D10CD00CFF3E031DED2F013062
:100FE800D402031DF82FF92FD42F5608D100550825
:040FF800D00008001D
:1013FE0064008001840A0406031900340406002ADE
:10140E0074087306031D0C2A0E2A01300F2A0030B1
:10141E00080083120313D80058088600071487109B
:10142E000A128A151D220A128A1508008312031346
:10143E000715203083120313D000D00B242A00008E
:10144E008312031307110800831203131010901058
:10145E00101690168E018F01831603130C14F101D2
:10146E00F001080083120313D00083160313981C97
:10147E00412A422A3C2A831203135008990008007D
:10148E0083120313C401C501C601C7010230C8008F
:10149E00F001F1018E018F01101408008316031361
:1014AE0007138717193099001815181298168312FA
:1014BE00031398171816831603138C160B178B1716
:1014CE00080083120313D2005208860007108710FB
:1014DE000A128A151D220A128A150F30831203135F
:1014EE00D100D10B782A7B2A080083120313D20075
:1014FE00D101521C832A842A862A5008D107031050
:10150E00D00D0310D20C5208031D8E2A8F2A802A6A
:10151E00510808000D3083120313D0006A080A1216
:10152E008A157C220A128A15A03E840083130003BA
:10153E000319A22AA42A0130A52A003008000A1293
:10154E008A1507220A128A15003A0319AF2AB02A01
:10155E00A62A73080F39343E8400831300088312C1
:10156E000313D0000130F307500808008312031351
:10157E00D6000108F2070D30D00072080A128A1543
:10158E007C220A128A15113EF200831203135608AA
:10159E00D00072080A128A156E230A128A150800E4
:1015AE0083120313D00107303306031DDF2AE02A0E
:1015BE00F12A310832040319E52AE62AF12A03300A
:1015CE003202E830031931020318EE2AEF2AF12A0B
:1015DE000130D0005008080083120313D0007308A6
:1015EE00D100082B51080F39343E840083130008B4
:1015FE005006031D032B042B062B01300F2B01303D
:10160E00D10751087406031D0D2B0E2BF92A00303D
:10161E00080083120313D60053080319172B182B37
:10162E00202B5608C03ED400003003180130D500E0
:10163E00272B5608803ED400003003180130D50009
:10164E0054080A128A1568220A128A1508003F2BBE
:10165E00510884000A128A1100270A128A150A12EA
:10166E008A1539220A128A15013083120313D10703
:10167E0083120313510884000A128A1100270A12DA
:10168E008A15003A031D4C2B4D2B2F2B08005F2B78
:10169E00590884000A128A1100270A128A150A12A2
:1016AE008A1510220A128A15013083120313D907E4
:1016BE0083120313590884000A128A1100270A1292
:1016CE008A15003A031D6C2B6D2B4F2B08008312CD
:1016DE000313D3000830D400D5015308D1000730CE
:1016EE000310D10CFF3E031D772B5508D200520775
:1016FE005104D5000310D30D50085502031C882B3E
:10170E00892B8B2B5008D5020130D402031D902B50
:10171E00912B742B550808002030831603132C06CA
:10172E00031D9A2B9B2BB72B20303906031DA02BA4
:10173E00A12BB72B02300A128A15BD220A128A1566
:10174E0083120313D7000D30D00057080A128A15E2
:10175E007C220A128A15AC3E84000130831380006D
:10176E00080083120313D2015208203ED00000302D
:10177E000318013ED100500884008317511C8313B7
:10178E0080015208283ED00000300318013ED100DF
:10179E00500884008317511C831380010130D20737
:1017AE0008305202031CDC2BDD2BBB2B0130B000AA
:1017BE000A30B1000030B200B301080083160313E3
:1017CE008601071087100711413083120313D400CE
:1017DE00ED30D300D30BF12BD40BF12BF62B38308D
:1017EE000A128A1568220A128A150C300A128A15F4
:1017FE0068220A128A1501300A128A1568220A1204
:10180E008A1506300A128A1568220A128A150330C2
:10181E0083120313D4009730D300D30B142CD40BA4
:10182E00142C0800831203138C1E1E2C1F2C2E2C1E
:10183E00981C222C232C252C1812181674080F39DC
:10184E00343E84001A08831380000130F4070C1C08
:10185E00312C322C452C0C100130F1077D307102E9
:10186E00031C3A2C3B2C452CF1010130F00770087B
:10187E00F500F6017508C6007608C70079088A00DB
:10188E0078088400770E8300FE0E7E0E0900831208
:10189E000313DB015B08D30000300A128A151023F4
:1018AE000A128A1583120313DA010D30D0005B0879
:1018BE000A128A157C220A128A15A03E831203137D
:1018CE005A07D90059088400831300080A128A1592
:1018DE0010220A128A15013083120313DA070D3013
:1018EE005A02031C7B2C7C2C5C2C0130DB07023053
:1018FE005B02031C832C842C512C080083120313CF
:10190E005008510403198C2C8D2CBA2C0130D400A4
:10191E00992C01300310D00DD10DFF3E031D912CDB
:10192E000130D407D11F9C2C9D2C902C51085302B2
:10193E00031DA32C50085202031CA62CA72CAD2C61
:10194E005008D2025108031CD303D30201300310F6
:10195E00D10CD00CFF3E031DAE2C0130D402031D62
:10196E00B92CBA2C9D2C5308D1005208D000080077
:10197E0083120313D1010A128A15A6220A128A159E
:10198E0083120313D200203052060319CF2CD02C11
:10199E00C22C2C3052060319D52CD62CC22CE72C77
:1019AE005108493E84005208831380000130D1074C
:1019BE000A128A15A6220A128A1583120313D2005E
:1019CE0030305202031CEC2CED2CF92C3A30520222
:1019DE000318F22CF32CF92C03305102031CF82CB3
:1019EE00F92CD72C5108080083120313D3010E30A3
:1019FE000A128A1510230A128A150A30831203134B
:101A0E00D0000030D1004F08D900DA015908D200B9
:101A1E005A08D3000A128A1516270A128A1583123B
:101A2E0003135008303E0A128A1510220A128A1524
:101A3E000A3083120313D0000030D1004F08D900B2
:101A4E00DA015908D2005A08D3000A128A15BD26A7
:101A5E000A128A15831203135008303E0A128A1591
:101A6E0010220A128A15080083120313081C402D37
:101A7E00412D652D6A080319452D462D652D0D3016
:101A8E00D00069080A128A157C220A128A15A03E15
:101A9E00840020308313800083120313EA01E901CE
:101AAE0083160313A001143083120313D40079306C
:101ABE00D300D30B602DD40B602D7C2D881C682D8C
:101ACE00692D7C2D6A08031D6D2D6E2D7C2D203009
:101ADE0083160313A000013083120313EA000130B2
:101AEE00E90083160313AD015A2D08008312031368
:101AFE00D601D5010D30D00056080A128A157C2267
:101B0E000A128A15A13E831203135507D3005308F8
:101B1E00840083130008FF000D30D00056080A120F
:101B2E008A157C220A128A15A03E831203135507CA
:101B3E00D400540884007F08831380000130D50739
:101B4E000C305502031CAC2DAD2D812D0D30D00067
:101B5E0056080A128A157C220A128A15AC3E840097
:101B6E00203083138000013083120313D607023016
:101B7E005602031CC32DC42D802D080001300A12FD
:101B8E008A1568220A128A15033083120313DD00A8
:101B9E009730DC00DC0BD12DDD0BD12D0A128A150E
:101BAE0068260A128A1583120313DE01DF010D3037
:101BBE00D0005E080A128A157C220A128A15A03EEF
:101BCE00831203135F07DC005C088400203083134C
:101BDE0080000130DF070D305F02031CF72DF82D5A
:101BEE00DE2D0130DE0702305E02031CFF2D002EBB
:101BFE00DD2D0130EA000130E900E801CF01831646
:101C0E000313AD01033083120313CE040A128A1597
:101C1E0047220A128A15080083120313DD00DE0123
:101C2E00DF01E0014A2E5F08D6005E08D5000310E2
:101C3E00D50DD60D5F08D8005E08D7000310D70D5E
:101C4E00D80D0310D70DD80D0310D70DD80D600881
:101C5E00493E840000085707D90058080318580A4F
:101C6E00DA0055085907DB0056080318560A5A07BA
:101C7E00DC005B08D03EDE005C080318013EFF3E30
:101C8E00DF000130E0075D08600203184F2E502E72
:101C9E00632E6008493E8400303083130002031C1B
:101CAE00592E5A2E632E6008493E84003A300002A7
:101CBE00031C622E632E1A2E5F08D4005E08D3001A
:101CCE00080040300A128A1568220A128A158312F9
:101CDE000313DB015B08203ED90000300318013EE0
:101CEE00DA005908840083175A1C831300080A125D
:101CFE008A1510220A128A15013083120313DB078C
:101D0E0008305B02031C8C2E8D2E712E48300A1269
:101D1E008A1568220A128A1583120313DB015B08E7
:101D2E00283ED90000300318013EDA00590884001D
:101D3E0083175A1C831300080A128A1510220A12DE
:101D4E008A15013083120313DB0708305B02031C74
:101D5E00B12EB22E962E80300A128A1568220A12E1
:101D6E008A15033083120313B3040800831203137E
:101D7E00D501D31FC32EC42ECB2ED209D309D20A1E
:101D8E000319D30A0130D500D11FCE2ECF2ED42E5B
:101D9E00D009D109D00A0319D10A500851040319E8
:101DAE00D92EDA2E072F0130D400E62E0130031083
:101DBE00D00DD10DFF3E031DDE2E0130D407D11FF5
:101DCE00E92EEA2EDD2E51085302031DF02E500887
:101DDE005202031CF32EF42EFA2E5008D202510892
:101DEE00031CD303D30201300310D10CD00CFF3EE1
:101DFE00031DFB2E0130D402031D062F072FEA2EE2
:101E0E00550803190B2F0C2F112FD209D309D20A03
:101E1E000319D30A5308D1005208D00008008312C8
:101E2E000313D501D11F1C2F1D2F242FD009D1092B
:101E3E00D00A0319D10A0130D500D31F272F282F1E
:101E4E002F2FD209D309D20A0319D30A0130D5068E
:101E5E00D601D701500851040319362F372F6C2F96
:101E6E000130D400432F01300310D00DD10DFF3EB1
:101E7E00031D3B2F0130D407D11F462F472F3A2F7A
:101E8E0001300310D60DD70DFF3E031D482F51080C
:101E9E005302031D542F50085202031C572F582F64
:101EAE005F2F5008D2025108031CD303D3025614DD
:101EBE0001300310D10CD00CFF3E031D602F0130FA
:101ECE00D402031D6B2F6C2F472F55080319702F4B
:101EDE00712F762FD609D709D60A0319D70A5708B4
:101EEE00D1005608D0000800831203133003031DDF
:101EFE00812F822FC12F32084502031D882F3108F2
:101F0E004402031C8B2F8C2FFF2FFE30CE0548145E
:101F1E000A128A11B7210A128A150A128A113D2055
:101F2E000A128A15FD3083120313CE05D301003039
:101F3E000A128A1510230A128A156A3083120313A5
:101F4E00D9000A128A154E230A128A158312031318
:101F5E00D301D30A00300A128A1510230A128A15E9
:101F6E00563083120313D9000A128A154E230A1211
:101F7E008A15FF2F32084702031DC72F310846026C
:101F8E00031CCA2FCB2FFF2FFE30CE0548140A128A
:101F9E008A11B7210A128A150A128A113D200A12D5
:101FAE008A15FD3083120313CE05D30100300A12B9
:101FBE008A1510230A128A156A3083120313D90068
:101FCE000A128A154E230A128A1583120313D3019D
:101FDE00D30A00300A128A1510230A128A155630B7
:101FEE0083120313D9000A128A154E230A128A1578
:021FFE000800D9
:02400E00313F40
:00000001FF
