:060000000A128A110E280D
:10000800FE00030EF0000408F1000A08F2000A12CC
:100018008A111A2D0A128A111128F901FA0183137B
:100028002030840059300A128A110B260A128A11CC
:1000380083010A128A115C2A83120313E301E40183
:1000480037280D3083120313E200FB30E100E10B87
:100058002B28E20B2B28013083120313E307031824
:10006800E40A0030E4077B300A128A1170250A126C
:100078008A11003A031D412842284D280330831273
:1000880003136402E83003196302031C4C284D284B
:1000980025280330831203136402E830031963022E
:1000A800031C57285828592868290A128A11CF256D
:1000B8000A128A117B3A031D6228632859280A12FA
:1000C8008A11CF250A128A1183120313E7002230FE
:1000D8006706031D7028712863280A128A11CF2524
:1000E8000A128A11633A031D7A287B2863280A12A8
:1000F8008A11CF250A128A115B3A031D84288528A4
:100108007B2883120313E6010A128A11F9230A12C3
:100118008A1183120313E50065080A128A116A23FB
:100128000A128A11730883120313E1006608513E0C
:1001380084006108831380000130E60708306602F6
:10014800031CA728A82888280A128A11CF250A1272
:100158008A1183120313E70022306706031DB528AE
:10016800B628A8280A128A11CF250A128A116F3ACE
:10017800031DBF28C028A8280A128A11CF250A12F1
:100188008A115B3A031DC928CA28C02883120313A1
:10019800E6010A128A11F9230A128A11831203133B
:1001A800E50065080A128A116A230A128A1173087F
:1001B80083120313E1006608493E84006108831333
:1001C80080000130E60708306602031CEC28ED28A1
:1001D800CD280A128A11CF250A128A118312031315
:1001E800E70067306706031DFA28FB28ED280A1286
:1001F8008A11CF250A128A1183120313E7006F3080
:100208006706031D08290929ED280A128A11CF2536
:100218000A128A113A3A031D1229132909290A12C6
:100228008A11CF250A128A11223A031D1C291D2979
:1002380013290A128A11CF250A128A11831203136D
:10024800E70074306706031D2A292C2901302D295F
:100258000030C5000A128A11CF250A128A118312AA
:100268000313E70067306706031D3B293C292E2945
:100278000A128A11CF250A128A1183120313E70082
:100288006F306706031D49294A292E290A128A1147
:10029800CF250A128A113A3A031D532954294A29AB
:1002A8000A128A11F9230A128A1183120313E5002C
:1002B80065080A128A116A230A128A1174088312BD
:1002C8000313C7007308C600080001300A128A1118
:1002D800BA250A128A11033083120313E1009730FA
:1002E800E000E00B7529E10B75295130F80000306A
:1002F8000A128A116E240A128A114930F800013054
:100308000A128A116E240A128A11F80100300A12A0
:100318008A11FA240A128A114430F7000A128A1143
:1003280038250A128A1100300A128A11E4250A12A5
:100338008A113730F7000A128A1138250A128A11F1
:1003480001300A128A11E4250A128A11F801F80A02
:1003580000300A128A11FA240A128A113E30F70074
:100368000A128A1138250A128A11831203134508C2
:100378000319BF29C029C5294F30E2000030E30026
:10038800C9295430E2000030E30062080A128A11D9
:10039800E4250A128A113D300A128A11E4250A124C
:1003A8008A11E830F3000330F4008312031347087E
:1003B800F6004608F5000A128A11B5230A128A11B6
:1003C800730883120313E4006408303E0A128A118A
:1003D800E4250A128A110A3083120313DC00003064
:1003E800DD006430F3000030F4004708F6004608EA
:1003F800F5000A128A11B5230A128A1174088312A9
:100408000313DF007308DE000A128A1134240A126B
:100418008A11831203135C08E4006408303E0A1250
:100428008A11E4250A128A110A3083120313DC00A8
:100438000030DD000A30F3000030F4004708F60011
:100448004608F5000A128A11B5230A128A1174089F
:1004580083120313DF007308DE000A128A113424A2
:100468000A128A11831203135C08E4006408303E00
:100478000A128A11E4250A128A110A308312031318
:10048800DC000030DD004708DF004608DE000A1205
:100498008A1134240A128A11831203135C08E400B7
:1004A8006408303E0A128A11E4250A128A110800EB
:1004B8000A128A11A3250A128A110A128A11A4247F
:1004C8000A128A1183120313EA016A08513E840052
:1004D800831380016A08493E840080010130EA07DD
:1004E80008306A02031C792A7A2A692A0130C50071
:1004F8000A30C6000030C7000A128A11D8240A122E
:100508008A111330F4000A128A1154250A128A112A
:10051800F80100300A128A11FA240A128A112D30C1
:10052800F7000A128A1138250A128A11F801F80A06
:1005380000300A128A11FA240A128A112330F700AD
:100548000A128A1138250A128A117D300A128A1174
:1005580070250A128A11003A0319B32AB42AE82A24
:10056800823083120313E900DD30E800E80BBA2A71
:10057800E90BBA2A0A128A1120200A128A110A12D1
:100588008A1169210A128A11823083120313E90041
:10059800DD30E800E80BCE2AE90BCE2A0130F40062
:1005A8000A128A1154250A128A110A128A11D824A9
:1005B8000A128A11823083120313E900DD30E80041
:1005C800E80BE42AE90BE42A0D3083120313E9004F
:1005D800FB30E800E80BEE2AE90BEE2A0130831223
:1005E8000313C80765304802031CFB2AFC2AA92A02
:1005F800C8010A128A1102260A128A11003A03193E
:10060800062B072BA92A7B300A128A1170250A1299
:100618008A11003A031D112B122BA92A0A128A11DA
:10062800D8240A128A11A92A0A128A110E2803301C
:100638008A000408840A820700347B342234733425
:100648007434613474347534733422343A34223453
:100658006F346B3422347D340D340A34003453340F
:1006680069347334743465346D34613420346C34D3
:100678006934733474346F340D340A340034633499
:100688006F346E346634693467342E342E342E3425
:1006980000344534733470346534723461346E34E4
:1006A80064346F34003420344F3462347334743417
:1006B8003A3400344D346534743461343A34003497
:1006C80043346834613472343A340034F500F60146
:1006D800F701F801A12B770883120313DA007608D3
:1006E800D9000310D90DDA0D7708DC007608DB0095
:1006F8000310DB0DDC0D0310DB0DDC0D0310DB0D2F
:10070800DC0D7808403E840000085B07DD005C08CB
:1007180003185C0ADE0059085D07DF005A08031851
:100728005A0A5E07E0005F08D03EF600600803182A
:10073800013EFF3EF7000130F807750878020318FC
:10074800A62BA72BB02B7808403E84008313000803
:10075800031DAF2BB02B6F2B7708F4007608F3003E
:10076800080083120313DA01DB0173087404031908
:10077800BE2BBF2BF42B0130D900CB2B013003103B
:10078800F30DF40DFF3E031DC32B0130D907F41FF1
:10079800CE2BCF2BC22B01300310DA0DDB0DFF3E21
:1007A800031DD02B74087602031DDC2B7308750219
:1007B800031CDF2BE02BE72B7308F5027408031CDE
:1007C800F603F6025A1401300310F40CF30CFF3E42
:1007D800031DE82B0130D902031DF32BF42BCF2B7B
:1007E8005B08F4005A08F3000800F4010A128A11A1
:1007F800CF250A128A11F500203075060319052C39
:10080800062CFA2B2C30750603190B2C0C2CFA2B02
:100818001B2C7408403E8400750883138000013047
:10082800F4070A128A11CF250A128A11F50030300E
:100838007502031C202C212C2D2C3A30750203182C
:10084800262C272C2D2C04307402031C2C2C2D2C28
:100858000D2C7408403E840083138001740808003E
:10086800831203135C085D0403193B2C3C2C692C90
:100878000130F700482C01300310DC0DDD0DFF3E80
:10088800031D402C0130F707DD1F4B2C4C2C3F2C4F
:100898005D085F02031D522C5C085E02031C552C88
:1008A800562C5C2C5C08DE025D08031CDF03DF02AB
:1008B80001300310DD0CDC0CFF3E031D5D2C013004
:1008C800F702031D682C692C4C2C5F08DD005E08BC
:1008D800DC00080083120313DA005A080739D9002C
:1008E80002300310D90DFF3E031D752C0310590D5E
:1008F8004038DB005B080A128A11BA250A128A11ED
:1009080083120313DC015C087807D90059088400B6
:10091800831300080A128A11E4250A128A11013089
:1009280083120313DC0708305C02031C9C2C9D2CEB
:10093800872C80300A128A11BA250A128A110800F7
:10094800831603138601071087100711413083129D
:100958000313DA00ED30D900D90BB02CDA0BB02C28
:10096800B52C38300A128A11BA250A128A110C30AD
:100978000A128A11BA250A128A1101300A128A113A
:10098800BA250A128A1106300A128A11BA250A12E1
:100998008A11033083120313DA009730D900D90B78
:1009A800D32CDA0BD32C08000A128A1113260A1248
:1009B8008A11F3017308403E8400831380010130DB
:1009C800F30705307302031CEA2CEB2CDE2C831290
:1009D8000313981CF02CF12CF52C18121816F52C72
:1009E8001A088C1AF82CF92CF42C0800831203131B
:1009F800DC0078080319012D022D0A2D5C08C03E81
:100A0800D900003003180130DA00112D5C08803E4F
:100A1800D900003003180130DA005908DB005B0800
:100A28000A128A11BA250A128A11080083120313BE
:100A38008C1E1F2D202D2F2D981C232D242D262D67
:100A4800181218167A081F39203E84001A088313D2
:100A580080000130FA0772088A0071088400700E5D
:100A68008300FE0E7E0E0900472D770884000A12C7
:100A78008A111B230A128A110A128A11E4250A1202
:100A88008A110130F707770884000A128A111B239C
:100A98000A128A11003A031D522D532D392D0800D0
:100AA800632D740884000A128A111B230A128A1102
:100AB8000A128A11F6250A128A110130F4077408FD
:100AC80084000A128A111B230A128A11003A031D94
:100AD8006E2D6F2D552D0800F3007908F400832D35
:100AE80074081F39203E8400831300087306031D11
:100AF8007E2D7F2D812D01308A2D0130F407740859
:100B08007A06031D882D892D742D00300800831264
:100B1800031307150730F4007D30F300F30B922D13
:100B2800F40B922D8312031307110330F40097304E
:100B3800F300F30B9D2DF40B9D2DA22D08008316B9
:100B480003130713871707309F00193099001815EA
:100B5800181298168312031398171816831603137E
:100B68008C160B178B17FA01F9010800F7007708A4
:100B7800831203138600071087100A128A118B2527
:100B88000A128A110730F6007D30F500F50BCA2DE0
:100B9800F60BCA2D08000A128A1102260A128A11B7
:100BA800003A0319D82DD92DCF2D79081F39203EA9
:100BB800840083130008F3000130F9077308080064
:100BC800F6007608831203138600071487100A12AA
:100BD8008A118B250A128A11A630F500F50BF22D21
:100BE80000000800F30083160313981CFC2DFD2D4C
:100BF800F72D730883120313990008007A08790601
:100C0800031D072E092E01300A2E0030080064004B
:100C18008001840A04060319003404060C2E7A089D
:040C2800F9000800C7
:02400E00313F40
:00000001FF
