:060000000A128A110E280D
:10000800FE00030EF0000408F1000A08F2000A12CC
:100018008A158F2B0A128A1111280A128A155A2159
:100028000A128A11EA000A128A155B210A128A1139
:10003800EB000A128A155C210A128A11EC000A12D6
:100048008A11FF270A128A11FA008313A03084004C
:10005800E0300A128A155D210A128A1120308400C4
:100068004C300A128A155D210A128A11F801F90129
:1000780083010A128A114028831603138601870117
:1000880003308800831203138601870188018316D1
:100098000313811681110730810407309F00073050
:1000A8009C000A128A15FA210A128A110A128A1564
:1000B800EC230A128A110A128A1596210A128A1149
:1000C8000A128A15BD230A128A110A128A157C227D
:1000D8000A128A118312031381010108C8005830DB
:1000E800F4008830F5000A128A15C3220A128A1110
:1000F80083120313CC0100300A128A155C220A12FB
:100108008A11D93083120313CC008830CD000A122B
:100118008A1510230A128A1183120313CC01CC0A00
:1001280000300A128A155C220A128A11CF30831213
:100138000313CC008830CD000A128A1510230A1246
:100148008A117D300A128A1541220A128A11003A50
:100158000319AF28B0280229831203134708031D87
:10016800B628B7280229823083120313E600DD304F
:10017800E500E50BBD28E60BBD280A128A11DD2330
:100188000A128A110A128A1563230A128A11003A7E
:100198000319CF28D028EF280A128A156E210A12CF
:1001A8008A11823083120313E600DD30E500E50B87
:1001B800DB28E60BDB280A128A1188260A128A1124
:1001C8000A128A1592270A128A110A128A157C22A3
:1001D8000A128A11F8280030F4008830F5000A1253
:1001E8008A15C3220A128A11823083120313E60089
:1001F800DD30E500E50BFE28E60BFE28831203132D
:100208004708031908290929212A6B0803190D2908
:100218000E29212A0A128A152B270A128A110A1274
:100228008A11C7270A128A11013083120313EA07B9
:1002380004306A02031C212922292829EA010A120A
:100248008A15E9220A128A110A128A15DA250A126F
:100258008A110A128A11C7270A128A1183120313F4
:1002680049084606031939293A2943290A128A15E1
:100278000C250A128A11831203134908C6000A12B0
:100288008A15E4210A128A11003A03194C294D29CA
:10029800FB2983120313EB01BA0101300A128A15F4
:1002A800CF210A128A11033083120313E600973014
:1002B800E500E50B5D29E60B5D2983120313CC01EC
:1002C80000300A128A155C220A128A11BA30831287
:1002D8000313CC008830CD000A128A1510230A12A5
:1002E8008A1183120313CC01CC0A00300A128A1532
:1002F8005C220A128A11073083120313CC0089305A
:10030800CD000A128A1510230A128A110A30F30046
:100318000030F400831203133708F6003608F5009E
:100328000A128A15C8240A128A117308303E8312E9
:100338000313E8000A30F3000030F4003708F60031
:100348003608F5000A128A1555240A128A1173080C
:10035800303E83120313E90068080A128A15A8219F
:100368000A128A118312031369080A128A15A8212E
:100378000A128A11103083120313E7003930E6009D
:100388000D30E500E50BC629E60BC629E70BC629A3
:100398000A128A113F250A128A1183120313C70110
:1003A800CC0100300A128A155C220A128A11D9304F
:1003B80083120313CC008830CD000A128A1510234B
:1003C8000A128A1183120313CC01CC0A00300A12D4
:1003D8008A155C220A128A11CF3083120313CC00CB
:1003E8008830CD000A128A1510230A128A11831642
:1003F800031330030319012A022A072A2003031DC5
:10040800062A072A112A013083120313C90701306B
:10041800B6070318B70A0030B7070A128A115B2219
:100428000A128A11C33083120313E600CC30E500A8
:10043800E50B1C2AE60B1C2A00000D30831203135F
:10044800E600FB30E500E50B272AE60B272A0130FA
:1004580083120313C50765304502031C342A352A65
:10046800A528C5010A128A1565210A128A11003ABF
:1004780003193F2A402AA5287B300A128A154122EF
:100488000A128A11003A031D4A2A4B2AA528831208
:1004980003134708031D512A522AA5280A128A1550
:1004A8007C220A128A11A5280A128A110E288312A0
:1004B80003133003031D612A622A1A2B32083702FC
:1004C800031D682A31083602031C6B2A6C2ADC2BB0
:1004D800EB010130BA0001300A128A15CF210A1245
:1004E8008A11033083120313DF009730DE00DE0B1E
:1004F8007B2ADF0B7B2A83120313CC0100300A12FC
:100508008A155C220A128A11F53083120313CC0073
:100518008830CD000A128A1510230A128A11831214
:100528000313CC01CC0A00300A128A155C220A1285
:100538008A11E33083120313CC008830CD000A12ED
:100548008A1510230A128A110A30F3000030F400C9
:10055800831203133708F6003608F5000A128A15C5
:10056800C8240A128A117308303E83120313E1006B
:100578000A30F3000030F4003708F6003608F500BA
:100588000A128A1555240A128A117308303E8312FA
:100598000313E20061080A128A15A8210A128A11B7
:1005A8008312031362080A128A15A8210A128A11F3
:1005B800103083120313E0003930DF000D30DE0005
:1005C800DE0BE42ADF0BE42AE00BE42A0A128A1184
:1005D8003F250A128A1183120313C701CC01003088
:1005E8000A128A155C220A128A11D930831203135F
:1005F800CC008830CD000A128A1510230A128A11FD
:1006080083120313CC01CC0A00300A128A155C222B
:100618000A128A11CF3083120313CC008830CD0020
:100628000A128A1510230A128A11DC2B3008031DBE
:100638001E2B1F2BDC2B32083902031D252B3108FA
:100648003802031C282B292BDC2BEB010130BA00C4
:1006580001300A128A15CF210A128A110330831237
:100668000313DF009730DE00DE0B382BDF0B382B4F
:1006780083120313CC0100300A128A155C220A1275
:100688008A11F53083120313CC008830CD000A128A
:100698008A1510230A128A1183120313CC01CC0A7B
:1006A80000300A128A155C220A128A11EC30831271
:1006B8000313CC008830CD000A128A1510230A12C1
:1006C8008A110A30F3000030F4008312031339084A
:1006D800F6003808F5000A128A15C8240A128A1189
:1006E8007308303E83120313E3000A30F30000302E
:1006F800F4003908F6003808F5000A128A1555245E
:100708000A128A117308303E83120313E400630847
:100718000A128A15A8210A128A118312031364087F
:100728000A128A15A8210A128A1173300A128A1528
:10073800A8210A128A11103083120313E0003930FD
:10074800DF000D30DE00DE0BA72BDF0BA72BE00B45
:10075800A72B0A128A113F250A128A118312031342
:10076800C701CC0100300A128A155C220A128A11CC
:10077800D93083120313CC008830CD000A128A15B1
:1007880010230A128A1183120313CC01CC0A0030F9
:100798000A128A155C220A128A11CF3083120313B7
:1007A800CC008830CD000A128A1510230A128A114B
:1007B800080083120313DB01DC01B301B401B501A6
:1007C800F72B0D3083120313D900FB30D800D80B58
:1007D800EB2BD90BEB2B013083120313DB07031828
:1007E800DC0A0030DC077B300A128A1541220A1223
:1007F8008A11003A031D012C022C0D2C03308312A0
:1008080003135C02E83003195B02031C0C2C0D2C4B
:10081800E52B0330831203135C02E83003195B02F3
:10082800031C172C182C192C3E2D0A128A15BA21D4
:100838000A128A117B3A031D222C232C192C0A1226
:100848008A15BA210A128A1183120313DF00223093
:100858005F06031D302C312C232C0A128A15BA216D
:100868000A128A11633A031D3A2C3B2C232C0A12D4
:100878008A15BA210A128A115B3A031D442C452CA9
:100888003B2C83120313DE010A128A158D240A12E7
:100898008A1183120313DD005D080A128A152226C5
:1008A8000A128A11730883120313D8005E08203EC7
:1008B800D90000300318013EDA0059088400831774
:1008C8005A1C8313580880000130DE0708305E0286
:1008D800031C6F2C702C482C0130B3000A128A15A7
:1008E800BA210A128A1183120313DF0022305F062D
:1008F800031D7F2C802C722C0A128A15BA210A1229
:100908008A116F3A031D892C8A2C722C0A128A15B7
:10091800BA210A128A115B3A031D932C942C8A2C53
:1009280083120313DE010A128A158D240A128A1112
:1009380083120313DD005D080A128A1522260A12A3
:100948008A11730883120313D8005E08283ED90061
:1009580000300318013EDA005908840083175A1C36
:100968008313580880000130DE0708305E02031C3C
:10097800BE2CBF2C972C0130B4000A128A15BA215C
:100988000A128A1183120313DF0067305F06031D02
:10099800CE2CCF2CC12C0A128A15BA210A128A1120
:1009A80083120313DF006F305F06031DDC2CDD2C80
:1009B800C12C0A128A15BA210A128A113A3A031D61
:1009C800E62CE72CDD2C0A128A15BA210A128A11A4
:1009D800223A031DF02CF12CE72C0A128A15BA21B1
:1009E8000A128A1183120313DF0074305F06031D95
:1009F800FE2C002D0130012D0030B0000A128A159E
:100A0800BA210A128A1183120313DF0067305F06C6
:100A1800031D0F2D102D022D0A128A15BA210A1254
:100A28008A1183120313DF006F305F06031D1D2D2B
:100A38001E2D022D0A128A15BA210A128A113A3A73
:100A4800031D272D282D1E2D0A128A158D240A1202
:100A58008A1183120313DD005D080A128A15222603
:100A68000A128A11740883120313B2007308B100C2
:100A78000130B50008009330F4008830F5000A1200
:100A88008A15C3220A128A11831203133708DC005D
:100A98003608DB00DD015B085C04031D542D552D71
:100AA8005A2D3030D0000130DD07B02DD601872D0A
:100AB8005D08503E84000A30F3000030F4005C0802
:100AC800F6005B08F5000A128A1555240A128A11E5
:100AD8007308303E83138000013083120313DD074F
:100AE8000A30F3000030F4005C08F6005B08F500FB
:100AF8000A128A15C8240A128A1174088312031369
:100B0800DC007308DB005B085C04031D8C2D8D2D55
:100B18005C2D5D08FF3ED700AA2D5608503E840084
:100B280083130008DA005708503E84000008CF00FD
:100B38005608503E84004F0880005708503E8400F5
:100B48005A0880000130D6070130D70257085602EC
:100B5800031CAF2DB02D912D5D08503E84008313EA
:100B68008001DA01C52D5A08503E8400831300081D
:100B78000A128A1579210A128A1101308312031385
:100B8800DA075D085A02031CCA2DCB2DB72DFE309B
:100B9800F4008830F5000A128A15C3220A128A1155
:100BA800831203133908DC003808DB00DD015B0819
:100BB8005C04031DE02DE12DE62D3030D00001301E
:100BC800DD073C2ED801132E5D08503E84000A3004
:100BD800F3000030F4005C08F6005B08F5000A1228
:100BE8008A1555240A128A117308303E831380002F
:100BF800013083120313DD070A30F3000030F400DC
:100C08005C08F6005B08F5000A128A15C8240A1267
:100C18008A11740883120313DC007308DB005B0875
:100C28005C04031D182E192EE82D5D08FF3ED9001F
:100C3800362E5808503E840083130008DA005908FD
:100C4800503E84000008CF005808503E84004F08EA
:100C580080005908503E84005A0880000130D807A7
:100C68000130D90259085802031C3B2E3C2E1D2E78
:100C78005D08503E840083138001DA01512E5A0822
:100C8800503E8400831300080A128A1579210A123B
:100C98008A11013083120313DA075D085A02031C14
:100CA800562E572E432EAE30F4008830F5000A1227
:100CB8008A15C3220A128A11831203133A03031DE9
:100CC800662E672E712E1930F4008930F5000A124D
:100CD8008A15C3220A128A117A2E1430F400893038
:100CE800F5000A128A15C3220A128A112B30F40061
:100CF8008830F5000A128A15C3220A128A11831253
:100D080003131010BB0108004530F4008830F500CB
:100D18000A128A15C3220A128A116830F400883030
:100D2800F5000A128A15C3220A128A1183120313C4
:100D38003308031DA02EA12EA62E0E30D000893018
:100D4800D100AA2E1D30D0008930D1005008F400FF
:100D58005108F5000A128A15C3220A128A11833033
:100D6800F4008830F5000A128A15C3220A128A1183
:100D78007730F4008830F5000A128A15C3220A1267
:100D88008A11831203133408031DCB2ECC2ED12EC7
:100D98000E30D2008930D300D52E1D30D2008930D4
:100DA800D3005208F4005308F5000A128A15C3222A
:100DB8000A128A118330F4008830F5000A128A1565
:100DC800C3220A128A11C530F4008830F5000A12CD
:100DD8008A15C3220A128A11831203133508031DC8
:100DE800F62EF72EFC2E0E30D4008930D500002FB9
:100DF8001D30D4008930D5005408F4005508F5009A
:100E08000A128A15C3220A128A118330F400883024
:100E1800F5000A128A15C3220A128A11A130F400B9
:100E28008830F5000A128A15C3220A128A11831221
:100E3800031330080319212F222F272F3130D60012
:100E48000030D7002B2F3030D6000030D70056089E
:100E58000A128A1579210A128A118530F40088301D
:100E6800F5000A128A15C3220A128A118312031383
:100E7800E3013208E2003108E10061086204031D61
:100E8800462F472F4C2F3030D8000130E307A22FD0
:100E9800DE01792F6308583E84000A30F3000030E1
:100EA800F4006208F6006108F5000A128A15552454
:100EB8000A128A117308303E8313800001308312AE
:100EC8000313E3070A30F3000030F4006208F60069
:100ED8006108F5000A128A15C8240A128A117408D2
:100EE80083120313E2007308E10061086204031D22
:100EF8007E2F7F2F4E2F6308FF3EDF009C2F5E085A
:100F0800583E840083130008E0005F08583E8400C0
:100F18000008CF005E08583E84004F0880005F0834
:100F2800583E8400600880000130DE070130DF028F
:100F38005F085E02031CA12FA22F832F6308583E6F
:100F4800840083138001E001B72F6008583E8400B5
:100F5800831300080A128A1579210A128A110130AE
:100F680083120313E00763086002031CBC2FBD2F24
:100F7800A92F2C30F4008830F5000A128A15C322F4
:100F88000A128A11080083120313D5015508CC00F0
:100F980000300A128A155C220A128A11831203137E
:100FA800D4015508D10004300310D10DFF3E031DB4
:100FB800D82FA0305107D20054085207D300530845
:100FC8008400831300080A128A15A8210A128A11BC
:100FD800013083120313D4070D305402031CF52F7C
:100FE800F62FD52F0130D50702305502031CFD2FEF
:100FF800FE2FCA2F080001347B3422347334743432
:10100800613474347534733422343A342234653498
:10101800723472346F34723422342C3422346D3486
:1010280065347334733461346734653422343A3444
:10103800223469346E34763461346C3469346434FF
:10104800203463346F346E34663469346734223440
:101058007D340D340A3400344A34753465346734C9
:101068006F34203469346E346934633469346134DC
:101078006C3469347A34613464346F340D340A342E
:1010880000347B34223473347434613474347534EA
:10109800733422343A3422346C346F346134643417
:1010A800653464342234003453346934733474340A
:1010B80065346D34613420346C3469347334743479
:1010C8006F340D340A3400342C34223463346834D9
:1010D8006134723461346334743465347234223464
:1010E8003A34223400342C3422346F34623473346A
:1010F8007434613463346C34653422343A342234C1
:1011080000342C34223467346F3461346C345634F0
:1011180061346C347534653422343A3400347B34A9
:1011280022346F34623473347434613463346C340D
:101138006534733422343A3400342C34223467341E
:101148006F3461346C3454347934703465342234F7
:101158003A3400342C3422347234653473347534A0
:101168006C34743422343A342234003447344134F1
:101178004D34453420344F345634453452342134B8
:1011880000342C34223467346F3461346C342234A4
:101198003A342234003463346F346E34663469343C
:1011A80067342E342E342E3400344534733470347E
:1011B8006534723461346E3464346F3400344F34BF
:1011C800623473347434613463343A342034003410
:1011D8005434693465346D3470346F343A3420349F
:1011E8000034473441344E34413453345434453454
:1011F800213400342C342234743469346D34653429
:1012080022343A3400344F346234733474343A3408
:10121800203400346534723472346F3472340034DC
:101228006C346F34733465340034773469346E3415
:1012380000346F346B340034FF1B2A2983137F1862
:1012480083170008840A0319FF0A08007F087F39FA
:0C1258008A000408840A0319FF0A8200BF
:1012AE007908F8000800013401340134640080012B
:1012BE00840A04060319003404065E2979087806A8
:1012CE00031D6A296C2901306D29003008000A12AD
:1012DE008A1595250A128A150A128A1550250A12A0
:1012EE008A150800F30083160313981C7F298029A2
:1012FE007A297308831203139900080083120313CB
:10130E00B601B701B801B901BA010130BB00C10184
:10131E00C201C301C4018E018F0110140800831293
:10132E00031310109010101690168E018F01831655
:10133E0003130C1483120313C301C401C101C201B0
:10134E000800F60076088312031386000714871030
:10135E000A128A1529220A128A15A630F500F50BF3
:10136E00B629000008000A128A1565210A128A158C
:10137E00003A0319C329C429BA2978081F39C03E77
:10138E00840083130008F3000130F8077308080087
:10139E00F7007708831203138600071087100A12CE
:1013AE008A1529220A128A150730F6007D30F500BB
:1013BE00F50BDF29F60BDF2908007A08F30003305E
:1013CE000310F30DFF3E031DE7290310730DA03E1E
:1013DE00840083130003031DF529F629F829013033
:1013EE00F9290030080083160313071387170730F7
:1013FE009F001930990018151812981683120313AE
:10140E0098171816831603138C160B178B17F901E2
:10141E00F801080000308312031344027D300319D3
:10142E004302031C1B2A1C2A282AC301C4010130B3
:10143E00C1070318C20A0030C2074208B9004108AA
:10144E00B80008008312031307150730F4007D302F
:10145E00F300F30B302AF40B302A83120313071117
:10146E000330F4009730F300F30B3B2AF40B3B2AC6
:10147E00402A0800F3007808F400542A74081F3933
:10148E00C03E8400831300087306031D4F2A502AA2
:10149E00522A01305B2A0130F40774087906031DC5
:1014AE00592A5A2A452A0030080083120313D00005
:1014BE004C080319632A642A6C2A5008C03ECE00D9
:1014CE00003003180130CF00732A5008803ECE0042
:1014DE00003003180130CF004E08CD004D080A121F
:1014EE008A15CF210A128A1508000A128A15572169
:1014FE000A128A15F30173083C3E8400831380019F
:10150E000130F30705307302031C8E2A8F2A822ABC
:10151E0083120313981C942A952A992A18121816C6
:10152E00992A1A088C1A9C2A9D2A982A0800831236
:10153E000313CC000830CD00CE014C08F400073068
:10154E000310F40CFF3E031DA72A4E08F500750785
:10155E007404CE000310CC0D73084E02031CB82A7F
:10156E00B92ABB2A7308CE020130CD02031DC02A50
:10157E00C12AA42A4E080800D82A7508FF0074084C
:10158E0084000A128A1520210A128A150A128A1557
:10159E0079210A128A150130F4070318F50A003072
:1015AE00F507750883120313FF00740884000A12EE
:1015BE008A1520210A128A15003A031DE72AE82A05
:1015CE00C42A08002030831603132C06031DF02AAC
:1015DE00F12A0F2B20303C06031DF62AF72A0F2B7B
:1015EE0002300A128A1520240A128A158312031356
:1015FE00D7005708D60003300310D60DFF3E031D4B
:10160E00032B0310560DAC3E840001308313800073
:10161E000800272B4D08FF004C0884000A128A157B
:10162E0020210A128A150A128A15A8210A128A1571
:10163E00013083120313CC070318CD0A0030CD07F7
:10164E00831203134D08FF004C0884000A128A15FA
:10165E0020210A128A15003A031D362B372B112B27
:10166E00080083120313CC01CD01731C3F2B402BBA
:10167E00482B750883120313CC070318CD0A76087E
:10168E00CD0701300310F50DF60DFF3E031D492B5E
:10169E0001300310F40CF30CFF3E031D502B7308A6
:1016AE007404031D5B2B5C2B3C2B831203134D0820
:1016BE00F4004C08F30008008312031333080319D7
:1016CE00692B6A2B742B340803196E2B6F2B742B1A
:1016DE003508031D732B742B762B00308E2B31089F
:1016EE00320403197B2B7C2B742B273032021030E3
:1016FE0003193102031C842B852B862B742B02308D
:10170E003002031C8B2B8C2B8D2B742B013008007D
:10171E00831203138C1E942B952BA42B981C982BA1
:10172E00992B9B2B1812181679081F39C03E84006E
:10173E001A08831380000130F9070C1CA72BA82B65
:10174E00B42B0C100130C3070318C40A0030C407B1
:10175E000A128A1511220A128A1572088A00710855
:10176E008400700E8300FE0E7E0E0900F5017508D2
:10177E00203EF30000300318013EF400730884008D
:10178E008317741C831380017508283EF300003004
:10179E000318013EF400730884008317741C83132E
:1017AE0080010130F50708307502031CDF2BE02B9A
:1017BE00BE2B013083120313B0000A30B10000308B
:1017CE00B200B301B401B5010800831603138601FC
:1017DE00071087100711413083120313CD00ED302F
:1017EE00CC00CC0BF82BCD0BF82BFD2B38300A127E
:1017FE008A15CF210A128A150C300A128A15CF21AA
:10180E000A128A1501300A128A15CF210A128A1578
:10181E0006300A128A15CF210A128A150330831256
:10182E000313CD009730CC00CC0B1B2CCD0B1B2CF7
:10183E000800F700831203130108C807FB30CE001F
:10184E000030CF004808D400D5015408F3005508E5
:10185E00F4000D30F5000030F6000A128A15382318
:10186E000A128A157308113E83120313D0007408EE
:10187E000318013E003ED1000A128A156D260A1287
:10188E008A15831203134E08C8007708F300480820
:10189E000A128A159E220A128A1508007308740409
:1018AE0003195A2C5B2C882C0130F700672C013061
:1018BE000310F30DF40DFF3E031D5F2C0130F707EF
:1018CE00F41F6A2C6B2C5E2C74087602031D712C8F
:1018DE0073087502031C742C752C7B2C7308F5028F
:1018EE007408031CF603F60201300310F40CF30C1B
:1018FE00FF3E031D7C2C0130F702031D872C882C24
:10190E006B2C7608F4007508F3000800F4010A1237
:10191E008A15BA210A128A15F500203075060319A8
:10192E00992C9A2C8E2C2C30750603199F2CA02CDA
:10193E008E2CAF2C74083C3E8400750883138000F7
:10194E000130F4070A128A15BA210A128A15F50017
:10195E0030307502031CB42CB52CC12C3A307502F4
:10196E000318BA2CBB2CC12C04307402031CC02CDF
:10197E00C12CA12C74083C3E840083138001740892
:10198E00080083120313CD01CE01730874040319EA
:10199E00D12CD22C072D0130CC00DE2C01300310BF
:1019AE00F30DF40DFF3E031DD62C0130CC07F41FB2
:1019BE00E12CE22CD52C01300310CD0DCE0DFF3EC7
:1019CE00031DE32C74087602031DEF2C73087502B9
:1019DE00031CF22CF32CFA2C7308F5027408031C6A
:1019EE00F603F6024D1401300310F40CF30CFF3E17
:1019FE00031DFB2C0130CC02031D062D072DE22CFE
:101A0E004E08F4004D08F30008000A30F3000030D1
:101A1E00F400831203134908D400D5015408F500CD
:101A2E005508F6000A128A15C6260A128A15730878
:101A3E00303E83120313D6000A30CE000030CF00A2
:101A4E004908D400D5015408D0005508D1000A1217
:101A5E008A156D260A128A15831203134E08303E1C
:101A6E00D700CC010E300A128A155C220A128A1592
:101A7E008312031356080A128A15A8210A128A1510
:101A8E008312031357080A128A15A8210A128A15FF
:101A9E00080048300A128A15CF210A128A15203002
:101AAE0083120313CC00CC0B5A2D000083120313A8
:101ABE00CE014E08283ECC0000300318013ECD006A
:101ACE004C08840083174D1C831300080A128A15D4
:101ADE00A8210A128A150F3083120313CC00CC0BE7
:101AEE00762D792D013083120313CE0708304E0266
:101AFE00031C822D832D602D80300A128A15CF2172
:101B0E000A128A15203083120313CC00CC0B8D2DB4
:101B1E000000013083120313B400080040300A1293
:101B2E008A15CF210A128A15203083120313CC0096
:101B3E00CC0B9F2D000083120313CE014E08203EC6
:101B4E00CC0000300318013ECD004C0884008317F2
:101B5E004D1C831300080A128A15A8210A128A1531
:101B6E000F3083120313CC00CC0BBB2DBE2D0130D6
:101B7E0083120313CE0708304E02031CC72DC82D47
:101B8E00A52D80300A128A15CF210A128A1520300F
:101B9E0083120313CC00CC0BD22D00000130831224
:101BAE000313B3000800F401F30174088312031346
:101BBE00CC0004300310CC0DFF3E031DE12DA130EF
:101BCE004C07CD0073084D07CE004E0884008313DA
:101BDE000008CF007408D00004300310D00DFF3E73
:101BEE00031DF42DA0305007D10073085107D20009
:101BFE00520884004F0880000130F3070C30730246
:101C0E00031C0A2E0B2EDC2D7408CC00033003109F
:101C1E00CC0DFF3E031D0E2E03104C0DAC3E84006A
:101C2E00203080000130F40702307402031C202E95
:101C3E00212EDB2D080083120313D400D501D6010B
:101C4E00D701592E5608CD005508CC000310CC0DE7
:101C5E00CD0D5608CF005508CE000310CE0DCF0D7A
:101C6E000310CE0DCF0D0310CE0DCF0D57083C3EF9
:101C7E00840000084E07D0004F0803184F0AD10009
:101C8E004C085007D2004D0803184D0A5107D300D7
:101C9E005208D03ED50053080318013EFF3ED60031
:101CAE000130D7075408570203185E2E5F2E682E98
:101CBE0057083C3E840083130008031D672E682ED0
:101CCE00292E5608F4005508F3000800831203135A
:101CDE00D301D11F732E742E7B2ED009D109D00AB9
:101CEE000319D10A0130D300CF1F7E2E7F2E842EF2
:101CFE00CE09CF09CE0A0319CF0A4E084F04031995
:101D0E00892E8A2EB72E0130D200962E0130031066
:101D1E00CE0DCF0DFF3E031D8E2E0130D207CF1FED
:101D2E00992E9A2E8D2E4F085102031DA02E4E086D
:101D3E005002031CA32EA42EAA2E4E08D0024F082A
:101D4E00031CD103D10201300310CF0CCE0CFF3E89
:101D5E00031DAB2E0130D202031DB62EB72E9A2EC6
:101D6E0053080319BB2EBC2EC12ED009D109D00A9F
:101D7E000319D10A5108CF005008CE000800831273
:101D8E000313CD01F41FCC2ECD2ED42EF309F4095E
:101D9E00F30A0319F40A0130CD00F61FD72ED82E00
:101DAE00DF2EF509F609F50A0319F60A0130CD06FC
:101DBE00CE01CF01730874040319E62EE72E1C2FF3
:101DCE000130CC00F32E01300310F30DF40DFF3E65
:101DDE00031DEB2E0130CC07F41FF62EF72EEA2E44
:101DEE0001300310CE0DCF0DFF3E031DF82E7408EB
:101DFE007602031D042F73087502031C072F082F8C
:101E0E000F2F7308F5027408031CF603F6024E1426
:101E1E0001300310F40CF30CFF3E031D102F0130A4
:101E2E00CC02031D1B2F1C2FF72E4D080319202F3C
:101E3E00212F262FCE09CF09CE0A0319CF0A4F081C
:101E4E00F4004E08F300080083120313081C302F11
:101E5E00312F5F2F7A080319352F362F5F2F6C081D
:101E6E00F30003300310F30DFF3E031D392F031053
:101E7E00730DA03E84002030831380007A08EC009E
:101E8E00FA017A08F30003300310F30DFF3E031D31
:101E9E004B2F0310730DA03E840080011A30F40006
:101EAE00F830F300F30B592FF40B592F0000912F3C
:101EBE00881C622F632F912F7A030319672F682FC7
:101ECE00912F6C08F30003300310F30DFF3E031D3A
:101EDE006B2F0310730DA03E8400203083138000FF
:101EEE007A08EC000130FA007A08F3000330031090
:101EFE00F30DFF3E031D7E2F0310730DA03E8400D5
:101F0E0080011A30F400F830F300F30B8C2FF40B31
:101F1E008C2F0000080001300A128A15CF210A12F8
:101F2E008A15033083120313D9009730D800D80BCB
:101F3E009E2FD90B9E2F0A128A156E210A128A1510
:101F4E0083120313DB01DC015B08D800043003109D
:101F5E00D80DFF3E031DAE2FA0305807D9005C08E8
:101F6E005907DA005A0884002030831380000130AC
:101F7E00DC0710305C02031CC52FC62FAB2F0130BF
:101F8E00DB0702305B02031CCD2FCE2FAA2F0130B0
:101F9E00FA000130EC000130EB00EA01C9017A08C9
:101FAE00D80003300310D80DFF3E031DD92F0310A8
:101FBE00580DA03E840080010A128A11C7270A120A
:101FCE008A150A128A150C250A128A150A128A1502
:101FDE0085210A128A15013083120313C70030308F
:101FEE00F4008830F5000A128A15C3220A128A15E7
:021FFE000800D9
:02400E00313F40
:00000001FF
