:060000000A128A110E280D
:10000800FE00030EF2000408F3000A08F4000A12C6
:100018008A15B32C0A128A1111280A128A15D721B7
:100028000A128A11ED000A128A15D8210A128A11B9
:10003800EE000A128A15D9210A128A11EF000A1253
:100048008A15D2210A128A11F7000A128A15D321B9
:100058000A128A11F8008313A0308400BA300A12F9
:100068008A15DA210A128A112030840053300A12C4
:100078008A15DA210A128A11F501F60183010A129A
:100088008A11552B313083120313D4000A128A15B2
:10009800ED220A128A11831203134508E800440866
:1000A800E700E90167086804031D5B285C288C28C1
:1000B8003030E3000130E907D8286908633E84003E
:1000C8000A30D3000030D4006808D6006708D5008D
:1000D8000A128A153D240A128A118312031353083F
:1000E800303E831380000130E9070A30D300003026
:1000F800D4006808D6006708D5000A128A15322588
:100108000A128A11831203135408E8005308E700FF
:1001180067086804031D912892286128EA01BB2812
:10012800831203136A08633E840083130008DE0009
:100138006330DB006A08DB0269085B07DC005C08E7
:10014800FF3E84000008DD006A08633E84005D0805
:1001580080006330DB006A08DB0269085B07DC00AB
:100168005C08FF3E84005E0880000130EA07023028
:10017800D3000030D4006908DB00DC015B08D5003F
:100188005C08D6000A128A1516270A128A118312E9
:1001980003135408803A803C031DD42853086A028C
:1001A800031CD728D828942883120313EA01EA28C5
:1001B8006A08633E8400831300080A128A15112214
:1001C8000A128A11013083120313EA0769086A02C6
:1001D800031CEF28F028DC287D30D4000A128A1589
:1001E800ED220A128A11831203134708E200460817
:1001F800E10000306202043003196102031C052982
:1002080006290D290430E1020030031CE203E20252
:1002180011290130E1000030E2006208E8006108BD
:10022800E700E90167086804031D1B291C294C29FC
:100238003030E3000130E90798296908633E8400FB
:100248000A30D3000030D4006808D6006708D5000B
:100258000A128A153D240A128A11831203135308BD
:10026800303E831380000130E9070A30D3000030A4
:10027800D4006808D6006708D5000A128A15322506
:100288000A128A11831203135408E8005308E7007E
:1002980067086804031D512952292129EA017B298D
:1002A800831203136A08633E840083130008DF0087
:1002B8006330DB006A08DB0269085B07DC005C0866
:1002C800FF3E84000008DD006A08633E84005D0884
:1002D80080006330DB006A08DB0269085B07DC002A
:1002E8005C08FF3E84005F0880000130EA070230A6
:1002F800D3000030D4006908DB00DC015B08D500BE
:100308005C08D6000A128A1516270A128A11831267
:1003180003135408803A803C031D942953086A0249
:10032800031C97299829542983120313EA01AA293F
:100338006A08633E8400831300080A128A15112292
:100348000A128A11013083120313EA0769086A0244
:10035800031CAF29B0299C293F30D4000A128A1502
:10036800ED220A128A11831203134818BC29BD29E9
:10037800C0299730E000C229A030E0006008D4000E
:100388000A128A15ED220A128A1192308312031377
:10039800D4000A128A15ED220A128A118312031355
:1003A8001010FD30C805080083120313B3017B3019
:1003B8000A128A15B2220A128A11003A0319E5298B
:1003C800E629DB290A128A157F220A128A117B3A4A
:1003D800031DEF29F029E6290A128A157F220A123D
:1003E8008A1183120313E90022306906031DFD29CF
:1003F800FE29F0290A128A157F220A128A11633A05
:10040800031D072A082AF0290A128A157F220A12D0
:100418008A115B3A031D112A122A082A8312031330
:10042800E8010A128A1577240A128A118312031323
:10043800E70067080A128A15BE250A128A11831274
:1004480003135608E4006808203EE500003003184E
:10045800013EE600650884008317661C8313640860
:1004680080000130E80708306802031C3C2A3D2A56
:10047800152A33140A128A157F220A128A11831246
:100488000313E90022306906031D4B2A4C2A3E2A31
:100498000A128A157F220A128A116F3A031D552AF9
:1004A800562A3E2A0A128A157F220A128A115B3AB4
:1004B800031D5F2A602A562A83120313E8010A12D1
:1004C8008A1577240A128A1183120313E700670832
:1004D8000A128A15BE250A128A11831203135608B6
:1004E800E4006808283EE50000300318013EE600F5
:1004F800650884008317661C831364088000013034
:10050800E80708306802031C8A2A8B2A632AB31476
:100518000A128A157F220A128A1183120313E9002C
:1005280022306906031D992A9A2A8C2A0A128A15EA
:100538007F220A128A1183120313E90067306906C1
:10054800031DA72AA82A8C2A0A128A157F220A12B2
:100558008A1183120313E9006F306906031DB52A57
:10056800B62A8C2A0A128A157F220A128A11613A3F
:10057800031DBF2AC02A8C2A0A128A157F220A1252
:100588008A113A3A031DC92ACA2AC02A0A128A15A8
:100598007F220A128A11223A031DD32AD42ACA2A90
:1005A8000A128A157F220A128A1183120313E9009C
:1005B80074306906031DE12AE22AF32AB0010A12FF
:1005C8008A157F220A128A110A128A157F220A12B4
:1005D8008A110A128A157F220A128A11052B013004
:1005E800B000E8010A128A157F220A128A11013026
:1005F80083120313E80708306802031C042B052B39
:10060800F62A0A128A157F220A128A118312031304
:10061800E90022306906031D122B132B052B0A1241
:100628008A157F220A128A1183120313E9006730A0
:100638006906031D202B212B052B0A128A157F2200
:100648000A128A1183120313E9006F306906031D29
:100658002E2B2F2B052B0A128A157F220A128A119C
:10066800613A031D382B392B052B0A128A157F2274
:100678000A128A113A3A031D422B432B392B0A12CC
:100688008A1577240A128A110A128A15BE250A12B7
:100698008A11831203135708B2005608B1003315A4
:1006A800080083160313860187010330880083122C
:1006B80003138801870186018316031381168111AC
:1006C8000730810407309F0007309C000A128A1502
:1006D80043220A128A110A128A15D2230A128A118F
:1006E8000A128A1530220A128A110A128A15A523BB
:1006F8000A128A11831203130108D100D0010B17C3
:100708008B17D60100300A128A15CF220A128A11D5
:100718006A3083120313DC000A128A150D230A12A9
:100728008A1183120313D601D60A00300A128A15D9
:10073800CF220A128A11563083120313DC000A12E0
:100748008A150D230A128A117D300A128A15B222DF
:100758000A128A11003A0319B22BB32BE72B831222
:100768000313D018B82BB92BE72B4130831203138E
:10077800EC00ED30EB00EB0BBF2BEC0BBF2BC42BCD
:100788000A128A11D8210A128A110A128A15962287
:100798000A128A11003A0319D22BD32BE72B0A121B
:1007A8008A1513260A128A110A128A11A4270A1214
:1007B8008A110A128A1568260A128A110A128A15DB
:1007C800D4210A128A1183120313D01CEC2BED2BAF
:1007D800A22C501CF02BF12BA22C013083160313F2
:1007E800BB0021030319F92BFA2B002C2E03031944
:1007F800FE2BFF2B002CBB013B08BA000A128A15FE
:10080800F0240A128A11013083120313ED074D08F0
:100818006D02031C102C112C172CED010A128A15DD
:1008280079230A128A110A128A1576250A128A1160
:10083800831603133A080319222C232C772C0D3026
:1008480083120313D3006F080A128A156A220A1248
:100858008A11A03E840083130003031D342C352C19
:100868006D2CFE3083120313D005FE30C8050A1222
:100878008A11B1240A128A110A128A1146200A1210
:100888008A11FD3083120313D005D60100300A12F5
:100898008A15CF220A128A116A3083120313DC00E8
:1008A8000A128A150D230A128A1183120313D6011C
:1008B800D60A00300A128A15CF220A128A11563037
:1008C80083120313DC000A128A150D230A128A11F7
:1008D800A82B013083120313D2070130C407031871
:1008E800C50A0030C5070A128A157B270A128A1121
:1008F80083120313501C812C822CA22C0D30D300A0
:100908006F080A128A156A220A128A11A03E840008
:10091800831380010A128A1506240A128A110A1200
:100928008A11EB260A128A11823083120313EC0013
:10093800DD30EB00EB0B9E2CEC0B9E2C073083126A
:100948000313EC007C30EB00EB0BA82CEC0BA82C71
:100958000000A82B0A128A110E2801300A128A15E3
:1009680056220A128A11033083120313DE009730CD
:10097800DD00DD0BBD2CDE0BBD2C83120313D6016D
:1009880003300A128A15CF220A128A1160308312A4
:100998000313DC000A128A150D230A128A11831226
:1009A8000313D601D60A00300A128A15CF220A127A
:1009B8008A11A73083120313DC000A128A150D234B
:1009C8000A128A1100308312031345020A300319F0
:1009D8004402031CF02CF12C072D0A30D300003000
:1009E800D4004508D6004408D5000A128A153225D5
:1009F8000A128A11831203135308303E0A128A1509
:100A0800F6210A128A110A3083120313D300003028
:100A1800D4004508D6004408D5000A128A153D249A
:100A28000A128A11831203135308303E0A128A15D8
:100A3800F6210A128A119C3083120313DC000A1271
:100A48008A150D230A128A110030831203134702F4
:100A58000A3003194602031C322D332D492D0A3062
:100A6800D3000030D4004708D6004608D5000A1243
:100A78008A1532250A128A11831203135308303E4D
:100A88000A128A15F6210A128A110A3083120313F0
:100A9800D3000030D4004708D6004608D5000A1213
:100AA8008A153D240A128A11831203135308303E13
:100AB8000A128A15F6210A128A1173300A128A1547
:100AC800F6210A128A11831203133003031D6D2DB8
:100AD8006E2DAE2DA430DC000A128A150D230A12E1
:100AE8008A1100308312031332020A3003193102CB
:100AF800031C7F2D802D962D0A30D3000030D400A2
:100B08003208D6003108D5000A128A1532250A1291
:100B18008A11831203135308303E0A128A15F621EC
:100B28000A128A110A3083120313D3000030D4004A
:100B38003208D6003108D5000A128A153D240A1257
:100B48008A11831203135308303E0A128A15F621BC
:100B58000A128A1183120313E0010230831203136D
:100B6800DF000430DE00B930DD00DD0BB92DDE0B0F
:100B7800B92DDF0BB92DC02D08300A128A1556225F
:100B88000A128A11C33083120313DE00CC30DD0051
:100B9800DD0BCC2DDE0BCC2D00000C300A128A1593
:100BA80056220A128A11013083120313E007053016
:100BB8006002031CE02DE12DB12D0B3083120313CD
:100BC800DF002630DE005D30DD00DD0BE92DDE0BB9
:100BD800E92DDF0BE92D080001300A128A1556228B
:100BE8000A128A11033083120313DE009730DD00E6
:100BF800DD0BFC2DDE0BFC2D83120313D601043014
:100C08000A128A15CF220A128A117430831203132A
:100C1800DC000A128A150D230A128A1183120313A3
:100C2800D601D60A00300A128A15CF220A128A1172
:100C3800863083120313DC000A128A150D230A1268
:100C48008A1100308312031345020A300319440243
:100C5800031C2F2E302E462E0A30D3000030D4002D
:100C68004508D6004408D5000A128A1532250A120A
:100C78008A11831203135308303E0A128A15F6218B
:100C88000A128A110A3083120313D3000030D400E9
:100C98004508D6004408D5000A128A153D240A12D0
:100CA8008A11831203135308303E0A128A15F6215B
:100CB8000A128A119C3083120313DC000A128A1567
:100CC8000D230A128A1100308312031347020A30D7
:100CD80003194602031C712E722E882E0A30D30087
:100CE8000030D4004708D6004608D5000A128A15F5
:100CF80032250A128A11831203135308303E0A124E
:100D08008A15F6210A128A110A3083120313D300B6
:100D18000030D4004708D6004608D5000A128A15C4
:100D28003D240A128A11831203135308303E0A1213
:100D38008A15F6210A128A1173300A128A15F621C9
:100D48000A128A1183120313E0010330831203137A
:100D5800DF008A30DE005530DD00DD0BB12EDE0B02
:100D6800B12EDF0BB12E08300A128A1556220A124C
:100D78008A11023083120313DF008630DE009830B8
:100D8800DD00DD0BC52EDE0BC52EDF0BC52E0000EA
:100D98000C300A128A1556220A128A11013083125F
:100DA8000313E00703306002031CDB2EDC2EA92EA0
:100DB8000B3083120313DF002630DE005D30DD00C8
:100DC800DD0BE42EDE0BE42EDF0BE42E080083128D
:100DD80003133003031DF12EF22E462FD6010E30D9
:100DE8000A128A15CF220A128A110A3083120313B3
:100DF800D3000030D4005208DC00DD015C08D500C7
:100E08005D08D6000A128A1516270A128A1183125B
:100E180003135308303E0A128A15F6210A128A1162
:100E28000A3083120313D3000030D4005208DC00C8
:100E3800DD015C08D5005D08D6000A128A15BD26BA
:100E48000A128A11831203135308303E0A128A15B4
:100E5800F6210A128A1183120313D601D60A0E301C
:100E68000A128A15CF220A128A1120300A128A150C
:100E7800F6210A128A1120300A128A15F6210A125E
:100E88008A11A32FD6010E300A128A15CF220A1210
:100E98008A1100308312031347020A3003194602ED
:100EA800031C572F582F6F2F0A30D3000030D4005F
:100EB8004708D6004608D5000A128A1532250A12B4
:100EC8008A11831203135308303E0A128A15F62139
:100ED8000A128A11752F20300A128A15F6210A1271
:100EE8008A110A3083120313D3000030D400470854
:100EF800D6004608D5000A128A153D240A128A111E
:100F0800831203135308303E0A128A15F6210A1277
:100F18008A1183120313D601D60A0E300A128A15D3
:100F2800CF220A128A1120300A128A15F6210A12D3
:100F38008A1120300A128A15F6210A128A1108002D
:100F4800013083120313D4000A128A15ED220A1203
:100F58008A11831203133318B22FB32FB62F8C3094
:100F6800D500B82FAA30D5005508D4000A128A1522
:100F7800ED220A128A11223083120313D4000A12B6
:100F88008A15ED220A128A1183120313B318CD2F82
:100F9800CE2FD12F8C30D600D32FAA30D6005608AA
:100FA800D4000A128A15ED220A128A114B308312D4
:100FB8000313D4000A128A15ED220A128A11831229
:100FC80003133319E82FE92FEC2F8C30D700EE2FBD
:100FD800AA30D7005708D4000A128A15ED220A123F
:100FE8008A11923083120313D4000A128A15ED2253
:060FF8000A128A11080034
:1010000008308A000408840A820700347B342234C2
:1010100073347434613474347534733422343A3430
:1010200022346C346F346134643465346434223473
:101030002C34223463346834613472346134633460
:1010400074346534723422343A3422340034223415
:101050002C3422346F346234733474346134633426
:101060006C34653422343A34223400347B342234F4
:101070006F34623473347434613463346C34653483
:10108000733422343A3400342C34223472346534CC
:10109000733475346C34743422343A34223400346A
:1010A00022342C34223467346F3461346C3422346B
:1010B0003A342234003463346F346E346634693425
:1010C00067342E342E342E340034473441344D34BA
:1010D000453420344F34563445345234003445348A
:1010E000733470346534723461346E3464346F3404
:1010F000003459344F3455342034573449344E3445
:10110000213400342C342234743469346D34653421
:1011100022343A3400344F346234733474343A3401
:1011200000346534723472346F34723400342234D3
:101130007D340D340A3400346C346F3473346534C8
:101140000034203454343A340034773469346E3403
:10115000003420342F3400344F343A3400346F34A8
:041160006B340034B8
:1013A400053402347608F5000800013401340134B0
:1013B40064008001840A0406031900340406DB294E
:1013C40076087506031DE729E9290130EA2900306A
:1013D400080004300A128A1552230A128A15023EA2
:1013E40083120313CD00080083120313DB005B0890
:1013F4008600071487100A128A1503220A128A1516
:101404000800831203130715203083120313D3003B
:10141400D30B0A2A00008312031307110800831256
:101424000313D30083160313981C192A1A2A142AA7
:101434008312031353089900080083120313C40191
:10144400C501C601C7010230C800CE01CF010B306F
:101454008F00DC308E000C1010140800831203136C
:1014640010109010101690160B308F00DC308E0088
:101474000C10831603130C1483120313CF01CE0133
:1014840008008316031307138717193099001815DA
:101494001812981683120313981718168316031339
:1014A4008C160B178B17080083120313D5005508ED
:1014B4008600071087100A128A1503220A128A1559
:1014C4000F3083120313D400D40B662A692A080050
:1014D40083120313D500D401551C712A722A742A6D
:1014E4005308D4070310D30D0310D50C5508031D5E
:1014F4007C2A7D2A6E2A540808000A128A15E221E1
:101504000A128A15003A0319882A892A7F2A75083B
:101514000F39343E84008313000883120313D3006D
:101524000130F5075308080083120313D301073071
:101534003306031D9E2A9F2AB02A31083204031958
:10154400A42AA52AB02A03303202E8300319310252
:101554000318AD2AAE2AB02A0130D300530808007C
:1015640083120313D3007508D400C72A54080F3913
:10157400343E8400831300085306031DC22AC32A81
:10158400C52A0130CE2A0130D40754087606031D3B
:10159400CC2ACD2AB82A0030080083120313D900BC
:1015A40056080319D62AD72ADF2A5908C03ED7007D
:1015B400003003180130D800E62A5908803ED700CD
:1015C400003003180130D80057080A128A15562231
:1015D4000A128A150800FE2A540884000A128A1581
:1015E40000200A128A150A128A1511220A128A1573
:1015F400013083120313D4078312031354088400A5
:101604000A128A1500200A128A15003A031D0B2BB0
:101614000C2BEE2A08001E2B5C0884000A128A1583
:1016240000200A128A150A128A15F6210A128A154E
:10163400013083120313DC07831203135C08840054
:101644000A128A1500200A128A15003A031D2B2B50
:101654002C2B0E2B080083120313D6000830D7005E
:10166400D8015608D40007300310D40CFF3E031DE4
:10167400362B5808D50055075404D8000310D60D4E
:1016840053085802031C472B482B4A2B5308D802F3
:101694000130D702031D4F2B502B332B5808080061
:1016A40083120313DA000108D1074E08D90002306F
:1016B4000310D90DFF3E031D5A2B0310590DD106FB
:1016C4004F08D1074930D30051080A128A156A22FB
:1016D4000A128A152F3E83120313D1005A08D3002D
:1016E40051080A128A152D230A128A15080020307F
:1016F400831603132C06031D802B812BA42B20306F
:101704003906031D862B872BA42B64300A128A15F5
:1017140052230A128A1583120313DB0032305B0250
:101724000318952B962B9B2B013083160313AC00C7
:101734009F2B013083160313B9000A128A15EB217B
:101744000A128A15080083120313D5015508203E96
:10175400D30000300318013ED400530884008317DB
:10176400541C831380015508283ED300003003180D
:10177400013ED400530884008317541C8313800152
:101784000130D50708305502031CC92BCA2BA82BDE
:101794000130B0000A30B1000030B200B3010800DB
:1017A4008316031386010710871007114130831233
:1017B4000313D700ED30D600D60BDE2BD70BDE2B70
:1017C400E32B38300A128A1556220A128A150C3075
:1017D4000A128A1556220A128A1501300A128A152B
:1017E40056220A128A1506300A128A1556220A123D
:1017F4008A15033083120313D7009730D600D60B13
:10180400012CD70B012C080083120313DE015E08A0
:10181400D60000300A128A15CF220A128A158312C2
:101824000313DD010D30D3005E080A128A156A2203
:101834000A128A15A03E831203135D07DC005C08BC
:101844008400831300080A128A15F6210A128A15E5
:10185400013083120313DD070D305D02031C332CAA
:10186400342C142C0130DE0702305E02031C3B2CA6
:101874003C2C092C08008312031353085404031945
:10188400442C452C722C0130D700512C013003100C
:10189400D30DD40DFF3E031D492C0130D707D41FAF
:1018A400542C552C482C54085602031D5B2C530809
:1018B4005502031C5E2C5F2C652C5308D50254087A
:1018C400031CD603D60201300310D40CD30CFF3E04
:1018D400031D662C0130D702031D712C722C552C6C
:1018E4005608D4005508D300080083120313D4010A
:1018F4000A128A157F220A128A1583120313D5004D
:10190400203055060319872C882C7A2C2C30550648
:1019140003198D2C8E2C7A2C9F2C5408493E84005C
:101924005508831380000130D4070A128A157F22D8
:101934000A128A1583120313D50030305502031C92
:10194400A42CA52CB12C3A3055020318AA2CAB2C8C
:10195400B12C03305402031CB02CB12C8F2C54082E
:101964000800831203138C1EB82CB92CC82C981CA5
:10197400BC2CBD2CBF2C1812181676080F39343E17
:1019840084001A08831380000130F6070C1CCB2C4A
:10199400CC2CE72C0C100B308F00DC308E00C81CD4
:1019A400D42CD52CE72C0130CF0702304F02031C76
:1019B400DC2CDD2CE72CCF010130CE074E08F000E3
:1019C400F1017008C6007108C70074088A00730822
:1019D4008400720E8300FE0E7E0E09008312031330
:1019E400081CF52CF62C1A2D6F080319FA2CFB2C65
:1019F4001A2D0D30D3006E080A128A156A220A12B3
:101A04008A15A03E840020308313800083120313C0
:101A1400EF01EE0183160313A001143083120313A4
:101A2400D7007930D600D60B152DD70B152D312DB7
:101A3400881C1D2D1E2D312D6F08031D222D232DD5
:101A4400312D203083160313A000013083120313B9
:101A5400EF000130EE0083160313AD010F2D0800D3
:101A640083120313D801D9015308540403193B2DDD
:101A74003C2D712D0130D700482D01300310D30DBA
:101A8400D40DFF3E031D402D0130D707D41F4B2D2D
:101A94004C2D3F2D01300310D80DD90DFF3E031DF1
:101AA4004D2D54085602031D592D53085502031C8D
:101AB4005C2D5D2D642D5308D5025408031CD603F8
:101AC400D602581401300310D40CD30CFF3E031D6E
:101AD400652D0130D702031D702D712D4C2D590831
:101AE400D4005808D300080083120313DA01D90183
:101AF4000D30D3005A080A128A156A220A128A156E
:101B0400A13E831203135907D60056088400831399
:101B14000008D7000D30D3005A080A128A156A2229
:101B24000A128A15A03E831203135907D8005808D5
:101B340084005708831380000130D9070C30590200
:101B4400031CA52DA62D7A2D0D30D3005A080A1298
:101B54008A156A220A128A15AC3E84002030831347
:101B64008000013083120313DA0702305A02031C87
:101B7400BC2DBD2D792D080083120313E000E10173
:101B8400E201E301F52D6208D9006108D8000310D1
:101B9400D80DD90D6208DB006108DA000310DA0DF4
:101BA400DB0D0310DA0DDB0D0310DA0DDB0D63081A
:101BB400493E840000085A07DC005B0803185B0AEE
:101BC400DD0058085C07DE0059080318590A5D0750
:101BD400DF005E08D03EE1005F080318013EFF3ECF
:101BE400E2000130E307600863020318FA2DFB2DBD
:101BF4000E2E6308493E8400303083130002031C18
:101C0400042E052E0E2E6308493E84003A3000024D
:101C1400031C0D2E0E2EC52D6208D7006108D600B8
:101C2400080040300A128A1556220A128A158312B5
:101C34000313DE015E08203EDC0000300318013E81
:101C4400DD005C08840083175D1C831300080A12FE
:101C54008A15F6210A128A15013083120313DE074E
:101C640008305E02031C372E382E1C2E48300A1210
:101C74008A1556220A128A1583120313DE015E089E
:101C8400283EDC0000300318013EDD005C088400BF
:101C940083175D1C831300080A128A15F6210A12A1
:101CA4008A15013083120313DE0708305E02031C19
:101CB4005C2E5D2E412E80300A128A1556220A129D
:101CC4008A15033083120313B304080001300A1287
:101CD4008A1556220A128A15033083120313E00070
:101CE4009730DF00DF0B742EE00B742E0A128A1576
:101CF40013260A128A1583120313E101E2010D303F
:101D0400D30061080A128A156A220A128A15A03EB3
:101D1400831203136207DF005F08840020308313FB
:101D240080000130E2070D306202031C9A2E9B2EC4
:101D3400812E0130E10702306102031CA22EA32E82
:101D4400802E0130EF000130EE00ED01D2010108D8
:101D5400D1070A128A15EB210A128A158316031376
:101D6400AD01033083120313D0040A128A151F2213
:101D74000A128A15080083120313D801D61FC32E32
:101D8400C42ECB2ED509D609D50A0319D60A01309B
:101D9400D800D41FCE2ECF2ED42ED309D409D30AE3
:101DA4000319D40A530854040319D92EDA2E072F21
:101DB4000130D700E62E01300310D30DD40DFF3EC1
:101DC400031DDE2E0130D707D41FE92EEA2EDD2EA7
:101DD40054085602031DF02E53085502031CF32E1B
:101DE400F42EFA2E5308D5025408031CD603D60247
:101DF40001300310D40CD30CFF3E031DFB2E013025
:101E0400D702031D062F072FEA2E580803190B2F9C
:101E14000C2F112FD509D609D50A0319D60A56084D
:101E2400D4005508D300080083120313D801D41F2B
:101E34001C2F1D2F242FD309D409D30A0319D40A24
:101E44000130D800D61F272F282F2F2FD509D609C8
:101E5400D50A0319D60A0130D806D901DA01530884
:101E640054040319362F372F6C2F0130D700432F1A
:101E740001300310D30DD40DFF3E031D3B2F013061
:101E8400D707D41F462F472F3A2F01300310D90DFF
:101E9400DA0DFF3E031D482F54085602031D542F2C
:101EA40053085502031C572F582F5F2F5308D50290
:101EB4005408031CD603D602591401300310D40C61
:101EC400D30CFF3E031D602F0130D702031D6B2F7F
:101ED4006C2F472F58080319702F712F762FD909AB
:101EE400DA09D90A0319DA0A5A08D4005908D300BE
:101EF4000800831203133003031D812F822FC12F87
:101F040032084502031D882F31084402031C8B2F1D
:101F14008C2FFF2FFE30D00548140A128A11F025A9
:101F24000A128A150A128A1146200A128A15FD30ED
:101F340083120313D005D60100300A128A15CF226A
:101F44000A128A156A3083120313DC000A128A15F6
:101F54000D230A128A1583120313D601D60A003000
:101F64000A128A15CF220A128A15563083120313D5
:101F7400DC000A128A150D230A128A15FF2F320873
:101F84004702031DC72F31084602031CCA2FCB2F5B
:101F9400FF2FFE30D00548140A128A11F0250A12C8
:101FA4008A150A128A1146200A128A15FD308312F4
:101FB4000313D005D60100300A128A15CF220A1263
:101FC4008A156A3083120313DC000A128A150D2362
:101FD4000A128A1583120313D601D60A00300A1294
:101FE4008A15CF220A128A15563083120313DC0095
:0C1FF4000A128A150D230A128A15080033
:02400E00313F40
:00000001FF
