:060000000A128A110E280D
:10000800FE00030EF0000408F1000A08F2000A12CC
:100018008A11512A0A128A111128F901FA01831347
:100028002030840050300A128A114B230A128A1198
:1000380083010A128A1149290A128A11EF220A1227
:100048008A117B3A031D29282A2820280A128A1196
:10005800EF220A128A1183120313D50022305506A3
:10006800031D372838282A280A128A11EF220A1273
:100078008A11633A031D412842282A280A128A1144
:10008800EF220A128A115B3A031D4B284C2842289A
:1000980083120313D401D3010A128A11EF220A1220
:1000A8008A1183120313D5002030550603195D28E1
:1000B8005E2850282C3055060319632864285028D8
:1000C80075285308503E840055088313800001307A
:1000D800D3070A128A11EF220A128A118312031314
:1000E800D50030305502031C7A287B2881283A3005
:1000F8005502031C8028812865285308503E840037
:10010800831380015408483E84008001D301A92844
:100118005308503E84000008F6000A30F3005408E3
:10012800483E840000080A128A1104230A128A1120
:100138007607D03EF700831203135408483E840024
:100148007708831380000130D3075308503E84009A
:100158000008031DB028B1288C280130D4070830C6
:100168005402031CB828B9284F280A128A11EF2212
:100178000A128A1183120313D50022305506031D73
:10018800C628C728B9280A128A11EF220A128A112A
:100198006F3A031DD028D128B9280A128A11EF22F4
:1001A8000A128A115B3A031DDA28DB28D128831248
:1001B8000313D401D3010A128A11EF220A128A11F9
:1001C80083120313D500203055060319EC28ED28B7
:1001D800DF282C3055060319F228F328DF280429D4
:1001E8005308503E84005508831380000130D3071C
:1001F8000A128A11EF220A128A1183120313D500F8
:1002080030305502031C09290A2910293A305502B1
:10021800031C0F291029F4285308503E8400831327
:1002280080015408403E84008001D30138295308D6
:10023800503E84000008F6000A30F3005408403E9F
:10024800840000080A128A1104230A128A11760708
:10025800D03EF700831203135408403E8400770809
:10026800831380000130D3075308503E84000008F0
:10027800031D3F2940291B290130D40708305402A7
:10028800031C47294829DE2808000A128A11C222BD
:100298000A128A110A128A11BD210A128A118312BE
:1002A8000313D8015808483E840083138001580876
:1002B800403E840080010130D80708305802031CF2
:1002C8006629672956291330F4000A128A116F2209
:1002D8000A128A1101300A128A11D9220A128A11C5
:1002E800033083120313D7009730D600D60B7A2930
:1002F800D70B7A297D300A128A11A7220A128A118D
:10030800003A0319882989297E290A128A1120208E
:100318000A128A114830F70000300A128A11F321B4
:100328000A128A114030F70001300A128A11F321AB
:100338000A128A11F701F80100300A128A118B2279
:100348000A128A110230F700F801F80A00300A127E
:100358008A118B220A128A110130F4000A128A11BA
:100368006F220A128A117A08F9007E290A128A1164
:100378000E288316031386010710871007118312AE
:1003880003130710871007111A30F800F830F70028
:10039800F70BCC29F80BCC29000038300A128A1147
:1003A800D9220A128A110C300A128A11D9220A1289
:1003B8008A1106300A128A11D9220A128A110130CA
:1003C8000A128A11D9220A128A110330F8009730CA
:1003D800F700F70BED29F80BED29F2290800831235
:1003E8000313D00050080739F80002300310F80D45
:1003F800FF3E031DFA290310780D4038D10051083B
:100408000A128A11D9220A128A1183120313D201FD
:1004180052087707F80078088400831300080A1246
:100428008A1117230A128A11013083120313D20783
:1004380008305202031C212A222A0C2A80300A1270
:100448008A11D9220A128A11080002308A00040887
:10045800840A820700347B34223473347434613460
:1004680074347534733422343A3422346F346B3430
:1004780022347D340D340A340034533469347334EF
:10048800743465346D34613420346C3469347334B5
:1004980074346F340D340A340034831203138C1E01
:1004A800562A572A662A981C5A2A5B2A5D2A181245
:1004B80018167A081F39203E84001A088313800012
:1004C8000130FA0772088A0071088400700E8300F0
:1004D800FE0E7E0E09007E2A740884000A128A1114
:1004E80029220A128A110A128A1136230A128A113B
:1004F8000130F407740884000A128A1129220A12AA
:100508008A11003A031D892A8A2A702A0800831250
:100518000313D0005008031D922A932A972A7708BC
:10052800803ED1009A2A7708C03ED10051080A12AD
:100538008A11D9220A128A1178080A128A111723F5
:100548000A128A110800F3007908F400BA2A74081C
:100558001F39203E8400831300087306031DB52A43
:10056800B62AB82A0130C12A0130F40774087A067D
:10057800031DBF2AC02AAB2A0030080083160313C4
:100588000713871707309F0019309900181518129C
:1005980098168312031398171816831603138C16CC
:1005A8000B178B17FA01F9010800F60083120313E1
:1005B80007108710760886000A128A1129230A1262
:1005C8008A110330F5009730F400F40BE92AF50B93
:1005D800E92AEE2A08000A128A1142230A128A110D
:1005E800003A0319F82AF92AEF2A79081F39203E18
:1005F800840083130008F3000130F907730808002A
:10060800F500F401751C092B0A2B0C2B7308F40751
:100618000310F30D0310F50C7508031D142B152B8F
:10062800062B74080800F5008312031307148710BB
:10063800750886000A128A1129230A128A111030B5
:10064800F400F40B252B0000080083120313071590
:1006580000008312031307111030F300F30B322B41
:1006680000000800F30083160313981C3C2B3D2B55
:10067800372B730883120313990008007A08790648
:10068800031D472B492B01304A2B0030080064001A
:0E0698008001840A04060319003404064C2B6A
:02400E00313F40
:00000001FF
