:060000000A128A110E280D
:10000800FE00030EF2000408F3000A08F4000A12C6
:100018008A1516290A128A1111280A168A112C2201
:100028000A128A11ED000A168A112D220A128A1163
:10003800EE000A168A112E220A128A11EF000A16F9
:100048008A1127220A128A11F7000A168A11282211
:100058000A128A11F8008313A0308400BA300A16F5
:100068008A112F220A128A112030840053300A166E
:100078008A112F220A128A11F501F60183010A1248
:100088008A114628831603138601870103308800E6
:1000980085010911831203138901850188018701EC
:1000A80086018316031381168111073081040730F6
:1000B8009F0007309C000A168A1198220A128A119A
:1000C8000A168A1125270A128A110A168A11852208
:1000D8000A128A110A168A1166240A128A118312D0
:1000E80003130108D100D0010B178B1701300A1236
:1000F8008A11EC270A128A11033083160313BB00F6
:100108009730BA00BA0B8628BB0B862883120313D4
:10011800D60100300A168A1110230A128A116A3091
:1001280083120313DC000A168A114E230A128A115D
:1001380083120313D601D60A00300A168A11102337
:100148000A128A11563083120313DC000A168A1128
:100158004E230A128A117D300A168A11F3220A12D6
:100168008A11003A0319B928BA28EE288312031312
:10017800D018BF28C028EE28413083160313BB00CF
:10018800ED30BA00BA0BC628BB0BC628CB280A121A
:100198008A1148230A128A110A168A11D7220A12CA
:1001A8008A11003A0319D928DA28EE280A128A1582
:1001B80076220A128A110A128A1524230A128A112F
:1001C8000A128A157F230A128A110A168A1129220D
:1001D8000A128A1183120313D01CF328F428BB29AE
:1001E800501CF728F828BB29013083160313BD00DB
:1001F800210303190029012907292E0303190529B9
:1002080006290729BD013D08BC000A128A15532199
:100218000A128A11013083120313ED074D086D028B
:10022800031C172918291E29ED010A168A113A24D8
:100238000A128A110A128A15D9210A128A118316FA
:1002480003133C08031929292A2990290D30831200
:100258000313D3006F080A168A11AB220A128A11F7
:10026800A03E840083130003031D3B293C298629F3
:10027800FE3083120313D005FE30C8050A128A1116
:1002880030260A128A110A128A11CA210A128A1100
:10029800FD3083120313D00501300A128A11EC27AE
:1002A8000A128A11033083160313BB009730BA0071
:1002B800BA0B5C29BB0B5C2983120313D6010030EF
:1002C8000A168A1110230A128A116A30831203133C
:1002D800DC000A168A114E230A128A1183120313AC
:1002E800D601D60A00300A168A1110230A128A117A
:1002F800563083120313DC000A168A114E230A12A1
:100308008A11AF28013083120313D2070130C407C2
:100318000318C50A0030C5070A128A15E3230A1212
:100328008A1183120313501C9A299B29BB290D306B
:10033800D3006F080A168A11AB220A128A11A03E4E
:100348008400831380010A168A118F270A128A11E2
:100358000A128A158C240A128A1182308316031312
:10036800BB00DD30BA00BA0BB729BB0BB729073081
:1003780083160313BB007C30BA00BA0BC129BB0B30
:10038800C1290000AF280A128A110E2831308312C1
:100398000313D4000A168A112E230A128A11831213
:1003A80003134508E8004408E700E9016708680402
:1003B800031DDF29E029102A3030E3000130E90766
:1003C8005C2A6908633E84000A30D3000030D400F8
:1003D8006808D6006708D5000A168A11C6270A12C7
:1003E8008A11831203135308303E831380000130AF
:1003F800E9070A30D3000030D4006808D60067083F
:10040800D5000A128A1595210A128A11831203133C
:100418005408E8005308E70067086804031D152A14
:10042800162AE529EA013F2A831203136A08633E64
:10043800840083130008E0006330DB006A08DB02F5
:1004480069085B07DC005C08FF3E84000008DD00EB
:100458006A08633E84005D0880006330DB006A0838
:10046800DB0269085B07DC005C08FF3E840060086B
:1004780080000130EA070230D3000030D400690858
:10048800DB00DC015B08D5005C08D6000A128A1183
:1004980087270A128A11831203135408803A803C72
:1004A800031D582A53086A02031C5B2A5C2A182A6F
:1004B80083120313EA016E2A6A08633E84008313D9
:1004C80000080A168A1166220A128A11013083125C
:1004D8000313EA0769086A02031C732A742A602A4C
:1004E8007D30D4000A168A112E230A128A1183122B
:1004F80003134708DF004608DE005F08E8005E08CF
:10050800E700E90167086804031D8B2A8C2ABC2AC6
:100518003030E3000130E907082B6908633E8400A6
:100528000A30D3000030D4006808D6006708D50028
:100538000A168A11C6270A128A118312031353084E
:10054800303E831380000130E9070A30D3000030C1
:10055800D4006808D6006708D5000A128A159521C4
:100568000A128A11831203135408E8005308E7009B
:1005780067086804031DC12AC22A912AEA01EB2AE6
:10058800831203136A08633E840083130008E100A2
:100598006330DB006A08DB0269085B07DC005C0883
:1005A800FF3E84000008DD006A08633E84005D08A1
:1005B80080006330DB006A08DB0269085B07DC0047
:1005C8005C08FF3E8400610880000130EA070230C1
:1005D800D3000030D4006908DB00DC015B08D500DB
:1005E8005C08D6000A128A1187270A128A11831218
:1005F80003135408803A803C031D042B53086A02F5
:10060800031C072B082BC42A83120313EA011A2B95
:100618006A08633E8400831300080A168A1166225A
:100628000A128A11013083120313EA0769086A0261
:10063800031C1F2B202B0C2B3F30D4000A168A11C9
:100648002E230A128A118312031348182C2B2D2BE0
:10065800302B9730E200322BA030E2006208D40041
:100668000A168A112E230A128A1192308312031352
:10067800D4000A168A112E230A128A118312031330
:100688001010FD30C805080083120313B3017B3036
:100698000A168A11F3220A128A11003A0319552BF5
:1006A800562B4B2B0A168A11C0220A128A117B3A42
:1006B800031D5F2B602B562B0A168A11C0220A12C3
:1006C8008A1183120313E90022306906031D6D2B7A
:1006D8006E2B602B0A168A11C0220A128A11633AFD
:1006E800031D772B782B602B0A168A11C0220A1259
:1006F8008A115B3A031D812B822B782B83120313FB
:10070800E8010A128A15DA200A128A1183120313E1
:10071800E70067080A128A1521220A128A11831231
:1007280003135608E4006808203EE500003003186B
:10073800013EE600650884008317661C831364087D
:1007480080000130E80708306802031CAC2BAD2B91
:10075800852B33140A168A11C0220A128A118312B1
:100768000313E90022306906031DBB2BBC2BAE2BFB
:100778000A168A11C0220A128A116F3A031DC52B64
:10078800C62BAE2B0A168A11C0220A128A115B3AAE
:10079800031DCF2BD02BC62B83120313E8010A129B
:1007A8008A15DA200A128A1183120313E7006708F0
:1007B8000A128A1521220A128A1183120313560873
:1007C800E4006808283EE50000300318013EE60012
:1007D800650884008317661C831364088000013051
:1007E800E80708306802031CFA2BFB2BD32BB31441
:1007F8000A168A11C0220A128A1183120313E90009
:1008080022306906031D092C0A2CFC2B0A168A11B2
:10081800C0220A128A1183120313E900673069069D
:10082800031D172C182CFC2B0A168A11C0220A1239
:100838008A1183120313E9006F306906031D252C02
:10084800262CFC2B0A168A11C0220A128A11613A38
:10085800031D2F2C302CFC2B0A168A11C0220A12D9
:100868008A113A3A031D392C3A2C302C0A168A116F
:10087800C0220A128A11223A031D432C442C3A2C16
:100888000A168A11C0220A128A1183120313E90078
:1008980074306906031D512C522C632CB0010A16C2
:1008A8008A11C0220A128A110A168A11C0220A1253
:1008B8008A110A168A11C0220A128A11752C01306F
:1008C800B000E8010A168A11C0220A128A11013002
:1008D80083120313E80708306802031C742C752C74
:1008E800662C0A168A11C0220A128A11831203136F
:1008F800E90022306906031D822C832C752C0A1608
:100908008A11C0220A128A1183120313E900673080
:100918006906031D902C912C752C0A168A11C02289
:100928000A128A1183120313E9006F306906031D46
:100938009E2C9F2C752C0A168A11C0220A128A1125
:10094800613A031DA82CA92C752C0A168A11C022FD
:100958000A128A113A3A031DB22CB32CA92C0A1296
:100968008A15DA200A128A110A128A1521220A1215
:100978008A11831203135708B2005608B1003315C1
:100988000800063083120313D9001330D800AD30A5
:10099800D700D70BCD2CD80BCD2CD90BCD2C0A16C4
:1009A8008A1131260A128A11203083120313D700C4
:1009B800D70BDC2C00000A168A11C1240A128A11EE
:1009C800203083120313D700D70BE82C00000A1637
:1009D8008A11B6230A128A11823083120313D800AF
:1009E800DD30D700D70BF62CD80BF62C0A168A1157
:1009F800A7250A128A110A168A1179250A128A115C
:100A0800823083120313D800DD30D700D70B0A2DAC
:100A1800D80B0A2D0A168A11B6230A128A110A1649
:100A28008A114B250A128A11823083120313D800C7
:100A3800DD30D700D70B1E2DD80B1E2D0A168A11B4
:100A480031260A128A11203083120313D700D70BDC
:100A58002B2D00000A168A1179250A128A112030D6
:100A680083120313D700D70B372D00000A168A11FB
:100A7800E2230A128A110A168A11E2230A128A113B
:100A88000A168A11E2230A128A110A168A11E22327
:100A98000A128A110A168A11E2230A128A110A1600
:100AA8008A11E2230A128A110A168A11E2230A120B
:100AB8008A11823083120313D800DD30D700D70B98
:100AC800632DD80B632D0A168A1131260A128A1152
:100AD800203083120313D700D70B702D00000A169D
:100AE8008A114B250A128A11203083120313D7006A
:100AF800D70B7C2D00000A168A110E240A128A11BF
:100B0800823083120313D800DD30D700D70B8A2D2B
:100B1800D80B8A2D0A168A1161260A128A112030EA
:100B280083120313D700D70B972D00000A168A11DA
:100B3800E2230A128A11203083120313D700D70B3D
:100B4800A32D00000A168A11EF240A128A11823096
:100B580083120313D800DD30D700D70BB12DD80B83
:100B6800B12D0A168A1161260A128A1120308312C1
:100B78000313D700D70BBE2D00000A168A110E24C6
:100B88000A128A11203083120313D700D70BCA2DFB
:100B980000000A168A11D5250A128A11823083129A
:100BA8000313D800DD30D700D70BD82DD80BD82D9C
:100BB8000A168A1159270A128A1120308312031340
:100BC800D700D70BE52D00000A168A11EF240A1268
:100BD8008A11203083120313D700D70BF12D0000A0
:100BE8000A168A1193240A128A11033083120313F6
:100BF800D9000830D8007630D700D70B012ED80B93
:100C0800012ED90B012E00000A168A1159270A1243
:100C18008A11203083120313D700D70B112E00003E
:100C28000A168A111D250A128A112030831203130D
:100C3800D700D70B1D2E00000A168A11B6230A12F8
:100C48008A11823083120313D800DD30D700D70B06
:100C58002B2ED80B2B2E08008312031310100130F3
:100C68000A128A11EC270A128A110330831203131D
:100C7800DE009730DD00DD0B3F2EDE0B3F2E8312AA
:100C88000313D60103300A168A1110230A128A1197
:100C9800603083120313DC000A168A114E230A12ED
:100CA8008A1183120313D601D60A00300A168A1154
:100CB80010230A128A11A73083120313DC000A16C4
:100CC8008A114E230A128A11003083120313450237
:100CD8000A3003194402031C722E732E892E0A301F
:100CE800D3000030D4004508D6004408D5000A12C5
:100CF8008A1595210A128A11831203135308303E6C
:100D08000A168A114B220A128A110A308312031317
:100D1800D3000030D4004508D6004408D5000A1690
:100D28008A11C6270A128A11831203135308303E08
:100D38000A168A114B220A128A119C308312031355
:100D4800DC000A168A114E230A128A110030831217
:100D5800031347020A3003194602031CB42EB52EAA
:100D6800CB2E0A30D3000030D4004708D6004608FE
:100D7800D5000A128A1595210A128A1183120313C3
:100D88005308303E0A168A114B220A128A110A3079
:100D980083120313D3000030D4004708D600460856
:100DA800D5000A168A11C6270A128A11831203135C
:100DB8005308303E0A168A114B220A128A117330E0
:100DC8000A168A114B220A128A118312031330035E
:100DD800031DEF2EF02E302FA430DC000A168A11E6
:100DE8004E230A128A1100308312031332020A308A
:100DF80003193102031C012F022F182F0A30D300C8
:100E08000030D4003208D6003108D5000A128A15FD
:100E180095210A128A11831203135308303E0A16C9
:100E28008A114B220A128A110A3083120313D30043
:100E38000030D4003208D6003108D5000A168A11CD
:100E4800C6270A128A11831203135308303E0A1662
:100E58008A114B220A128A110A128A1504260A12CA
:100E68008A1183120313E0010A168A116E230A12EB
:100E78008A11013083120313E00705306002031C56
:100E8800462F472F382FE001023083120313DF006B
:100E98000430DE00B930DD00DD0B502FDE0B502FA3
:100EA800DF0B502F572F08300A128A11EC270A122D
:100EB8008A11C33083120313DE00CC30DD00DD0B52
:100EC800632FDE0B632F00000C300A128A11EC2707
:100ED8000A128A11013083120313E00705306002F9
:100EE800031C772F782F482F0B3083120313DF0052
:100EF8002630DE005D30DD00DD0B802FDE0B802F1D
:100F0800DF0B802F080083120313D801D41F8D2F05
:100F18008E2F952FD309D409D30A0319D40A013087
:100F2800D800D61F982F992FA02FD509D609D50AF2
:100F38000319D60A0130D806D901DA015308540436
:100F48000319A72FA82FDD2F0130D700B42F0130A8
:100F58000310D30DD40DFF3E031DAC2F0130D7076E
:100F6800D41FB72FB82FAB2F01300310D90DDA0DCE
:100F7800FF3E031DB92F54085602031DC52F530801
:100F88005502031CC82FC92FD02F5308D502540867
:100F9800031CD603D602591401300310D40CD30C09
:100FA800FF3E031DD12F0130D702031DDC2FDD2F9B
:100FB800B82F58080319E12FE22FE72FD909DA09CA
:100FC800D90A0319DA0A5A08D4005908D3000800C4
:100FD80083120313D50055088600071087100A16D8
:100FE8008A1158220A128A110F3083120313D4006F
:100FF800D40BFC2FFF2F080008308A000408840A4D
:10100800820700347B34223473347434613474348A
:101018007534733422343A3422346C346F34613486
:1010280064346534643422342C34223463346834B0
:101038006134723461346334743465347234223404
:101048003A342234003422342C3422346F3462345B
:1010580073347434613463346C34653422343A3410
:10106800223400347B3422346F3462347334743461
:10107800613463346C346534733422343A34003464
:101088002C34223472346534733475346C347434CB
:1010980022343A342234003422342C342234673453
:1010A8006F3461346C3422343A342234003463347B
:1010B8006F346E346634693467342E342E342E34EB
:1010C8000034473441344D34453420344F34563499
:1010D80045345234003445347334703465347234D2
:1010E80061346E3464346F34003459344F345534B9
:1010F8002034573449344E34213400342C342234CB
:10110800743469346D34653422343A3400344F34DD
:101118006234733474343A3400346534723472345B
:101128006F347234003422347D340D340A34003480
:101138006C346F34733465340034203454343A34A6
:101148000034773469346E34003420342F3400345A
:0C1158004F343A3400346F346B340034F0
:1011660083120313DA000108D1074E08D9000230B2
:101176000310D90DFF3E031DBB280310590DD106E0
:101186004F08D1074930D30051080A168A11AB22FD
:101196000A128A152F3E83120313D1005A08D30070
:1011A60051080A168A1191230A128A150800831219
:1011B6000313D4010A168A11C0220A128A15831251
:1011C6000313D500203055060319EA28EB28DD283D
:1011D6002C3055060319F028F128DD280229540879
:1011E600493E84005508831380000130D4070A164F
:1011F6008A11C0220A128A1583120313D5003030D1
:101206005502031C0729082914293A3055020318E8
:101216000D290E29142903305402031C13291429FD
:10122600F22854080800831203138C1E1B291C295C
:101236002B29981C1F2920292229181218167608EE
:101246000F39343E84001A08831380000130F607F4
:101256000C1C2E292F294A290C100B308F00DC304C
:101266008E00C81C372938294A290130CF07023099
:101276004F02031C3F2940294A29CF010130CE07DE
:101286004E08F000F1017008C6007108C700740826
:101296008A0073088400720E8300FE0E7E0E09001B
:1012A60083120313081C582959297D296F0803192D
:1012B6005D295E297D290D30D3006E080A168A1134
:1012C600AB220A128A15A03E8400203083138000C8
:1012D60083120313EF01EE0183160313A0011430EA
:1012E60083120313D7007930D600D60B7829D70B93
:1012F60078299429881C8029812994296F08031D3F
:10130600852986299429203083160313A0000130ED
:1013160083120313EF000130EE0083160313AD01B1
:101326007229080083120313D801D9015308540403
:1013360003199E299F29D4290130D700AB290130F2
:101346000310D30DD40DFF3E031DA3290130D7078B
:10135600D41FAE29AF29A22901300310D80DD90D0B
:10136600FF3E031DB02954085602031DBC2953082D
:101376005502031CBF29C029C7295308D5025408A2
:10138600031CD603D602581401300310D40CD30C18
:10139600FF3E031DC8290130D702031DD329D429D6
:1013A600AF295908D4005808D30008008312031344
:1013B600DA01D9010D30D3005A080A168A11AB2278
:1013C6000A128A15A13E831203135907D60056083E
:1013D600840083130008D7000D30D3005A080A167C
:1013E6008A11AB220A128A15A03E831203135907EB
:1013F600D800580884005708831380000130D907A5
:101406000C305902031C082A092ADD290D30D300A5
:101416005A080A168A11AB220A128A15AC3E8400B3
:10142600203083138000013083120313DA07023061
:101436005A02031C1F2A202ADC29080083120313E0
:10144600E000E101E201E301582A6208D9006108DF
:10145600D8000310D80DD90D6208DB006108DA0048
:101466000310DA0DDB0D0310DA0DDB0D0310DA0DB8
:10147600DB0D6308493E840000085A07DC005B0860
:1014860003185B0ADD0058085C07DE0059080318DC
:10149600590A5D07DF005E08D03EE1005F080318C9
:1014A600013EFF3EE2000130E307600863020318D5
:1014B6005D2A5E2A712A6308493E84003030831310
:1014C6000002031C672A682A712A6308493E8400C1
:1014D6003A300002031C702A712A282A6208D700B3
:1014E6006108D600080040300A128A11EC270A1259
:1014F6008A1583120313DE015E08203EDC000030ED
:101506000318013EDD005C08840083175D1C83130D
:1015160000080A168A114B220A128A150130831214
:101526000313DE0708305E02031C9A2A9B2A7F2AD1
:1015360048300A128A11EC270A128A1583120313FD
:10154600DE015E08283EDC0000300318013EDD00A7
:101556005C08840083175D1C831300080A168A1131
:101566004B220A128A15013083120313DE07083054
:101576005E02031CBF2AC02AA42A80300A128A11DE
:10158600EC270A128A15033083120313B3040800EA
:1015960083120313D801D61FD12AD22AD92AD509F4
:1015A600D609D50A0319D60A0130D800D41FDC2A79
:1015B600DD2AE22AD309D409D30A0319D40A530827
:1015C60054040319E72AE82A152B0130D700F42A18
:1015D60001300310D30DD40DFF3E031DEC2A01305C
:1015E600D707D41FF72AF82AEB2A54085602031DF8
:1015F600FE2A53085502031C012B022B082B530805
:10160600D5025408031CD603D60201300310D40CAD
:10161600D30CFF3E031D092B0130D702031D142BEB
:10162600152BF82A58080319192B1A2B1F2BD50925
:10163600D609D50A0319D60A5608D4005508D30088
:101646000800013083120313D4000A168A112E23D0
:101656000A128A15831203133318322B332B362BB7
:101666008C30D500382BAA30D5005508D4000A1680
:101676008A112E230A128A15223083120313D400EC
:101686000A168A112E230A128A1583120313B31817
:101696004D2B4E2B512B8C30D600532BAA30D60017
:1016A6005608D4000A168A112E230A128A154B30C0
:1016B60083120313D4000A168A112E230A128A15DE
:1016C600831203133319682B692B6C2B8C30D700CC
:1016D6006E2BAA30D7005708D4000A168A112E237B
:1016E6000A128A15923083120313D4000A168A113D
:1016F6002E230A128A15080001300A128A11EC27D5
:101706000A128A15033083120313E0009730DF00B4
:10171600DF0B8B2BE00B8B2B0A128A1576220A1213
:101726008A1583120313E101E2010D30D30061082B
:101736000A168A11AB220A128A15A03E83120313D7
:101746006207DF005F0884002030831380000130C9
:10175600E2070D306202031CB12BB22B982B01302D
:10176600E10702306102031CB92BBA2B972B01301B
:10177600EF000130EE00ED01D2010108D1070A1693
:101786008A1140220A128A1583160313AD0103300B
:1017960083120313D0040A128A1545250A128A15E4
:1017A6000A168A1174220A128A150A168A118F27B6
:1017B6000A128A150A128A158C240A128A1508003A
:1017C600831203133003031DE92BEA2B3B2C32084B
:1017D6004502031DF02B31084402031CF32BF42BA6
:1017E6008B2CFE30D00548140A128A15EB260A12F5
:1017F6008A150A128A11CA210A128A15FD30831225
:101806000313D00501300A128A11EC270A128A1531
:10181600033083120313EC009730EB00EB0B112C13
:10182600EC0B112C83120313D60100300A168A1111
:1018360010230A128A156A3083120313DC000A1673
:101846008A114E230A128A1583120313D601D60A69
:1018560000300A168A1110230A128A15563083128E
:101866000313DC000A168A114E230A128A158B2CE2
:1018760032084702031D412C31084602031C442C42
:10188600452C8B2CFE30D00548140A128A15EB26FF
:101896000A128A150A128A11CA210A128A15FD30FD
:1018A60083120313D00501300A128A11EC270A129B
:1018B6008A15033083120313EC009730EB00EB0B11
:1018C600622CEC0B622C83120313D60100300A162D
:1018D6008A1110230A128A156A3083120313DC0058
:1018E6000A168A114E230A128A1583120313D60189
:1018F600D60A00300A168A1110230A128A155630A3
:1019060083120313DC000A168A114E230A128A1563
:101916000800831203133003031D922C932CE72C2B
:10192600D6010E300A168A1110230A128A150A30B9
:1019360083120313D3000030D4005208DC00DD010B
:101946005C08D5005D08D6000A128A1187270A129C
:101956008A15831203135308303E0A168A114B2246
:101966000A128A150A3083120313D3000030D400FA
:101976005208DC00DD015C08D5005D08D6000A12BD
:101986008A15CB220A128A15831203135308303E96
:101996000A168A114B220A128A1583120313D601DC
:1019A600D60A0E300A168A1110230A128A1520301A
:1019B6000A168A114B220A128A1520300A168A1133
:1019C6004B220A128A15442DD6010E300A168A11A8
:1019D60010230A128A1500308312031347020A30B5
:1019E60003194602031CF82CF92C102D0A30D300DB
:1019F6000030D4004708D6004608D5000A128A15DA
:101A060095210A128A15831203135308303E0A16CB
:101A16008A114B220A128A15162D20300A168A11AF
:101A26004B220A128A150A3083120313D3000030A0
:101A3600D4004708D6004608D5000A168A11C627DC
:101A46000A128A15831203135308303E0A168A11A6
:101A56004B220A128A1583120313D601D60A0E30B8
:101A66000A168A1110230A128A1520300A168A11BC
:101A76004B220A128A1520300A168A114B220A12A4
:101A86008A1508000A168A114B250A128A150A16A3
:101A96008A114B250A128A15823083120313D70046
:101AA600DD30D600D60B552DD70B552D0A168A11CB
:101AB6004B250A128A150A168A114B250A128A150F
:101AC600023083120313D8000430D700B930D60091
:101AD600D60B6B2DD70B6B2DD80B6B2D722D0A16D3
:101AE6008A114B250A128A150A168A114B250A12E3
:101AF6008A15023083120313D8000430D700B93098
:101B0600D600D60B842DD70B842DD80B842D8B2D88
:101B16000A168A11B6230A128A150A168A11B623DC
:101B26000A128A15823083120313D700DD30D600DD
:101B3600D60B9B2DD70B9B2D0A168A114B250A1205
:101B46008A150A168A114B250A128A150230831243
:101B56000313D8000430D700B930D600D60BB12D08
:101B6600D70BB12DD80BB12DB82D0A168A110E241C
:101B76000A128A150A168A110E240A128A150A16DC
:101B86008A110E240A128A150A168A110E240A12BE
:101B96008A15033083120313D8000830D700763035
:101BA600D600D60BD42DD70BD42DD80BD42D0000B0
:101BB6000A168A1103260A128A150A168A1103269C
:101BC6000A128A150A168A1103260A128A150A1695
:101BD6008A1103260A128A150A168A1103260A1280
:101BE6008A150A168A1103260A128A15823083126A
:101BF6000313D700DD30D600D60BFF2DD70BFF2DF4
:101C060008000A168A1161260A128A150A168A110E
:101C160003260A128A150A168A11A7250A128A1598
:101C2600823083120313D800DD30D700D70B192E6C
:101C3600D80B192E0A168A1179250A128A150A1640
:101C46008A11E2230A128A15023083120313D9007D
:101C56000430D800B930D700D70B2F2ED80B2F2E33
:101C6600D90B2F2E362E0A168A1161260A128A15CC
:101C76000A168A1179250A128A150A168A11E2238A
:101C86000A128A15823083120313D800DD30D7007A
:101C9600D70B4B2ED80B4B2E0A168A1161260A1229
:101CA6008A150A168A1179250A128A150A168A11C0
:101CB600E2230A128A15823083120313D800DD301C
:101CC600D700D70B642ED80B642E0A168A11C126AC
:101CD6000A128A150A168A11B6230A128A150A16D4
:101CE6008A114B250A128A15823083120313D800F3
:101CF600DD30D700D70B7D2ED80B7D2E0A168A1124
:101D0600F3260A128A150A168A11A7250A128A15B7
:101D16000A168A1179250A128A158230831203134C
:101D2600D800DD30D700D70B962ED80B962E0A1684
:101D36008A1191260A128A150A168A1103260A1290
:101D46008A150A168A11B6230A128A158230831258
:101D56000313D800DD30D700D70BAF2ED80BAF2E2C
:101D66000A168A111D250A128A1582308312031358
:101D7600D800DD30D700D70BBE2ED80BBE2E0A16E4
:101D86008A1161260A128A15823083120313D8003B
:101D9600DD30D700D70BCD2ED80BCD2E0A168A11E3
:101DA6001D250A128A15823083120313D800DD30EE
:101DB600D700D70BDC2ED80BDC2E0A168A11592732
:101DC6000A128A150A168A1191260A128A1508001D
:101DD60083120313101001300A128A11EC270A121B
:101DE6008A15033083120313DE009730DD00DD0B06
:101DF600FA2EDE0BFA2E83120313D60104300A16CE
:101E06008A1110230A128A15743083120313DC0018
:101E16000A168A114E230A128A1583120313D60153
:101E2600D60A00300A168A1110230A128A1586303D
:101E360083120313DC000A168A114E230A128A152E
:101E460000308312031345020A3003194402031CAF
:101E56002D2F2E2F442F0A30D3000030D4004508F2
:101E6600D6004408D5000A128A1595210A128A1549
:101E7600831203135308303E0A168A114B220A12A4
:101E86008A150A3083120313D3000030D4004508A4
:101E9600D6004408D5000A168A11C6270A128A15E2
:101EA600831203135308303E0A168A114B220A1274
:101EB6008A159C3083120313DC000A168A114E23FE
:101EC6000A128A1500308312031347020A300319D7
:101ED6004602031C6F2F702F862F0A30D300003066
:101EE600D4004708D6004608D5000A128A1595215F
:101EF6000A128A15831203135308303E0A168A11F2
:101F06004B220A128A150A3083120313D3000030BB
:101F1600D4004708D6004608D5000A168A11C627F7
:101F26000A128A15831203135308303E0A168A11C1
:101F36004B220A128A1573300A168A114B220A128C
:101F46008A1583120313E0010A168A116E230A12F8
:101F56008A15013083120313E00704306002031C64
:101F6600B52FB62FA72F0A128A11C5240A128A1571
:101F760083120313E001033083120313DF008A3058
:101F8600DE005530DD00DD0BC62FDE0BC62FDF0B66
:101F9600C62F08300A128A11EC270A128A15023057
:101FA60083120313DF008630DE009830DD00DD0B80
:101FB600DA2FDE0BDA2FDF0BDA2F00000C300A12D5
:101FC6008A11EC270A128A15013083120313E007DF
:101FD60003306002031CF02FF12FBE2F0B3083124B
:101FE6000313DF002630DE005D30DD00DD0BF92F48
:0A1FF600DE0BF92FDF0BF92F0800B6
:10244E00053402347608F5000800013401340134F5
:10245E0064008001840A0406031900340406302A3D
:10246E0076087506031D3C2A3E2A01303F2A0030AD
:10247E00080004300A128A15B3200A168A11023E89
:10248E0083120313CD00080083120313DB005B08D5
:10249E008600071487100A168A1158220A168A1106
:1024AE000800831203130715203083120313D30081
:1024BE00D30B5F2A00008312031307110800831247
:1024CE000313D30083160313981C6E2A6F2A692AEE
:1024DE008312031353089900080083120313C401D7
:1024EE00C501C601C7010230C800CE01CF010B30B5
:1024FE008F00DC308E000C101014080083120313B2
:10250E0010109010101690160B308F00DC308E00CD
:10251E000C10831603130C1483120313CF01CE0178
:10252E00080083160313071387171930990018151F
:10253E00181298168312031398171816831603137E
:10254E008C160B178B17080083120313D500D401BA
:10255E00551CB22AB32AB52A5308D4070310D30D3B
:10256E000310D50C5508031DBD2ABE2AAF2A5408E8
:10257E0008000A168A1137220A168A11003A031920
:10258E00C92ACA2AC02A75080F39343E840083131B
:10259E00000883120313D3000130F5075308080017
:1025AE0083120313D30107303306031DDF2AE02AFB
:1025BE00F12A310832040319E52AE62AF12A0330FA
:1025CE003202E830031931020318EE2AEF2AF12AFB
:1025DE000130D3005308080083120313D30075088B
:1025EE00D400082B54080F39343E8400831300089E
:1025FE005306031D032B042B062B01300F2B01302A
:10260E00D40754087606031D0D2B0E2BF92A003025
:10261E00080083120313D90056080319172B182B21
:10262E00202B5908C03ED700003003180130D800C7
:10263E00272B5908803ED700003003180130D800F0
:10264E0057080A128A11EC270A168A1108003F2B26
:10265E00540884000A128A1500200A168A110A16D6
:10266E008A1166220A168A11013083120313D407C7
:10267E0083120313540884000A128A1500200A16C6
:10268E008A11003A031D4C2B4D2B2F2B08005F2B6C
:10269E005C0884000A128A1500200A168A110A168E
:1026AE008A114B220A168A11013083120313DC079A
:1026BE00831203135C0884000A128A1500200A167E
:1026CE008A11003A031D6C2B6D2B4F2B08008312C1
:1026DE0003130514033083120313D5008A30D4007C
:1026EE005530D300D30B792BD40B792BD50B792BFB
:1026FE00831203130510033083120313D5008A309F
:10270E00D4005530D300D30B8A2BD40B8A2BD50B88
:10271E008A2B080083120313D6000830D700D80185
:10272E005608D40007300310D40CFF3E031D9A2B1D
:10273E005808D50055075404D8000310D60D530879
:10274E005802031CAB2BAC2BAE2B5308D802013016
:10275E00D702031DB32BB42B972B580808008312F6
:10276E000313D401D5018312031309159E3083126E
:10277E000313D300D30BC12B8312031309119E3005
:10278E0083120313D300D30BCA2B0130831203130E
:10279E00D4070318D50A0030D5075508803AFF0034
:1027AE0080307F02031DDD2B20305402031CE02BF2
:1027BE00E12BBA2B080083120313D401D501831227
:1027CE0003130915763083120313D300D30BED2BAD
:1027DE00831203130911763083120313D300D30B24
:1027EE00F62B013083120313D4070318D50A0030D9
:1027FE00D5075508803AFF0080307F02031D092C53
:10280E0020305402031C0C2C0D2CE62B08008312D6
:10281E000313D401D50183120313091569308312F2
:10282E000313D300D30B192C831203130911693030
:10283E0083120313D300D30B222C01308312031304
:10284E00D4070318D50A0030D5075508803AFF0083
:10285E0080307F02031D352C20305402031C382C8F
:10286E00392C122C08002030831603132C06031D5E
:10287E00412C422C652C20303906031D472C482C48
:10288E00652C64300A128A15B3200A168A11831237
:10289E000313DB0032305B020318562C572C5C2CD2
:1028AE00013083160313AC00602C01308316031322
:1028BE00B9000A168A1140220A168A1108008312DC
:1028CE000313D5015508203ED30000300318013EF6
:1028DE00D400530884008317541C831380015508B9
:1028EE00283ED30000300318013ED4005308840064
:1028FE008317541C831380010130D507083055020D
:10290E00031C8A2C8B2C692C0130B0000A30B100CC
:10291E000030B200B301080083120313D401D501B5
:10292E008312031309154E3083120313D300D30BF6
:10293E009E2C00008312031309114E3083120313D1
:10294E00D300D30BA82C0000013083120313D4073D
:10295E000318D50A0030D5075508803AFF0080309D
:10296E007F02031DBC2C20305402031CBF2CC02C34
:10297E00972C080083120313D401D501831203137D
:10298E000915BC3083120313D300D30BCC2C0000DB
:10299E00831203130911BC3083120313D300D30B1C
:1029AE00D62C0000013083120313D4070318D50A66
:1029BE000030D5075508803AFF0080307F02031D96
:1029CE00EA2C20305402031CED2CEE2CC52C0800F2
:1029DE0083120313D401D5018312031309155D303D
:1029EE0083120313D300D30BFA2CFD2C8312031383
:1029FE0009115D3083120313D300D30B042D072D61
:102A0E00013083120313D4070318D50A0030D507FB
:102A1E005508803AFF0080307F02031D182D2030AC
:102A2E005402031C1B2D1C2DF32C080083120313C0
:102A3E00D401D501831203130915FB30831203133E
:102A4E00D300D30B282D2B2D831203130911FB302A
:102A5E0083120313D300D30B322D352D0130831285
:102A6E000313D4070318D50A0030D5075508803A4A
:102A7E00FF0080307F02031D462D20305402031CC0
:102A8E00492D4A2D212D080083120313D401D5019F
:102A9E008312031309157D3083120313D300D30B56
:102AAE00562D00008312031309117D308312031378
:102ABE00D300D30B602D0000013083120313D40713
:102ACE000318D50A0030D5075508803AFF0080302C
:102ADE007F02031D742D20305402031C772D782D98
:102AEE004F2D080083120313D401D5018312031353
:102AFE0009158C3083120313D300D30B842D872D2D
:102B0E008312031309118C3083120313D300D30BDA
:102B1E008E2D912D013083120313D4070318D50A7D
:102B2E000030D5075508803AFF0080307F02031D24
:102B3E00A22D20305402031CA52DA62D7D2D08009C
:102B4E0083120313D401D501831203130915A73081
:102B5E0083120313D300D30BB22DB52D831203139F
:102B6E000911A73083120313D300D30BBC2DBF2D35
:102B7E00013083120313D4070318D50A0030D5078A
:102B8E005508803AFF0080307F02031DD02D203083
:102B9E005402031CD32DD42DAB2D08008312031326
:102BAE00D401D50183120313091553308312031375
:102BBE00D300D30BE02D0000831203130911533001
:102BCE0083120313D300D30BEA2D000001308312BE
:102BDE000313D4070318D50A0030D5075508803AD9
:102BEE00FF0080307F02031DFE2D20305402031C97
:102BFE00012E022ED92D080083120313D401D50104
:102C0E00831203130915D33083120313D300D30B8E
:102C1E000E2E0000831203130911D33083120313F7
:102C2E00D300D30B182E0000013083120313D407E8
:102C3E000318D50A0030D5075508803AFF008030BA
:102C4E007F02031D2C2E20305402031C2F2E302EFB
:102C5E00072E080083120313D401D5018312031328
:102C6E000915CC3083120313D3003D2E3E2ED30B09
:102C7E003C2E831203130911CC3083120313D3009D
:102C8E00482E492ED30B472E013083120313D4073F
:102C9E000318D50A0030D5075508803AFF0080305A
:102CAE007F02031D5C2E20305402031C5F2E602E0B
:102CBE00352E080083120313D401D501831203139A
:102CCE000915FE3083120313D3006D2ED30B6C2E19
:102CDE00702E831203130911FE3083120313D300D7
:102CEE00782ED30B772E7B2E013083120313D4074D
:102CFE000318D50A0030D5075508803AFF008030FA
:102D0E007F02031D8C2E20305402031C8F2E902E1A
:102D1E00652E080083120313D401D5018312031309
:102D2E000915BE3083120313D3009D2ED30B9C2E98
:102D3E00A02E831203130911BE3083120313D30086
:102D4E00A82ED30BA72EAB2E013083120313D4075C
:102D5E000318D50A0030D5075508803AFF00803099
:102D6E007F02031DBC2E20305402031CBF2EC02E2A
:102D7E00952E080083120313D401D5018312031379
:102D8E000915E23083120313D300CD2ED30BCC2EB4
:102D9E00D02E0000831203130911E23083120313A5
:102DAE00D300D92ED30BD82EDC2E00000130831287
:102DBE000313D4070318D50A0030D5075508803AF7
:102DCE00FF0080307F02031DEE2E20305402031CC4
:102DDE00F12EF22EC52E080083120313D401D50155
:102DEE00831203130915C93083120313D300FF2E68
:102DFE00D30BFE2E022F032F831203130911C9309A
:102E0E0083120313D3000B2FD30B0A2F0E2F0F2F6A
:102E1E00013083120313D4070318D50A0030D507E7
:102E2E005508803AFF0080307F02031D202F20308E
:102E3E005402031C232F242FF72E0800831603138E
:102E4E008601071087100711413083120313D70034
:102E5E00ED30D600D60B312FD70B312F362F383021
:102E6E000A128A11EC270A168A110C300A128A11DC
:102E7E00EC270A168A1101300A128A11EC270A165B
:102E8E008A1106300A128A11EC270A168A110330AB
:102E9E0083120313D7009730D600D60B542FD70BBF
:102EAE00542F080083120313D501D6018312031386
:102EBE000915033083120313D4007930D300D30BDA
:102ECE00662FD40B662F00008312031309110330F3
:102EDE0083120313D4007930D300D30B742FD40B89
:102EEE00742F0000013083120313D5070318D60A7E
:102EFE000030D6075608803AFF0080307F02031D4F
:102F0E008A2F20305502031C8D2F8E2F5D2F080027
:102F1E0083120313DE015E08D60000300A168A11F2
:102F2E0010230A168A1183120313DD010D30D3000C
:102F3E005E080A168A11AB220A168A11A03E831267
:102F4E0003135D07DC005C088400831300080A1677
:102F5E008A114B220A168A11013083120313DD07E0
:102F6E000D305D02031CBC2FBD2F9D2F0130DE07DF
:102F7E0002305E02031CC42FC52F922F080083124D
:102F8E000313530854040319CD2FCE2FFB2F0130FA
:102F9E00D700DA2F01300310D30DD40DFF3E031DE1
:102FAE00D22F0130D707D41FDD2FDE2FD12F54089B
:102FBE005602031DE42F53085502031CE72FE82F7A
:102FCE00EE2F5308D5025408031CD603D602013047
:102FDE000310D40CD30CFF3E031DEF2F0130D7028C
:102FEE00031DFA2FFB2FDE2F5608D4005508D300F1
:022FFE000800C9
:02400E00313F40
:00000001FF
