:060000000A128A110E280D
:10000800FE00030EF0000408F1000A08F2000A12CC
:100018008A15FB2B0A128A1111280A128A11FB274A
:100028000A128A11DC000A128A11FC270A128A11A4
:10003800DD000A128A11FD270A128A11DE000A124F
:100048008A11FE270A128A11DF008313A030840068
:10005800E0300A128A1515230A128A11203084000A
:1000680041300A128A1515230A128A11F801F9017A
:10007800FA0183010A128A114128831603138601A3
:1000880087010330880083120313860187018801E2
:1000980083160313811681110730810407309F00EE
:1000A80007309C000A128A1579230A128A110A124B
:1000B8008A152D250A128A110A128A15FE240A1297
:1000C8008A110A128A1539240A128A118312031313
:1000D80081010108BE005930F4000A128A15DF2395
:1000E8000A128A1183120313C10100300A128A15F9
:1000F80019240A128A11C030F7000A128A15C3237C
:100108000A128A1183120313C101C10A00300A12AC
:100118008A1519240A128A11B630F7000A128A15AC
:10012800C3230A128A117D300A128A15A8230A12DB
:100138008A11003A0319A128A228F228831203136E
:100148003D08031DA828A928F2288230831203132A
:10015800D800DD30D700D70BAF28D80BAF280A124C
:100168008A113A220A128A110A128A15D2240A120C
:100178008A11003A0319C128C228E1280A128A15EF
:1001880026230A128A11823083120313D800DD3025
:10019800D700D70BCD28D80BCD280A128A119C235B
:1001A8000A128A110A128A11E4260A128A110A12FC
:1001B8008A1539240A128A11E8280130F4000A1233
:1001C8008A15DF230A128A11823083120313D8009A
:1001D800DD30D700D70BEE28D80BEE288312031397
:1001E8003D080319F828F928002A5D080319FD2895
:1001F800FE28002A0A128A117D260A128A110A127A
:100208008A1596250A128A11013083120313DC0716
:1002180004305C02031C112912291829DC010A1276
:100228008A1580240A128A110A128A155F270A126F
:100238008A110A128A1596250A128A118312031343
:100248003F083C06031929292A2933290A128A1545
:1002580006260A128A11831203133F08BC000A12E9
:100268008A11E9250A128A11831603133003031928
:100278003E293F2944292003031D432944294829AD
:10028800013083120313BF0783123003031D4D2966
:100298004E29F5293F08D7003208031D5529310892
:1002A8005702031C58295929F529DD0101300A1282
:1002B8008A1564230A128A11033083120313D800A3
:1002C8009730D700D70B6629D80B662983120313FA
:1002D800C10100300A128A1519240A128A11CA307B
:1002E800F7000A128A15C3230A128A11831203130C
:1002F800C101C10A00300A128A1519240A128A118A
:10030800D330F7000A128A15C3230A128A110A3059
:10031800F3000030F400831203133F08D700D8011C
:100328005708F5005808F6000A128A114B270A12D6
:100338008A117308303E83120313DA000A30C300AF
:100348000030C4003F08D700D8015708C500580836
:10035800C6000A128A15A7270A128A1183120313E4
:100368004308303EDB005A080A128A153D230A1258
:100378008A11831203135B080A128A153D230A1295
:100388008A11103083120313D9003930D8000D3088
:10039800D700D70BCD29D80BCD29D90BCD2983125E
:1003A8000313BD01C10100300A128A1519240A126B
:1003B8008A11C030F7000A128A15C3230A128A115B
:1003C80083120313C101C10A00300A128A151924C5
:1003D8000A128A11B630F7000A128A15C3230A12C4
:1003E8008A11C33083120313D800CC30D700D70B3F
:1003F800FB29D80BFB2900000D3083120313D8000A
:10040800FB30D700D70B062AD80B062A01308312F7
:100418000313BB0765303B02031C132A142A9728D1
:10042800BB010A128A151D230A128A11003A031900
:100438001E2A1F2A97287B300A128A15A8230A1217
:100448008A11003A031D292A2A2A9728831203139E
:100458003D08031D302A312A97280A128A153924A3
:100468000A128A1197280A128A110E288312031376
:10047800D001D101B301B401B501542A0D30831262
:100488000313CE00FB30CD00CD0B482ACE0B482AF3
:10049800013083120313D0070318D10A0030D107A3
:1004A8007B300A128A15A8230A128A11003A031D02
:1004B8005E2A5F2A6A2A0330831203135102E83046
:1004C80003195002031C692A6A2A422A033083123C
:1004D80003135102E83003195002031C742A752AC9
:1004E800762A9B2B0A128A154F230A128A117B3A05
:1004F800031D7F2A802A762A0A128A154F230A1298
:100508008A1183120313D40022305406031D8D2A46
:100518008E2A802A0A128A154F230A128A11633AF0
:10052800031D972A982A802A0A128A154F230A122D
:100538008A115B3A031DA12AA22A982A831203135F
:10054800D3010A128A11BE240A128A1183120313D4
:10055800D20052080A128A11B0270A128A117308A7
:1005680083120313CD005308203ECE000030031839
:10057800013ECF004E08840083174F1C83134D089B
:1005880080000130D30708305302031CCC2ACD2A3F
:10059800A52A0130B3000A128A154F230A128A11BC
:1005A80083120313D40022305406031DDC2ADD2AEB
:1005B800CF2A0A128A154F230A128A116F3A031D8D
:1005C800E62AE72ACF2A0A128A154F230A128A1125
:1005D8005B3A031DF02AF12AE72A83120313D30199
:1005E8000A128A11BE240A128A1183120313D20036
:1005F80052080A128A11B0270A128A117308831244
:100608000313CD005308283ECE0000300318013EE6
:10061800CF004E08840083174F1C83134D088000B9
:100628000130D30708305302031C1B2B1C2BF42A60
:100638000130B4000A128A154F230A128A11831254
:100648000313D40067305406031D2B2B2C2B1E2BB1
:100658000A128A154F230A128A1183120313D4002F
:100668006F305406031D392B3A2B1E2B0A128A159C
:100678004F230A128A113A3A031D432B442B3A2B73
:100688000A128A154F230A128A11223A031D4D2B8A
:100698004E2B442B0A128A154F230A128A118312F1
:1006A8000313D40074305406031D5B2B5D2B0130FB
:1006B8005E2B0030B0000A128A154F230A128A11E5
:1006C80083120313D40067305406031D6C2B6D2B63
:1006D8005F2B0A128A154F230A128A1183120313F9
:1006E800D4006F305406031D7A2B7B2B5F2B0A1224
:1006F8008A154F230A128A113A3A031D842B852B37
:100708007B2B0A128A11BE240A128A118312031340
:10071800D20052080A128A11B0270A128A117408E4
:1007280083120313B2007308B1000130B50008004A
:100738004630F4000A128A15DF230A128A1169303A
:10074800F4000A128A15DF230A128A11831203138E
:1007580033080319B02BB12BB92BE130F4000A127E
:100768008A15DF230A128A11C02BDB30F4000A1223
:100778008A15DF230A128A118430F4000A128A15B6
:10078800DF230A128A117830F4000A128A15DF234F
:100798000A128A118312031334080319D42BD52B98
:1007A800DD2BE130F4000A128A15DF230A128A11C0
:1007B800E42BDB30F4000A128A15DF230A128A11AF
:1007C8008430F4000A128A15DF230A128A11AC3029
:1007D800F4000A128A15DF230A128A1183120313FE
:1007E80035080319F82BF92B012CE130F4000A1213
:1007F8008A15DF230A128A11082CDB30F4000A124A
:100808008A15DF230A128A118430F4000A128A1525
:10081800DF230A128A119430F4000A128A15DF23A2
:100828000A128A1183120313300803191C2C1D2C79
:10083800222C3130C5000030C600262C3030C500CF
:100848000030C60045080A128A1531230A128A1197
:100858008630F4000A128A15DF230A128A118312DD
:100868000313D2013208D1003108D00050085104D6
:10087800031D3F2C402C452C3030C7000130D207D7
:100888009B2CCD01722C5208473E84000A30F3009D
:100898000030F4005108F6005008F5000A128A15D5
:1008A800CE250A128A117308303E83138000013066
:1008B80083120313D2070A30F3000030F400510802
:1008C800F6005008F5000A128A154A260A128A11FB
:1008D800740883120313D1007308D0005008510420
:1008E800031D772C782C472C5208FF3ECE00952C00
:1008F8004D08473E840083130008CF004E08473E4A
:1009080084000008C4004D08473E84004408800065
:100918004E08473E84004F0880000130CD07013063
:10092800CE024E084D02031C9A2C9B2C7C2C52089C
:10093800473E840083138001CF01B02C4F08473E07
:100948008400831300080A128A1531230A128A11B7
:10095800013083120313CF0752084F02031CB52C32
:10096800B62CA22C2D30F4000A128A15DF230A12A5
:100978008A110800F4010A128A154F230A128A11F3
:10098800F500203075060319CA2CCB2CBF2C2C304F
:1009980075060319D02CD12CBF2CE02C7408363ED8
:1009A80084007508831380000130F4070A128A1541
:1009B8004F230A128A11F50030307502031CE52C0A
:1009C800E62CF22C3A3075020318EB2CEC2CF22CA6
:1009D80004307402031CF12CF22CD22C7408363E1D
:1009E800840083138001740808007A08F90008005D
:100A000005308A000408840A820700347B342234CB
:100A100073347434613474347534733422343A3436
:100A200022346534723472346F34723422342C348C
:100A300022346D346534733473346134673465340F
:100A400022343A34223469346E34763461346C346E
:100A500069346434203463346F346E3466346934FA
:100A6000673422347D340D340A3400344A3475340A
:100A7000653467346F34203469346E3469346334D8
:100A8000693461346C3469347A34613464346F3479
:100A90000D340A3400347B342234733474346134BA
:100AA00074347534733422343A3422346C346F34F1
:100AB000613464346534643422340034533469342A
:100AC0007334743465346D34613420346C34693477
:100AD000733474346F340D340A3400342C342234BB
:100AE000633468346134723461346334743465342B
:100AF000723422343A34223400342C3422346F34A9
:100B0000623473347434613463346C346534223445
:100B10003A34223400342C34223467346F34613454
:100B20006C34563461346C347534653422343A3460
:100B300000342C34223467346F3461346C345434D0
:100B400079347034653422343A34003447344134D3
:100B50004D34453420344F345634453452342134E6
:100B600000342C34223467346F3461346C342234D2
:100B70003A342234003463346F346E34663469346A
:100B800067342E342E342E340034453473347034AC
:100B90006534723461346E3464346F3400344734F5
:100BA00041344E34413453345434453421340034C8
:100BB000533463346F34723465343A34203400343F
:100BC0006534723472346F34723400346F346B3481
:100BD0000034831203135F08D20003300310D20DD8
:100BE000FF3E031DEE2D0310520DA03E8400831323
:100BF0000003031DFC2DFD2D7C2EDD0101300A12AA
:100C00008A1564230A128A11033083120313D30056
:100C10009730D200D20B0A2ED30B0A2E8312031365
:100C2000C10100300A128A1519240A128A11A13052
:100C3000F7000A128A15C3230A128A1183120313BA
:100C4000C101C10A00300A128A1519240A128A1138
:100C5000D330F7000A128A15C3230A128A110A3008
:100C6000F3000030F400831203133F08D200D301D5
:100C70005208F5005308F6000A128A114B270A128F
:100C80008A117308303E83120313D5000A30C30063
:100C90000030C4003F08D200D3015208C5005308F9
:100CA000C6000A128A15A7270A128A118312031393
:100CB0004308303ED60055080A128A153D230A1211
:100CC0008A118312031356080A128A153D230A1249
:100CD0008A11103083120313D4003930D3000D3041
:100CE000D200D20B712ED30B712ED40B712E0A129F
:100CF0008A1518270A128A11080083120313081C88
:100D0000822E832EB12E5F080319872E882EB12ED6
:100D10005E08F30003300310F30DFF3E031D8B2E1E
:100D20000310730DA03E84002030831380005F0801
:100D3000DE00DF015F08F30003300310F30DFF3E18
:100D4000031D9D2E0310730DA03E840080011A30F8
:100D5000F400F830F300F30BAB2EF40BAB2E0000D5
:100D6000E32E881CB42EB52EE32E5F030319B92E93
:100D7000BA2EE32E5E08F30003300310F30DFF3E9E
:100D8000031DBD2E0310730DA03E8400203083137D
:100D900080005F08DE000130DF005F08F3000330F1
:100DA0000310F30DFF3E031DD02E0310730DA03E64
:100DB000840080011A30F400F830F300F30BDE2ECB
:100DC000F40BDE2E0000080001300A128A1564239D
:100DD0000A128A11033083120313CE009730CD001C
:100DE000CD0BF02ECE0BF02E0A128A1526230A12F6
:100DF0008A1183120313D001D1015008CD000430B1
:100E00000310CD0DFF3E031D002FA0304D07CE0077
:100E100051084E07CF004F08840020308313800014
:100E20000130D10710305102031C172F182FFD2E4F
:100E30000130D00702305002031C1F2F202FFC2E40
:100E40000130DF000130DE000130DD00DC01BF01D8
:100E50005F08CD0003300310CD0DFF3E031D2B2F87
:100E600003104D0DA03E840080010A128A159625BC
:100E70000A128A110A128A1506260A128A110130EC
:100E800083120313BD003130F4000A128A15DF23E8
:100E90000A128A11080083120313C201F41F512F92
:100EA000522F592FF309F409F30A0319F40A0130F8
:100EB000C200F61F5C2F5D2F642FF509F609F50AB5
:100EC0000319F60A0130C206C301C4017308740491
:100ED00003196B2F6C2FA12F0130C100782F013027
:100EE0000310F30DF40DFF3E031D702F0130C107F9
:100EF000F41F7B2F7C2F6F2F01300310C30DC40D07
:100F0000FF3E031D7D2F74087602031D892F730891
:100F10007502031C8C2F8D2F942F7308F502740813
:100F2000031CF603F602431401300310F40CF30C17
:100F3000FF3E031D952F0130C102031DA02FA12FDD
:100F40007C2F42080319A52FA62FAB2FC309C40974
:100F5000C30A0319C40A4408F4004308F300080054
:100F600083120313C900CA01CB01CC01E72F4B0840
:100F7000C2004A08C1000310C10DC20D4B08C400D5
:100F80004A08C3000310C30DC40D0310C30DC40DE4
:100F90000310C30DC40D4C08363E840000084307FF
:100FA000C50044080318440AC60041084507C700A5
:100FB00042080318420A4607C8004708D03ECA0044
:100FC00048080318013EFF3ECB000130CC0749081A
:100FD0004C020318EC2FED2FF62F4C08363E840000
:100FE00083130008031DF52FF62FB72F4B08F400CD
:0E0FF0004A08F30008000134013401340134D2
:10162A0064008001840A0406031900340406162B98
:10163A007A087906031D222B242B0130252B003032
:10164A0008000A128A15D3260A128A150A128A155E
:10165A008E260A128A150800F30083160313981CB3
:10166A00372B382B322B7308831203139900080087
:10167A00F6007608831203138600071487100A12ED
:10168A008A1590230A128A15A630F500F50B4B2B02
:10169A00000008000A128A151D230A128A15003A48
:1016AA000319582B592B4F2B79081F39C03E840038
:1016BA0083130008F3000130F90773080800F700E4
:1016CA007708831203138600071087100A128A15F7
:1016DA0090230A128A150730F6007D30F500F50BC3
:1016EA00742BF60B742B0800831603130713871742
:1016FA0007309F001930990018151812981683128E
:10170A00031398171816831603138C160B178B17C7
:10171A00FA01F90108008312031307150730F400D0
:10172A007D30F300F30B972BF40B972B83120313E3
:10173A0007110330F4009730F300F30BA22BF40BDC
:10174A00A22BA72B0800F3007908F400BB2B74081E
:10175A001F39C03E8400831300087306031DB62B8D
:10176A00B72BB92B0130C22B0130F40774087A0663
:10177A00031DC02BC12BAC2B00300800D22B7708DD
:10178A0084000A128A1100250A128A150A128A1579
:10179A003D230A128A150130F707770884000A12D6
:1017AA008A1100250A128A15003A031DDD2BDE2B49
:1017BA00C42B0800EE2B740884000A128A11002533
:1017CA000A128A150A128A1531230A128A15013059
:1017DA00F407740884000A128A1100250A128A156D
:1017EA00003A031DF92BFA2BE02B0800831203138E
:1017FA008C1E002C012C102C981C042C052C072C58
:10180A00181218167A081F39C03E84001A08831362
:10181A0080000130FA0772088A0071088400700E8D
:10182A008300FE0E7E0E090083120313C5004108D1
:10183A000319202C212C292C4508C03EC300003056
:10184A0003180130C400302C4508803EC300003024
:10185A0003180130C4004308C20042080A128A155C
:10186A0064230A128A1508000A128A11F9240A1234
:10187A008A15F3017308363E840083138001013010
:10188A00F30705307302031C4B2C4C2C3F2C83129C
:10189A000313981C512C522C562C18121816562C1D
:1018AA001A088C1A592C5A2C552C08008312031327
:1018BA00C1000830C200C3014108F4000730031018
:1018CA00F40CFF3E031D642C4308F50075077404ED
:1018DA00C3000310C10D73084302031C752C762C38
:1018EA00782C7308C3020130C202031D7D2C7E2CA2
:1018FA00612C430808002030831603132C06031DAD
:10190A00872C882CA62C20303C06031D8D2C8E2C6F
:10191A00A62C02300A128A1561250A128A15831228
:10192A000313CC004C08CB0003300310CB0DFF3E51
:10193A00031D9A2C03104B0DAC3E84000130831317
:10194A008000080083120313C101C201731CAE2C6C
:10195A00AF2CB72C750883120313C1070318C20AE8
:10196A007608C20701300310F50DF60DFF3E031D80
:10197A00B82C01300310F40CF30CFF3E031DBF2CEE
:10198A0073087404031DCA2CCB2CAB2C83120313CB
:10199A004208F4004108F3000800831203133308D5
:1019AA000319D82CD92CE32C34080319DD2CDE2C8E
:1019BA00E32C3508031DE22CE32CE52C0030FD2C2A
:1019CA00310832040319EA2CEB2CE32C27303202BB
:1019DA00103003193102031CF32CF42CF52CE32CE0
:1019EA0002303002031CFA2CFB2CFC2CE32C0130B5
:1019FA000800F5017508203EF30000300318013E87
:101A0A00F400730884008317741C8313800175081B
:101A1A00283EF30000300318013EF40073088400E6
:101A2A008317741C831380010130F507083075028F
:101A3A00031C202D212DFF2C013083120313B0002B
:101A4A000A30B1000030B200B301B401B501080098
:101A5A00831603138601071087100711413083127A
:101A6A000313C200ED30C100C10B392DC20B392D51
:101A7A003E2D38300A128A1564230A128A150C3050
:101A8A000A128A1564230A128A1501300A128A1563
:101A9A0064230A128A1506300A128A1564230A1266
:101AAA008A15033083120313C2009730C100C10B99
:101ABA005C2DC20B5C2D0800F7008312031301088A
:101ACA00BE07FB30C3000030C4003E08C900CA018B
:101ADA004908F3004A08F4000D30F5000030F6001A
:101AEA000A128A15A7240A128A157308113E83124C
:101AFA000313C50074080318013E003EC6000A120B
:101B0A008A15A7270A128A15831203134308BE00EF
:101B1A007708F3003E080A128A155B240A128A150E
:101B2A00080083120313CA014A08C10000300A12CE
:101B3A008A1519240A128A1583120313C9014A083D
:101B4A00C60004300310C60DFF3E031DA72DA030AA
:101B5A004607C70049084707C80048088400831396
:101B6A0000080A128A153D230A128A1501308312C7
:101B7A000313C9070D304902031CC42DC52DA42D1A
:101B8A000130CA0702304A02031CCC2DCD2D992DF3
:101B9A000800730874040319D32DD42D012E0130C3
:101BAA00F700E02D01300310F30DF40DFF3E031D85
:101BBA00D82D0130F707F41FE32DE42DD72D740833
:101BCA007602031DEA2D73087502031CED2DEE2D16
:101BDA00F42D7308F5027408031CF603F6020130AB
:101BEA000310F40CF30CFF3E031DF52D0130F70230
:101BFA00031D002E012EE42D7608F4007508F3006B
:101C0A0008000A30F3000030F400831203133F087F
:101C1A00C900CA014908F5004A08F6000A128A11E1
:101C2A004B270A128A157308303E83120313CB001E
:101C3A000A30C3000030C4003F08C900CA0149087D
:101C4A00C5004A08C6000A128A15A7270A128A1569
:101C5A00831203134308303ECC00C1010E300A122E
:101C6A008A1519240A128A15831203134B080A12B9
:101C7A008A153D230A128A15831203134C080A1285
:101C8A008A153D230A128A15080083120313C2011A
:101C9A00C301730874040319532E542E892E01307C
:101CAA00C100602E01300310F30DF40DFF3E031D39
:101CBA00582E0130C107F41F632E642E572E0130AF
:101CCA000310C20DC30DFF3E031D652E7408760274
:101CDA00031D712E73087502031C742E752E7C2E3B
:101CEA007308F5027408031CF603F6024214013065
:101CFA000310F40CF30CFF3E031D7D2E0130C102CC
:101D0A00031D882E892E642E4308F4004208F3002E
:101D1A00080048300A128A1564230A128A152030EC
:101D2A0083120313C100C10B982E00008312031300
:101D3A00C3014308283EC10000300318013EC20017
:101D4A00410884008317421C831300080A128A156B
:101D5A003D230A128A150F3083120313C100C10BE7
:101D6A00B42EB72E013083120313C307083043027F
:101D7A00031CC02EC12E9E2E80300A128A1564239F
:101D8A000A128A15203083120313C100C10BCB2E0D
:101D9A000000013083120313B400080040300A1215
:101DAA008A1564230A128A15203083120313C1008C
:101DBA00C10BDD2E000083120313C3014308203E2A
:101DCA00C10000300318013EC20041088400831795
:101DDA00421C831300080A128A153D230A128A1527
:101DEA000F3083120313C100C10BF92EFC2E0130F0
:101DFA0083120313C30708304302031C052F062F5F
:101E0A00E32E80300A128A1564230A128A152030BA
:101E1A0083120313C100C10B102F0000013083127B
:101E2A000313B300080083120313D001D101500831
:101E3A00CD0004300310CD0DFF3E031D1F2FA0302F
:101E4A004D07CE0051084E07CF004F0884002030BE
:101E5A00831380000130D10710305102031C362F42
:101E6A00372F1C2F0130D00702305002031C3E2F9F
:101E7A003F2F1B2F0130DF000130DE000130DD0073
:101E8A00DC01BF015F08CD0003300310CD0DFF3E1A
:101E9A00031D4A2F03104D0DA03E840080010A1233
:101EAA008A1596250A128A150A128A1506260A1210
:101EBA008A150800F401F301740883120313C100A0
:101ECA0004300310C10DFF3E031D662FA1304107E8
:101EDA00C20073084207C300430884008313000842
:101EEA00C4007408C50004300310C50DFF3E031D6D
:101EFA00792FA0304507C60073084607C700470870
:101F0A008400440880000130F3070C307302031C7C
:101F1A008F2F902F612F7408C10003300310C10D59
:101F2A00FF3E031D932F0310410DAC3E8400203069
:101F3A0080000130F40702307402031CA52FA62F7B
:101F4A00602F080083120313C801C61FAD2FAE2FDE
:101F5A00B52FC509C609C50A0319C60A0130C80042
:101F6A00C41FB82FB92FBE2FC309C409C30A031946
:101F7A00C40A430844040319C32FC42FF12F0130A4
:101F8A00C700D02F01300310C30DC40DFF3E031D3F
:101F9A00C82F0130C707C41FD32FD42FC72F440817
:101FAA004602031DDA2F43084502031CDD2FDE2FEC
:101FBA00E42F4308C5024408031CC603C6020130C5
:101FCA000310C40CC30CFF3E031DE52F0130C702EA
:101FDA00031DF02FF12FD42F48080319F52FF62FE0
:101FEA00FB2FC509C609C50A0319C60A4608C40053
:061FFA004508C3000800C9
:02400E00313F40
:00000001FF
