:060000000A128A110E280D
:10000800FE00030EF0000408F1000A08F2000A12CC
:100018008A117C2D0A128A111128F901FA01831319
:100028002030840053300A128A117A260A128A1163
:1000380083010A128A115F2A83120313D501D6019C
:1000480037280D3083120313D400FB30D300D30BB1
:100058002B28D40B2B28013083120313D507031840
:10006800D60A0030D6077B300A128A11B6250A1242
:100078008A11003A031D412842284D280330831273
:1000880003135602E83003195502031C4C284D2867
:1000980025280330831203135602E830031955024A
:1000A800031C5728582859285E2A0A128A112B2619
:1000B8000A128A117B3A031D6228632859280A12FA
:1000C8008A112B260A128A1183120313DD002230AB
:1000D8005D06031D7028712863280A128A112B26D1
:1000E8000A128A11633A031D7A287B2863280A12A8
:1000F8008A112B260A128A115B3A031D8428852847
:100108007B2883120313DB01DC010A128A112B26D8
:100118000A128A1183120313DD0020305D060319C9
:100128009628972889282C305D0603199C289D2835
:100138008928AE285C08573E84005D088313800038
:100148000130DC070A128A112B260A128A1183123F
:100158000313DD0030305D02031CB328B428BA282D
:100168003A305D02031CB928BA289E285C08573E1D
:100178008400831380015B084B3E84008001DC010E
:10018800E2285C08573E84000008D3000A30F300D8
:100198005B084B3E840000080A128A1140260A12A6
:1001A8008A11831203135307D03ED4005B084B3ED9
:1001B80084005408831380000130DC075C08573E34
:1001C80084000008031DE928EA28C5280130DB0758
:1001D80008305B02031CF128F22888280A128A11C9
:1001E8002B260A128A1183120313DD0022305D06C2
:1001F800031DFF280029F2280A128A112B260A1249
:100208008A116F3A031D09290A29F2280A128A114C
:100218002B260A128A115B3A031D132914290A296D
:1002280083120313DB01DC010A128A112B260A123E
:100238008A1183120313DD0020305D060319252976
:10024800262918292C305D0603192B292C29182951
:100258003D295C08573E84005D0883138000013007
:10026800DC070A128A112B260A128A118312031339
:10027800DD0030305D02031C4229432949293A3008
:100288005D02031C482949292D295C08573E840032
:10029800831380015B08433E84008001DC017129DF
:1002A8005C08573E84000008D3000A30F3005B085E
:1002B800433E840000080A128A1140260A128A1155
:1002C800831203135307D03ED4005B08433E8400D7
:1002D8005408831380000130DC075C08573E840013
:1002E8000008031D7829792954290130DB070830D3
:1002F8005B02031C8029812917290A128A112B26DF
:100308000A128A1183120313DD0067305D06031D8C
:100318008E298F2981290A128A112B260A128A11FD
:1003280083120313DD006F305D06031D9C299D2990
:1003380081290A128A112B260A128A110A128A1195
:100348002B260A128A113A3A031DAB29AC29A22995
:100358000A128A112B260A128A11223A031DB5297C
:10036800B629AC290A128A112B260A128A1183127D
:100378000313DD0074305D06031DC329C429C62993
:10038800C001CE296F305D06031DCB29CC29CE29AB
:100398000130C0000A128A112B260A128A11831210
:1003A8000313DD0067305D06031DDB29DC29CE2938
:1003B8000A128A112B260A128A1183120313DD00EE
:1003C8006F305D06031DE929EA29CE290A128A1130
:1003D8002B260A128A113A3A031DF329F429EA292D
:1003E80083120313DC010A128A112B260A128A11BE
:1003F80083120313DD0020305D060319042A052A41
:10040800F7292C305D0603190A2A0B2AF7291C2A1A
:100418005C08573E84005D08831380000130DC07C8
:100428000A128A112B260A128A1183120313DD007D
:1004380030305D02031C212A222A282A3A305D0224
:10044800031C272A282A0C2A5C08573E8400831399
:100458008001C101C201DC01562A5C08573E8400B4
:100468004208F4004108F3000A30F5000030F600B5
:100478000A128A1137250A128A1183130008730792
:1004880083120313D3000030031801307407D4001B
:100498005308D03EC10054080318013EFF3EC20075
:1004A8000130DC075C08573E84000008031D5D2A04
:1004B8005E2A312A08000A128A11E9250A128A11CD
:1004C8000A128A1103250A128A1183120313E20100
:1004D80062084B3E8400831380016208433E840017
:1004E80080010130E20708306202031C7C2A7D2A61
:1004F8006C2A0130C0000A30C1000030C20013303D
:10050800F4000A128A119A250A128A11F801003099
:100518000A128A1100260A128A112D308312031337
:10052800DB000A128A115C250A128A11F801F80AFE
:1005380000300A128A1100260A128A112330831207
:100548000313DB000A128A115C250A128A117D3016
:100558000A128A11B6250A128A11003A0319B52A15
:10056800B62AD52B823083120313E100DD30E00078
:10057800E00BBC2AE10BBC2A0A128A1120200A12BD
:100588008A1101300A128A1116260A128A110330BA
:1005980083120313E1009730E000E00BD12AE10B4E
:1005A800D12A4B3083120313DB0000300A128A1160
:1005B800CD240A128A11433083120313DB00013061
:1005C8000A128A11CD240A128A11F80100300A127F
:1005D8008A1100260A128A11443083120313DB00A1
:1005E8000A128A115C250A128A1100300A128A112D
:1005F80053260A128A11373083120313DB000A12BA
:100608008A115C250A128A1101300A128A115326AE
:100618000A128A11F801F80A00300A128A11002613
:100628000A128A113E3083120313DB000A128A1160
:100638005C250A128A11831203134008031D252B17
:10064800262B2D2B54300A128A1153260A128A118E
:10065800332B4F300A128A1153260A128A113D3061
:100668000A128A1153260A128A11E830F30003305D
:10067800F400831203134208F6004108F5000A1239
:100688008A114F240A128A117308303E0A128A11FD
:1006980053260A128A110A3083120313D600003037
:1006A800D7006430F3000030F4004208F600410837
:1006B800F5000A128A114F240A128A11740883124B
:1006C8000313D9007308D8000A128A1193240A1256
:1006D8008A11831203135608303E0A128A115326D0
:1006E8000A128A110A3083120313D6000030D70089
:1006F8000A30F3000030F4004208F6004108F50023
:100708000A128A114F240A128A11740883120313D9
:10071800D9007308D8000A128A1193240A128A1180
:10072800831203135608303E0A128A1153260A12FE
:100738008A110A3083120313D6000030D70042080A
:10074800D9004108D8000A128A1193240A128A1182
:10075800831203135608303E0A128A1153260A12CE
:100768008A11823083120313E100DD30E000E00BD0
:10077800BB2BE10BBB2B0130F4000A128A119A251E
:100788000A128A110A128A1182260A128A118230E2
:1007980083120313E100DD30E000E00BD12BE10B05
:1007A800D12B0D3083120313E100FB30E000E00B86
:0E07B800DB2BE10BDB2BAB2A0A128A110E2879
:1008000004308A000408840A820700347B342234CE
:1008100073347434613474347534733422343A3438
:1008200022346F346B3422347D340D340A34003476
:10083000533469347334743465346D346134203422
:100840006C346934733474346F340D340A340034C6
:1008500063346F346E346634693467342E342E3426
:100860002E3400344534733470346534723461345A
:100870006E3464346F34003420344F346234733453
:1008800074343A3400344D346534743461343A3459
:10089000003443346834613472343A34003483129F
:1008A0000313D401D501730874040319582C592C6F
:1008B0008E2C0130D300652C01300310F30DF40DA4
:1008C000FF3E031D5D2C0130D307F41F682C692CFB
:1008D0005C2C01300310D40DD50DFF3E031D6A2C96
:1008E00074087602031D762C73087502031C792C9C
:1008F0007A2C812C7308F5027408031CF603F602A7
:10090000541401300310F40CF30CFF3E031D822C31
:100910000130D302031D8D2C8E2C692C5508F40058
:100920005408F300080083120313560857040319F0
:100930009A2C9B2CC82C0130F700A72C01300310F7
:10094000D60DD70DFF3E031D9F2C0130F707D71F93
:10095000AA2CAB2C9E2C57085902031DB12C56080B
:100960005802031CB42CB52CBB2C5608D8025708CF
:10097000031CD903D90201300310D70CD60CFF3E5B
:10098000031DBC2C0130F702031DC72CC82CAB2C57
:100990005908D7005808D600080083120313DD0059
:1009A0005D080739DC0002300310DC0DFF3E031D3B
:1009B000D42C03105C0D4038DE005E080A128A1148
:1009C00016260A128A1183120313DF015F085B07E0
:1009D000DC005C088400831300080A128A11532685
:1009E0000A128A11013083120313DF0708305F02F5
:1009F000031CFB2CFC2CE62C80300A128A111626D4
:100A00000A128A1108008316031386010710871043
:100A10000711413083120313D400ED30D300D30B00
:100A20000F2DD40B0F2D142D38300A128A111626D3
:100A30000A128A110C300A128A1116260A128A1119
:100A400001300A128A1116260A128A1106300A1279
:100A50008A1116260A128A11033083120313D40056
:100A60009730D300D30B322DD40B322D0800F70171
:100A7000F801731C3C2D3D2D432D7508F707031815
:100A8000F80A7608F80701300310F50DF60DFF3E61
:100A9000031D442D01300310F40CF30CFF3E031D25
:100AA0004B2D73087404031D562D572D392D7808CE
:100AB000F4007708F30008006D2D5B0884000A122B
:100AC0008A1100240A128A110A128A1153260A1264
:100AD0008A11013083120313DB07831203135B08AF
:100AE00084000A128A1100240A128A11003A031D96
:100AF0007A2D7B2D5D2D0800831203138C1E812D12
:100B0000822D912D981C852D862D882D1812181652
:100B10007A081F39203E84001A08831380000130B0
:100B2000FA0772088A0071088400700E8300FE0EB6
:100B30007E0E0900A92D740884000A128A1100246F
:100B40000A128A110A128A1165260A128A110130C4
:100B5000F407740884000A128A1100240A128A1108
:100B6000003A031DB42DB52D9B2D0800F300790824
:100B7000F400C92D74081F39203E84008313000837
:100B80007306031DC42DC52DC72D0130D02D013096
:100B9000F40774087A06031DCE2DCF2DBA2D003030
:100BA00008008312031307150730F4007D30F300AB
:100BB000F30BD82DF40BD82D831203130711033038
:100BC000F4009730F300F30BE32DF40BE32DE82D45
:100BD0000800831603130713871707309F00193087
:100BE00099001815181298168312031398171816DF
:100BF000831603138C160B178B17FA01F9010800E3
:100C000083120313D4007808031D072E082E0C2E20
:100C10005408803ED3000F2E5408C03ED300530822
:100C20000A128A1116260A128A110800F70077089C
:100C3000831203138600071087100A128A11D12528
:100C40000A128A110730F6007D30F500F50B262ECA
:100C5000F60B262E08000A128A1171260A128A1132
:100C6000003A0319342E352E2B2E79081F39203ED9
:100C7000840083130008F3000130F90773080800AB
:100C8000F500F401751C452E462E482E7308F40716
:100C90000310F30D0310F50C7508031D502E512E93
:100CA000422E7408080083120313DA005A088600E3
:100CB000071487100A128A11D1250A128A11A63048
:100CC000F800F80B612E00000800F30083160313F0
:100CD000981C6B2E6C2E662E7308831203139900DA
:100CE00008007A087906031D762E782E0130792EB9
:100CF0000030080064008001840A040603190034EF
:0A0D000004067B2E7A08F9000800B3
:02400E00313F40
:00000001FF
