:060000000A128A110E280D
:10000800FE00030EF0000408F1000A08F2000A12CC
:100018008A11E9290A128A111128F901FA018313B0
:100028002030840030300A128A1192220A128A1172
:10003800A0308400E0300A128A1192220A128A1132
:1000480083010A128A1151290A128A1155220A12A9
:100058008A117B3A031D3128322828280A128A116E
:1000680055220A128A1183120313B600223036066B
:10007800031D3F28402832280A128A1155220A12E5
:100088008A11633A031D49284A2832280A128A111C
:1000980055220A128A115B3A031D532854284A280C
:1000A80083120313B501B4010A128A1155220A12E8
:1000B8008A1183120313B600203036060319652807
:1000C800662858282C30360603196B286C285828BF
:1000D8007D283408303E84003608831380000130C0
:1000E800B4070A128A1155220A128A1183120313BD
:1000F800B60030303602031C8228832889283A301B
:100108003602031C882889286D283408303E84006C
:10011800831380013508283E84008001B401B1288A
:100128003408303E84000008F6000A30F300350831
:10013800283E840000080A128A116A220A128A11CB
:100148007607D03EF700831203133508283E840053
:100158007708831380000130B4073408303E8400E8
:100168000008031DB828B92894280130B5070830BD
:100178003502031CC028C12857280A128A115522A3
:100188000A128A1183120313B60022303606031DA1
:10019800CE28CF28C1280A128A1155220A128A119C
:1001A8006F3A031DD828D928C1280A128A11552266
:1001B8000A128A115B3A031DE228E328D928831220
:1001C8000313B501B4010A128A1155220A128A11C1
:1001D80083120313B600203036060319F428F528D5
:1001E800E7282C3036060319FA28FB28E7280C29BB
:1001F8003408303E84003608831380000130B40789
:100208000A128A1155220A128A1183120313B600A0
:1002180030303602031C1129122918293A303602C7
:10022800031C17291829FC283408303E840083133E
:1002380080013508203E84008001B401402934083B
:10024800303E84000008F6000A30F3003508203EEE
:10025800840000080A128A116A220A128A11760793
:10026800D03EF700831203133508203E8400770838
:10027800831380000130B4073408303E840000083E
:10028800031D4729482923290130B50708303502BD
:10029800031C4F295029E62808000A128A113E2219
:1002A8000A128A110130F4000A128A1107220A126E
:1002B8008A117D300A128A1123220A128A11003A01
:1002C8000319672968295D290A128A1128200A1248
:1002D8008A111E30F4000A128A1107220A128A11A2
:1002E800F8017808283E840083130008303E0A127B
:1002F8008A117D220A128A1120300A128A117D225F
:100308000A128A110130F80708307802031C8D2977
:100318008E2975291130F4000A128A1107220A124F
:100328008A11F8017808203E840083130008303EC3
:100338000A128A117D220A128A1120300A128A11A1
:100348007D220A128A110130F80708307802031C4E
:10035800AE29AF2996290E30F4000A128A11072215
:100368000A128A115D290A128A110E2801308A00A0
:100378000408840A820700345334693473347434AB
:1003880065346D34613420346C34693473347434B6
:100398006F340D340A3400340D340A344F34623467
:1003A80073347434613463346C3465343A342034CF
:1003B80000344334683461347234613463347434DF
:1003C800653472343A3420340034831203138C1E9B
:1003D800EE29EF29FE29981CF229F329F52918128C
:1003E80018167A083F39A03E84001A088313800043
:1003F8000130FA0772088A0071088400700E8300C1
:10040800FE0E7E0E0900162A740884000A128A114C
:10041800BA210A128A110A128A117D220A128A1135
:100428000130F407740884000A128A11BA210A12EA
:100438008A11003A031D212A222A082A0800F300FB
:100448007908F400362A74083F39A03E84008313E3
:1004580000087306031D312A322A342A01303D2A46
:100468000130F40774087A06031D3B2A3C2A272A20
:1004780000300800831603130713871707309F00FF
:100488001930990018151812981683120313981723
:100498001816831603138C160B178B17FA01F9011C
:1004A80008000A128A1189220A128A11003A0319CD
:1004B8005E2A5F2A552A79083F39A03E84008313B3
:1004C8000008F3000130F90773080800F500F4018B
:1004D800751C6F2A702A722A7308F4070310F30D2B
:1004E8000310F50C7508031D7A2A7B2A6C2A7408F8
:1004F8000800F30083160313981C832A842A7E2A93
:10050800730883120313990008007A087906031DFB
:100518008E2A902A0130912A003008006400800158
:0C052800840A0406031900340406932A18
:02400E00313F40
:00000001FF
