:060000000A128A110E280D
:10000800FE00030EF2000408F3000A08F4000A12C6
:100018008A15BD2C0A128A1111280A128A15EF2195
:100028000A128A11EC000A128A15F0210A128A11A2
:10003800ED000A128A15F1210A128A11EE000A123D
:100048008A15EA210A128A11F7000A128A15EB2189
:100058000A128A11F8008313A0308400BA300A12F9
:100068008A15F2210A128A112030840053300A12AC
:100078008A15F2210A128A11F501F60183010A1282
:100088008A113D2B83120313B3017B300A128A15A0
:10009800BC220A128A11003A031953285428492805
:1000A8000A128A1589220A128A117B3A031D5D28D1
:1000B8005E2854280A128A1589220A128A11831284
:1000C8000313E90022306906031D6B286C285E289B
:1000D8000A128A1589220A128A11633A031D7528A1
:1000E80076285E280A128A1589220A128A115B3A32
:1000F800031D7F288028762883120313E8010A123B
:100108008A1581240A128A1183120313E7006708EB
:100118000A128A15C8250A128A118312031356086F
:10012800E4006808203EE50000300318013EE600C0
:10013800650884008317661C8313640880000130F7
:10014800E80708306802031CAA28AB288328331460
:100158000A128A1589220A128A1183120313E900E6
:1001680022306906031DB928BA28AC280A128A1554
:1001780089220A128A116F3A031DC328C428AC28A1
:100188000A128A1589220A128A115B3A031DCD28A0
:10019800CE28C42883120313E8010A128A15812481
:1001A8000A128A1183120313E70067080A128A15D4
:1001B800C8250A128A11831203135608E400680836
:1001C800283EE50000300318013EE600650884007B
:1001D8008317661C8313640880000130E807083021
:1001E8006802031CF828F928D128B3140A128A15C2
:1001F80089220A128A1183120313E9002230690640
:10020800031D07290829FA280A128A1589220A12C1
:100218008A1183120313E90067306906031D152943
:100228001629FA280A128A1589220A128A118312B3
:100238000313E9006F306906031D23292429FA28CE
:100248000A128A1589220A128A11613A031D2D2978
:100258002E29FA280A128A1589220A128A113A3A8C
:10026800031D372938292E290A128A1589220A12CC
:100278008A11223A031D4129422938290A128A156E
:1002880089220A128A1183120313E900743069065D
:10029800031D4F2950296129B0010A128A158922A4
:1002A8000A128A110A128A1589220A128A110A1256
:1002B8008A1589220A128A1173290130B000E801CF
:1002C8000A128A1589220A128A110130831203132D
:1002D800E80708306802031C7229732964290A1286
:1002E8008A1589220A128A1183120313E90022301F
:1002F8006906031D8029812973290A128A15892212
:100308000A128A1183120313E90067306906031D74
:100318008E298F2973290A128A1589220A128A11AD
:1003280083120313E9006F306906031D9C299D2978
:1003380073290A128A1589220A128A11613A031D41
:10034800A629A72973290A128A1589220A128A114D
:100358003A3A031DB029B129A7290A128A1581241E
:100368000A128A110A128A15C8250A128A118312DA
:1003780003135708B2005608B1003315080031308E
:1003880083120313D4000A128A15F7220A128A115B
:10039800831203134508E6004408E500E7016508F1
:1003A8006604031DD829D929092A3030E100013013
:1003B800E707552A6708613E84000A30D3000030F9
:1003C800D4006608D6006508D5000A128A154724A5
:1003D8000A128A11831203135308303E83138000D4
:1003E8000130E7070A30D3000030D4006608D60091
:1003F8006508D5000A128A153C250A128A1183124B
:1004080003135408E6005308E50065086604031D55
:100418000E2A0F2ADE29E801382A831203136808F6
:10042800613E840083130008DE006130DB00680849
:10043800DB0267085B07DC005C08FF3E84000008FD
:10044800DD006808613E84005D0880006130DB00E3
:100458006808DB0267085B07DC005C08FF3E840075
:100468005E0880000130E8070230D3000030D40075
:100478006708DB00DC015B08D5005C08D6000A12BF
:100488008A118C270A128A11831203135408803A9E
:10049800803C031D512A53086802031C542A552A1C
:1004A800112A83120313E801672A6808613E840051
:1004B800831300080A128A11F1270A128A110130DF
:1004C80083120313E80767086802031C6C2A6D2A65
:1004D800592A7D30D4000A128A15F7220A128A1185
:1004E800831203134708E6004608E500E70165089C
:1004F8006604031D802A812AB12A3030E1000130C8
:10050800E707FD2A6708613E84000A30D3000030FF
:10051800D4006608D6006508D5000A128A15472453
:100528000A128A11831203135308303E8313800082
:100538000130E7070A30D3000030D4006608D6003F
:100548006508D5000A128A153C250A128A118312F9
:1005580003135408E6005308E50065086604031D04
:10056800B62AB72A862AE801E02A83120313680804
:10057800613E840083130008DF006130DB006808F7
:10058800DB0267085B07DC005C08FF3E84000008AC
:10059800DD006808613E84005D0880006130DB0092
:1005A8006808DB0267085B07DC005C08FF3E840024
:1005B8005F0880000130E8070230D3000030D40023
:1005C8006708DB00DC015B08D5005C08D6000A126E
:1005D8008A118C270A128A11831203135408803A4D
:1005E800803C031DF92A53086802031CFC2AFD2AD3
:1005F800B92A83120313E8010F2B6808613E8400AF
:10060800831300080A128A11F1270A128A1101308D
:1006180083120313E80767086802031C142B152BC1
:10062800012B3F30D4000A128A15F7220A128A11C8
:10063800831203134818212B222B252B9730E00017
:10064800272BA030E0006008D4000A128A15F72290
:100658000A128A11923083120313D4000A128A15DF
:10066800F7220A128A11831203131010FD30C805ED
:10067800080083160313860187010330880083125C
:1006880003138801870186018316031381168111DC
:100698000730810407309F0007309C000A128A1532
:1006A8004D220A128A110A128A15DC230A128A11AB
:1006B8000A128A153A220A128A110A128A15AF23D7
:1006C8000A128A11831203130108D100D0010B17F3
:1006D8008B17D60100300A128A15D9220A128A11FC
:1006E8006A3083120313DC000A128A1517230A12D0
:1006F8008A1183120313D601D60A00300A128A150A
:10070800D9220A128A11563083120313DC000A1206
:100718008A1517230A128A117D300A128A15BC22FB
:100728000A128A11003A03199A2B9B2BCF2B83129A
:100738000313D018A02BA12BCF2B41308312031306
:10074800EB00ED30EA00EA0BA72BEB0BA72BAC2B49
:100758000A128A1146200A128A110A128A15A02240
:100768000A128A11003A0319BA2BBB2BCF2B0A1293
:100778008A151D260A128A110A128A1520270A12BA
:100788008A110A128A1572260A128A110A128A1501
:10079800EC210A128A1183120313D01CD42BD52BF7
:1007A8008A2C501CD82BD92B8A2C01308316031382
:1007B800BB0021030319E12BE22BE82B2E030319BD
:1007C800E62BE72BE82BBB013B08BA000A128A1577
:1007D800FA240A128A11013083120313EC074D0818
:1007E8006C02031CF82BF92BFF2BEC010A128A155B
:1007F80083230A128A110A128A1580250A128A117D
:10080800831603133A0803190A2C0B2C5F2C0D309E
:1008180083120313D3006E080A128A1574220A126F
:100828008A11A03E840083130003031D1C2C1D2C79
:10083800552CFE3083120313D005FE30C8050A126A
:100848008A1199240A128A110A128A11C3210A12DA
:100858008A11FD3083120313D005D60100300A1225
:100868008A15D9220A128A116A3083120313DC000E
:100878000A128A1517230A128A1183120313D60142
:10088800D60A00300A128A15D9220A128A1156305D
:1008980083120313DC000A128A1517230A128A111D
:1008A800902B013083120313D2070130C4070318B9
:1008B800C50A0030C5070A128A157B270A128A1151
:1008C80083120313501C692C6A2C8A2C0D30D30018
:1008D8006E080A128A1574220A128A11A03E840030
:1008E800831380010A128A1510240A128A110A1227
:1008F8008A11D3260A128A11823083120313EB005D
:10090800DD30EA00EA0B862CEB0B862C07308312CD
:100918000313EB007C30EA00EA0B902CEB0B902CD5
:100928000000902B0A128A110E2801300A128A152B
:1009380060220A128A11033083120313DE009730F3
:10094800DD00DD0BA52CDE0BA52C83120313D601CD
:1009580003300A128A15D9220A128A1160308312CA
:100968000313DC000A128A1517230A128A1183124C
:100978000313D601D60A00300A128A15D9220A12A0
:100988008A11A73083120313DC000A128A15172371
:100998000A128A1100308312031345020A30031920
:1009A8004402031CD82CD92CEF2C0A30D300003079
:1009B800D4004508D6004408D5000A128A153C25FB
:1009C8000A128A11831203135308303E0A128A1539
:1009D8000E220A128A110A3083120313D300003040
:1009E800D4004508D6004408D5000A128A154724C1
:1009F8000A128A11831203135308303E0A128A1509
:100A08000E220A128A119C3083120313DC000A1288
:100A18008A1517230A128A1100308312031347021A
:100A28000A3003194602031C1A2D1B2D312D0A30DA
:100A3800D3000030D4004708D6004608D5000A1273
:100A48008A153C250A128A11831203135308303E73
:100A58000A128A150E220A128A110A308312031307
:100A6800D3000030D4004708D6004608D5000A1243
:100A78008A1547240A128A11831203135308303E39
:100A88000A128A150E220A128A1173300A128A155E
:100A98000E220A128A11831203133003031D552DE7
:100AA800562D962DA430DC000A128A1517230A1237
:100AB8008A1100308312031332020A3003193102FB
:100AC800031C672D682D7E2D0A30D3000030D4001A
:100AD8003208D6003108D5000A128A153C250A12B8
:100AE8008A11831203135308303E0A128A150E2204
:100AF8000A128A110A3083120313D3000030D4007B
:100B08003208D6003108D5000A128A1547240A127D
:100B18008A11831203135308303E0A128A150E22D3
:100B28000A128A1183120313E0010230831203139D
:100B3800DF000430DE00B930DD00DD0BA12DDE0B57
:100B4800A12DDF0BA12DA82D08300A128A156022CD
:100B58000A128A11C33083120313DE00CC30DD0081
:100B6800DD0BB42DDE0BB42D00000C300A128A15F3
:100B780060220A128A11013083120313E00705303C
:100B88006002031CC82DC92D992D0B308312031345
:100B9800DF002630DE005D30DD00DD0BD12DDE0B01
:100BA800D12DDF0BD12D080001300A128A156022E1
:100BB8000A128A11033083120313DE009730DD0016
:100BC800DD0BE42DDE0BE42D83120313D601043074
:100BD8000A128A15D9220A128A1174308312031351
:100BE800DC000A128A1517230A128A1183120313CA
:100BF800D601D60A00300A128A15D9220A128A1199
:100C0800863083120313DC000A128A1517230A128E
:100C18008A1100308312031345020A300319440273
:100C2800031C172E182E2E2E0A30D3000030D400A5
:100C38004508D6004408D5000A128A153C250A1230
:100C48008A11831203135308303E0A128A150E22A2
:100C58000A128A110A3083120313D3000030D40019
:100C68004508D6004408D5000A128A1547240A12F6
:100C78008A11831203135308303E0A128A150E2272
:100C88000A128A119C3083120313DC000A128A1597
:100C980017230A128A1100308312031347020A30FD
:100CA80003194602031C592E5A2E702E0A30D300FF
:100CB8000030D4004708D6004608D5000A128A1525
:100CC8003C250A128A11831203135308303E0A1274
:100CD8008A150E220A128A110A3083120313D300CE
:100CE8000030D4004708D6004608D5000A128A15F5
:100CF80047240A128A11831203135308303E0A123A
:100D08008A150E220A128A1173300A128A150E22C7
:100D18000A128A1183120313E001033083120313AA
:100D2800DF008A30DE005530DD00DD0B992EDE0B4A
:100D3800992EDF0B992E08300A128A1560220A12A2
:100D48008A11023083120313DF008630DE009830E8
:100D5800DD00DD0BAD2EDE0BAD2EDF0BAD2E000062
:100D68000C300A128A1560220A128A110130831285
:100D78000313E00703306002031CC32EC42E912E18
:100D88000B3083120313DF002630DE005D30DD00F8
:100D9800DD0BCC2EDE0BCC2EDF0BCC2E0800831205
:100DA80003133003031DD92EDA2E2E2FD6010E3051
:100DB8000A128A15D9220A128A110A3083120313D9
:100DC800D3000030D4005208DC00DD015C08D500F7
:100DD8005D08D6000A128A118C270A128A1183121A
:100DE80003135308303E0A128A150E220A128A117A
:100DF8000A3083120313D3000030D4005208DC00F9
:100E0800DD015C08D5005D08D6000A128A15C726E0
:100E18000A128A11831203135308303E0A128A15E4
:100E28000E220A128A1183120313D601D60A0E3033
:100E38000A128A15D9220A128A1120300A128A1532
:100E48000E220A128A1120300A128A150E220A125C
:100E58008A118B2FD6010E300A128A15D9220A124E
:100E68008A1100308312031347020A30031946021D
:100E7800031C3F2F402F572F0A30D3000030D400D7
:100E88004708D6004608D5000A128A153C250A12DA
:100E98008A11831203135308303E0A128A150E2250
:100EA8000A128A115D2F20300A128A150E220A12A0
:100EB8008A110A3083120313D3000030D400470884
:100EC800D6004608D5000A128A1547240A128A1144
:100ED800831203135308303E0A128A150E220A128F
:100EE8008A1183120313D601D60A0E300A128A1504
:100EF800D9220A128A1120300A128A150E220A12E1
:100F08008A1120300A128A150E220A128A11080044
:100F180083120313D801D41F922F932F9A2FD3092A
:100F2800D409D30A0319D40A0130D800D61F9D2F3B
:100F38009E2FA52FD509D609D50A0319D60A01303F
:100F4800D806D901DA01530854040319AC2FAD2F80
:100F5800E22F0130D700B92F01300310D30DD40D83
:100F6800FF3E031DB12F0130D707D41FBC2FBD2F63
:100F7800B02F01300310D90DDA0DFF3E031DBE2F2F
:100F880054085602031DCA2F53085502031CCD2FBF
:100F9800CE2FD52F5308D5025408031CD603D602EA
:100FA800591401300310D40CD30CFF3E031DD62F67
:100FB8000130D702031DE12FE22FBD2F5808031976
:100FC800E62FE72FEC2FD909DA09D90A0319DA0A2B
:100FD8005A08D4005908D300080083120313D30019
:100FE80083160313981CF92FFA2FF42F8312031377
:060FF800530899000800F7
:1010000008308A000408840A820700347B342234C2
:1010100073347434613474347534733422343A3430
:1010200022346C346F346134643465346434223473
:101030002C34223463346834613472346134633460
:1010400074346534723422343A3422340034223415
:101050002C3422346F346234733474346134633426
:101060006C34653422343A34223400347B342234F4
:101070006F34623473347434613463346C34653483
:10108000733422343A3400342C34223472346534CC
:10109000733475346C34743422343A34223400346A
:1010A00022342C34223467346F3461346C3422346B
:1010B0003A342234003463346F346E346634693425
:1010C00067342E342E342E340034473441344D34BA
:1010D000453420344F34563445345234003445348A
:1010E000733470346534723461346E3464346F3404
:1010F000003459344F3455342034573449344E3445
:10110000213400342C342234743469346D34653421
:1011100022343A3400344F346234733474343A3401
:1011200000346534723472346F34723400342234D3
:101130007D340D340A3400346C346F3473346534C8
:101140000034203454343A340034773469346E3403
:10115000003420342F3400344F343A3400346F34A8
:041160006B340034B8
:1013D400053402347608F500080001340134013480
:1013E40064008001840A0406031900340406F32906
:1013F40076087506031DFF29012A0130022A0030F0
:10140400080004300A128A155C230A128A15023E67
:1014140083120313CD00080083120313DB005B085F
:101424008600071487100A128A151B220A128A15CD
:101434000800831203130715203083120313D3000B
:10144400D30B222A0000831203130711080083120E
:101454000313C401C501C601C7010230C800CE018F
:10146400CF010B308F00DC308E000C1010140800FC
:101474008312031310109010101690160B308F0067
:10148400DC308E000C10831603130C148312031328
:10149400CF01CE01080083160313071387171930F1
:1014A4009900181518129816831203139817181612
:1014B400831603138C160B178B1708008312031360
:1014C400D50055088600071087100A128A151B22BA
:1014D4000A128A150F3083120313D400D40B702A16
:1014E400732A080083120313D500D401551C7B2AE8
:1014F4007C2A7E2A5308D4070310D30D0310D50C7D
:101504005508031D862A872A782A540808000A12D7
:101514008A15FA210A128A15003A0319922A932A83
:10152400892A75080F39343E840083130008831216
:101534000313D3000130F507530808008312031383
:10154400D30107303306031DA82AA92ABA2A310871
:1015540032040319AE2AAF2ABA2A03303202E83021
:10156400031931020318B72AB82ABA2A0130D30062
:101574005308080083120313D3007508D400D12A3A
:1015840054080F39343E8400831300085306031DA6
:10159400CC2ACD2ACF2A0130D82A0130D4075408C6
:1015A4007606031DD62AD72AC22A003008008312E1
:1015B4000313D90056080319E02AE12AE92A590835
:1015C400C03ED700003003180130D800F02A590873
:1015D400803ED700003003180130D80057080A12A3
:1015E4008A1560220A128A150800082B5408840000
:1015F4000A128A1500200A128A150A128A11F12782
:101604000A128A15013083120313D40783120313B9
:10161400540884000A128A1500200A128A15003A16
:10162400031D152B162BF82A0800282B5C088400B0
:101634000A128A1500200A128A150A128A150E2225
:101644000A128A15013083120313DC078312031371
:101654005C0884000A128A1500200A128A15003ACE
:10166400031D352B362B182B080083120313D600C9
:101674000830D700D8015608D40007300310D40C22
:10168400FF3E031D402B5808D50055075404D800CD
:101694000310D60D53085802031C512B522B542B04
:1016A4005308D8020130D702031D592B5A2B3D2B66
:1016B4005808080083120313DA000108D1074E0802
:1016C400D90002300310D90DFF3E031D642B031013
:1016D400590DD1064F08D1074930D30051080A12D9
:1016E4008A1574220A128A152F3E83120313D1001D
:1016F4005A08D30051080A128A1537230A128A1588
:1017040008002030831603132C06031D8A2B8B2B11
:10171400AE2B20303906031D902B912BAE2B643059
:101724000A128A155C230A128A1583120313DB003A
:1017340032305B0203189F2BA02BA52B013083169C
:101744000313AC00A92B013083160313B9000A124A
:101754008A1503220A128A15080083120313D5017D
:101764005508203ED30000300318013ED40053082E
:1017740084008317541C831380015508283ED3002A
:1017840000300318013ED400530884008317541C0E
:10179400831380010130D50708305502031CD32B75
:1017A400D42BB22B0130B0000A30B1000030B200AB
:1017B400B30108008316031386010710871007116D
:1017C400413083120313D700ED30D600D60BE82B3B
:1017D400D70BE82BED2B38300A128A1560220A1237
:1017E4008A150C300A128A1560220A128A150130F1
:1017F4000A128A1560220A128A1506300A128A15FC
:1018040060220A128A15033083120313D70097301B
:10181400D600D60B0B2CD70B0B2C0800831203130A
:10182400DE015E08D60000300A128A15D9220A1297
:101834008A1583120313DD010D30D3005E080A12EA
:101844008A1574220A128A15A03E831203135D07B7
:10185400DC005C088400831300080A128A150E2237
:101864000A128A15013083120313DD070D305D025D
:10187400031C3D2C3E2C1E2C0130DE0702305E0280
:10188400031C452C462C132C080083120313530805
:10189400540403194E2C4F2C7C2C0130D7005B2CA4
:1018A40001300310D30DD40DFF3E031D532C013022
:1018B400D707D41F5E2C5F2C522C54085602031DEC
:1018C400652C53085502031C682C692C6F2C530893
:1018D400D5025408031CD603D60201300310D40CDD
:1018E400D30CFF3E031D702C0130D702031D7B2C4B
:1018F4007C2C5F2C5608D4005508D30008008312B2
:101904000313D4010A128A1589220A128A15831232
:101914000313D500203055060319912C922C842CE6
:101924002C3055060319972C982C842CA92C540878
:10193400493E84005508831380000130D4070A12FD
:101944008A1589220A128A1583120313D5003030AE
:101954005502031CAE2CAF2CBB2C3A305502031895
:10196400B42CB52CBB2C03305402031CBA2CBB2C56
:10197400992C54080800831203138C1EC22CC32C08
:10198400D22C981CC62CC72CC92C181218167608F1
:101994000F39343E84001A08831380000130F6079F
:1019A4000C1CD52CD62CF12C0C100B308F00DC30F9
:1019B4008E00C81CDE2CDF2CF12C0130CF07023046
:1019C4004F02031CE62CE72CF12CCF010130CE078B
:1019D4004E08F000F1017008C6007108C7007408D1
:1019E4008A0073088400720E8300FE0E7E0E0900C6
:1019F40083120313081CFF2C002D242D6E080319D9
:101A0400042D052D242D0D30D3006D080A128A15DE
:101A140074220A128A15A03E8400203083138000A9
:101A240083120313EE01ED0183160313A001143096
:101A340083120313D7007930D600D60B1F2DD70B92
:101A44001F2D3B2D881C272D282D3B2D6E08031D93
:101A54002C2D2D2D3B2D203083160313A000013097
:101A640083120313EE000130ED0083160313AD015E
:101A7400192D080083120313D801D9015308540403
:101A84000319452D462D7B2D0130D700522D0130F1
:101A94000310D30DD40DFF3E031D4A2D0130D7078B
:101AA400D41F552D562D492D01300310D80DD90DB5
:101AB400FF3E031D572D54085602031D632D530882
:101AC4005502031C662D672D6E2D5308D50254084C
:101AD400031CD603D602581401300310D40CD30CC3
:101AE400FF3E031D6F2D0130D702031D7A2D7B2D80
:101AF400562D5908D4005808D30008008312031344
:101B0400DA01D9010D30D3005A080A128A15742259
:101B14000A128A15A13E831203135907D6005608E8
:101B2400840083130008D7000D30D3005A080A122A
:101B34008A1574220A128A15A03E831203135907C8
:101B4400D800580884005708831380000130D9074F
:101B54000C305902031CAF2DB02D842D0D30D30051
:101B64005A080A128A1574220A128A15AC3E840095
:101B7400203083138000013083120313DA0702300C
:101B84005A02031CC62DC72D832D0800831203138C
:101B9400E000E101E201E301FF2D6208D9006108E0
:101BA400D8000310D80DD90D6208DB006108DA00F3
:101BB4000310DA0DDB0D0310DA0DDB0D0310DA0D63
:101BC400DB0D6308493E840000085A07DC005B080B
:101BD40003185B0ADD0058085C07DE005908031887
:101BE400590A5D07DF005E08D03EE1005F08031874
:101BF400013EFF3EE2000130E30760086302031880
:101C0400042E052E182E6308493E840030308313B9
:101C14000002031C0E2E0F2E182E6308493E84006A
:101C24003A300002031C172E182ECF2D6208D7005D
:101C34006108D600080040300A128A1560220A1290
:101C44008A1583120313DE015E08203EDC00003097
:101C54000318013EDD005C08840083175D1C8313B8
:101C640000080A128A150E220A128A1501308312FC
:101C74000313DE0708305E02031C412E422E262E7B
:101C840048300A128A1560220A128A158312031335
:101C9400DE015E08283EDC0000300318013EDD0052
:101CA4005C08840083175D1C831300080A128A15DC
:101CB4000E220A128A15013083120313DE0708303C
:101CC4005E02031C662E672E4B2E80300A128A1584
:101CD40060220A128A15033083120313B304080026
:101CE40001300A128A1560220A128A1503308312FF
:101CF4000313E0009730DF00DF0B7E2EE00B7E2E17
:101D04000A128A151D260A128A1583120313E10189
:101D1400E2010D30D30061080A128A1574220A12F6
:101D24008A15A03E831203136207DF005F08840054
:101D34002030831380000130E2070D306202031C5F
:101D4400A42EA52E8B2E0130E10702306102031C64
:101D5400AC2EAD2E8A2E0130EE000130ED00EC01E8
:101D6400D2010108D1070A128A1503220A128A1520
:101D740083160313AD01033083120313D0040A1234
:101D84008A1529220A128A15080083120313D8011E
:101D9400D61FCD2ECE2ED52ED509D609D50A031998
:101DA400D60A0130D800D41FD82ED92EDE2ED3095E
:101DB400D409D30A0319D40A530854040319E32E8B
:101DC400E42E112F0130D700F02E01300310D30D73
:101DD400D40DFF3E031DE82E0130D707D41FF32E88
:101DE400F42EE72E54085602031DFA2E530855020A
:101DF400031CFD2EFE2E042F5308D5025408031C89
:101E0400D603D60201300310D40CD30CFF3E031DBD
:101E1400052F0130D702031D102F112FF42E58085F
:101E24000319152F162F1B2FD509D609D50A031907
:101E3400D60A5608D4005508D3000800013083128E
:101E44000313D4000A128A15F7220A128A15831280
:101E5400031333182E2F2F2F322F8C30D500342F0D
:101E6400AA30D5005508D4000A128A15F7220A129E
:101E74008A15223083120313D4000A128A15F7221A
:101E84000A128A1583120313B318492F4A2F4D2FB0
:101E94008C30D6004F2FAA30D6005608D4000A1230
:101EA4008A15F7220A128A154B3083120313D400C1
:101EB4000A128A15F7220A128A1583120313331998
:101EC400642F652F682F8C30D7006A2FAA30D70073
:101ED4005708D4000A128A15F7220A128A1592307A
:101EE40083120313D4000A128A15F7220A128A15E0
:101EF4000800831203133003031D812F822FC12F87
:101F040032084502031D882F31084402031C8B2F1D
:101F14008C2FFF2FFE30D00548140A128A11D825C1
:101F24000A128A150A128A11C3210A128A15FD306F
:101F340083120313D005D60100300A128A15D92260
:101F44000A128A156A3083120313DC000A128A15F6
:101F540017230A128A1583120313D601D60A0030F6
:101F64000A128A15D9220A128A15563083120313CB
:101F7400DC000A128A1517230A128A15FF2F320869
:101F84004702031DC72F31084602031CCA2FCB2F5B
:101F9400FF2FFE30D00548140A128A11D8250A12E0
:101FA4008A150A128A11C3210A128A15FD30831276
:101FB4000313D005D60100300A128A15D9220A1259
:101FC4008A156A3083120313DC000A128A15172358
:101FD4000A128A1583120313D601D60A00300A1294
:101FE4008A15D9220A128A15563083120313DC008B
:0C1FF4000A128A1517230A128A15080029
:02400E00313F40
:00000001FF
