:100000000A128A11F22F00308A000408840A82073B
:10001000003450344934433431343634463438347F
:1000200037343734413420344C34693473347434C5
:080030006F340D340A34003472
:100B060064008001840A0406031900340406842D57
:100B1600F00083160313981C912D922D8C2D7008CE
:100B260083120313990008009E2D981C9B2D9C2D63
:100B36009E2D18121816831203138C1EA32DA42D96
:100B4600982D1A0808008316031307138717073012
:100B56009F0019309900181518129816831203135E
:100B660098171816FB010800C62D710884000A1292
:100B76008A1103200A128A110A128A118B250A1277
:100B86008A110130F107710884000A128A110320C4
:100B96000A128A11003A031DD12DD22DB82D080054
:100BA6008316031307108312031307108316031308
:100BB60087108312031387100A128A11A6250A12B8
:100BC6008A118230F700DD30F600F60BE82DF70BC0
:100BD600E82DED2D0130F1000A128A11B7250A120F
:100BE6008A11831203138C1EF92DFA2D622E0A1216
:100BF6008A1197250A128A11FA000A307A06031911
:100C0600052E062E0C2E0D307A06031D0B2E0C2EED
:100C1600542E7B080319102E112E622E7B08203EBF
:100C26008400831380018312031387141A30F7009C
:100C3600F830F600F60B1D2EF70B1D2E0000831262
:100C4600031387100A128A116D260A128A11710877
:100C5600F9007008F80078037904031D332E342E4A
:100C6600412E8312031307140130F1000030F20005
:100C76000A128A110C270A128A11522E7808790450
:100C8600031D462E472E522E8312031307100030E3
:100C9600F100F2000A128A110C270A128A11FB01CE
:100CA600622E1F307B020318592E5A2E622E7B08A5
:100CB600203E84007A08831380000130FB07C7308A
:100CC600F600652EF60B642E682E692EF42D0A1298
:100CD6008A110028F501F52E7508203E8400223081
:100CE60083130006031D782E792EF32E7508213EF8
:100CF600840063300006031D812E822EF32E7508B4
:100D0600223E84006F300006031D8A2E8B2EF32EA2
:100D16007508233E84006D300006031D932E942E25
:100D2600F32E7508243E84006D300006031D9C2EAC
:100D36009D2EF32E7508253E840061300006031DA6
:100D4600A52EA62EF32E7508263E84006E300006CC
:100D5600031DAE2EAF2EF32E7508273E8400643099
:100D66000006031DB72EB82EF32E7508283E840004
:100D760022300006031DC02EC12EF32E7508293E13
:100D860084003A300006031DC92ECA2EF32E7508BC
:100D96000A3EF400ED2E7408203E84003030000236
:100DA600031CD62ED72EEB2E7408203E84003A3034
:100DB60000020318DF2EE02EEB2E7408203E84007E
:100DC6000008D03EF000FF3003180030F1000B2F72
:100DD6000130F4077B087402031CF22EF32ECE2E8C
:100DE6000130F5077B08F73EF200FF3003180030AC
:100DF600F3007308803A803C031D032F72087502C6
:100E0600031C062F072F6F2EFF30F000FF30F10076
:100E160008007B300A128A118B250A128A112230A9
:100E26000A128A118B250A128A1172300A128A1145
:100E36008B250A128A1165300A128A118B250A122D
:100E46008A1173300A128A118B250A128A117030A0
:100E56000A128A118B250A128A116F300A128A1118
:100E66008B250A128A116E300A128A118B250A12F4
:100E76008A1173300A128A118B250A128A1165307B
:100E86000A128A118B250A128A1122300A128A1135
:100E96008B250A128A113A300A128A118B250A12F8
:100EA6008A1120300A128A118B250A128A117108BA
:100EB600303E0A128A118B250A128A112C300A1228
:100EC6008A118B250A128A1120300A128A118B2563
:100ED6000A128A1122300A128A118B250A128A11E5
:100EE60073300A128A118B250A128A1174300A127B
:100EF6008A118B250A128A1161300A128A118B25F2
:100F06000A128A1174300A128A118B250A128A1162
:100F160075300A128A118B250A128A1173300A1249
:100F26008A118B250A128A1122300A128A118B2500
:100F36000A128A113A300A128A118B250A128A116C
:100F460020300A128A118B250A128A1122300A12BF
:100F56008A118B250A128A1173300A128A118B257F
:100F66000A128A1175300A128A118B250A128A1101
:100F760063300A128A118B250A128A1163300A120B
:100F86008A118B250A128A1165300A128A118B255D
:100F96000A128A1173300A128A118B250A128A11D3
:100FA60073300A128A118B250A128A1122300A120C
:100FB6008A118B250A128A117D300A128A118B2515
:100FC6000A128A110D300A128A118B250A128A1109
:100FD6000A300A128A118B250A128A110800FB01AF
:100FE60083132030840040300A128A1183250A12A6
:0A0FF6008A1183010A128A11D32D1B
:02400E00313F40
:00000001FF
